{
	"contracts/AbelStake.sol": {
		"AbelStaking": {
			"abi": [
				{
					"inputs": [
						{
							"internalType": "address",
							"name": "_stakingToken",
							"type": "address"
						},
						{
							"internalType": "address",
							"name": "_rewardToken",
							"type": "address"
						}
					],
					"stateMutability": "nonpayable",
					"type": "constructor"
				},
				{
					"inputs": [
						{
							"internalType": "address",
							"name": "_account",
							"type": "address"
						}
					],
					"name": "earned",
					"outputs": [
						{
							"internalType": "uint256",
							"name": "",
							"type": "uint256"
						}
					],
					"stateMutability": "view",
					"type": "function"
				},
				{
					"inputs": [],
					"name": "getReward",
					"outputs": [],
					"stateMutability": "nonpayable",
					"type": "function"
				},
				{
					"inputs": [],
					"name": "lastTimeRewardApplicable",
					"outputs": [
						{
							"internalType": "uint256",
							"name": "",
							"type": "uint256"
						}
					],
					"stateMutability": "view",
					"type": "function"
				},
				{
					"inputs": [
						{
							"internalType": "uint256",
							"name": "_amount",
							"type": "uint256"
						}
					],
					"name": "notifyRewardAmount",
					"outputs": [],
					"stateMutability": "nonpayable",
					"type": "function"
				},
				{
					"inputs": [],
					"name": "rewardPerToken",
					"outputs": [
						{
							"internalType": "uint256",
							"name": "",
							"type": "uint256"
						}
					],
					"stateMutability": "view",
					"type": "function"
				},
				{
					"inputs": [],
					"name": "rewardsToken",
					"outputs": [
						{
							"internalType": "contract IERC20",
							"name": "",
							"type": "address"
						}
					],
					"stateMutability": "view",
					"type": "function"
				},
				{
					"inputs": [
						{
							"internalType": "uint256",
							"name": "_duration",
							"type": "uint256"
						}
					],
					"name": "setRewardsDuration",
					"outputs": [],
					"stateMutability": "nonpayable",
					"type": "function"
				},
				{
					"inputs": [
						{
							"internalType": "uint256",
							"name": "_amount",
							"type": "uint256"
						}
					],
					"name": "stake",
					"outputs": [],
					"stateMutability": "nonpayable",
					"type": "function"
				},
				{
					"inputs": [],
					"name": "stakingToken",
					"outputs": [
						{
							"internalType": "contract IERC20",
							"name": "",
							"type": "address"
						}
					],
					"stateMutability": "view",
					"type": "function"
				},
				{
					"inputs": [],
					"name": "totalStaked",
					"outputs": [
						{
							"internalType": "uint256",
							"name": "",
							"type": "uint256"
						}
					],
					"stateMutability": "view",
					"type": "function"
				},
				{
					"inputs": [
						{
							"internalType": "uint256",
							"name": "_amount",
							"type": "uint256"
						}
					],
					"name": "withdraw",
					"outputs": [],
					"stateMutability": "nonpayable",
					"type": "function"
				}
			],
			"devdoc": {
				"kind": "dev",
				"methods": {},
				"version": 1
			},
			"evm": {
				"assembly": "    /* \"contracts/AbelStake.sol\":81:3563  contract AbelStaking {... */\n  mstore(0x40, 0xc0)\n    /* \"contracts/AbelStake.sol\":569:752  constructor(address _stakingToken, address _rewardToken) {... */\n  callvalue\n  dup1\n  iszero\n  tag_1\n  jumpi\n  0x00\n  dup1\n  revert\ntag_1:\n  pop\n  mload(0x40)\n  sub(codesize, bytecodeSize)\n  dup1\n  bytecodeSize\n  dup4\n  codecopy\n  dup2\n  dup2\n  add\n  0x40\n  mstore\n  dup2\n  add\n  swap1\n  tag_2\n  swap2\n  swap1\n  tag_3\n  jump\t// in\ntag_2:\n    /* \"contracts/AbelStake.sol\":644:654  msg.sender */\n  caller\n    /* \"contracts/AbelStake.sol\":636:641  owner */\n  0x00\n  dup1\n    /* \"contracts/AbelStake.sol\":636:654  owner = msg.sender */\n  0x0100\n  exp\n  dup2\n  sload\n  dup2\n  0xffffffffffffffffffffffffffffffffffffffff\n  mul\n  not\n  and\n  swap1\n  dup4\n  0xffffffffffffffffffffffffffffffffffffffff\n  and\n  mul\n  or\n  swap1\n  sstore\n  pop\n    /* \"contracts/AbelStake.sol\":686:699  _stakingToken */\n  dup2\n    /* \"contracts/AbelStake.sol\":664:700  stakingToken = IERC20(_stakingToken) */\n  0xffffffffffffffffffffffffffffffffffffffff\n  and\n  0x80\n  dup2\n  0xffffffffffffffffffffffffffffffffffffffff\n  and\n  dup2\n  mstore\n  pop\n  pop\n    /* \"contracts/AbelStake.sol\":732:744  _rewardToken */\n  dup1\n    /* \"contracts/AbelStake.sol\":710:745  rewardsToken = IERC20(_rewardToken) */\n  0xffffffffffffffffffffffffffffffffffffffff\n  and\n  0xa0\n  dup2\n  0xffffffffffffffffffffffffffffffffffffffff\n  and\n  dup2\n  mstore\n  pop\n  pop\n    /* \"contracts/AbelStake.sol\":569:752  constructor(address _stakingToken, address _rewardToken) {... */\n  pop\n  pop\n    /* \"contracts/AbelStake.sol\":81:3563  contract AbelStaking {... */\n  jump(tag_6)\n    /* \"#utility.yul\":88:205   */\ntag_8:\n    /* \"#utility.yul\":197:198   */\n  0x00\n    /* \"#utility.yul\":194:195   */\n  dup1\n    /* \"#utility.yul\":187:199   */\n  revert\n    /* \"#utility.yul\":334:460   */\ntag_10:\n    /* \"#utility.yul\":371:378   */\n  0x00\n    /* \"#utility.yul\":411:453   */\n  0xffffffffffffffffffffffffffffffffffffffff\n    /* \"#utility.yul\":404:409   */\n  dup3\n    /* \"#utility.yul\":400:454   */\n  and\n    /* \"#utility.yul\":389:454   */\n  swap1\n  pop\n    /* \"#utility.yul\":334:460   */\n  swap2\n  swap1\n  pop\n  jump\t// out\n    /* \"#utility.yul\":466:562   */\ntag_11:\n    /* \"#utility.yul\":503:510   */\n  0x00\n    /* \"#utility.yul\":532:556   */\n  tag_20\n    /* \"#utility.yul\":550:555   */\n  dup3\n    /* \"#utility.yul\":532:556   */\n  tag_10\n  jump\t// in\ntag_20:\n    /* \"#utility.yul\":521:556   */\n  swap1\n  pop\n    /* \"#utility.yul\":466:562   */\n  swap2\n  swap1\n  pop\n  jump\t// out\n    /* \"#utility.yul\":568:690   */\ntag_12:\n    /* \"#utility.yul\":641:665   */\n  tag_22\n    /* \"#utility.yul\":659:664   */\n  dup2\n    /* \"#utility.yul\":641:665   */\n  tag_11\n  jump\t// in\ntag_22:\n    /* \"#utility.yul\":634:639   */\n  dup2\n    /* \"#utility.yul\":631:666   */\n  eq\n    /* \"#utility.yul\":621:684   */\n  tag_23\n  jumpi\n    /* \"#utility.yul\":680:681   */\n  0x00\n    /* \"#utility.yul\":677:678   */\n  dup1\n    /* \"#utility.yul\":670:682   */\n  revert\n    /* \"#utility.yul\":621:684   */\ntag_23:\n    /* \"#utility.yul\":568:690   */\n  pop\n  jump\t// out\n    /* \"#utility.yul\":696:839   */\ntag_13:\n    /* \"#utility.yul\":753:758   */\n  0x00\n    /* \"#utility.yul\":784:790   */\n  dup2\n    /* \"#utility.yul\":778:791   */\n  mload\n    /* \"#utility.yul\":769:791   */\n  swap1\n  pop\n    /* \"#utility.yul\":800:833   */\n  tag_25\n    /* \"#utility.yul\":827:832   */\n  dup2\n    /* \"#utility.yul\":800:833   */\n  tag_12\n  jump\t// in\ntag_25:\n    /* \"#utility.yul\":696:839   */\n  swap3\n  swap2\n  pop\n  pop\n  jump\t// out\n    /* \"#utility.yul\":845:1352   */\ntag_3:\n    /* \"#utility.yul\":924:930   */\n  0x00\n    /* \"#utility.yul\":932:938   */\n  dup1\n    /* \"#utility.yul\":981:983   */\n  0x40\n    /* \"#utility.yul\":969:978   */\n  dup4\n    /* \"#utility.yul\":960:967   */\n  dup6\n    /* \"#utility.yul\":956:979   */\n  sub\n    /* \"#utility.yul\":952:984   */\n  slt\n    /* \"#utility.yul\":949:1068   */\n  iszero\n  tag_27\n  jumpi\n    /* \"#utility.yul\":987:1066   */\n  tag_28\n  tag_8\n  jump\t// in\ntag_28:\n    /* \"#utility.yul\":949:1068   */\ntag_27:\n    /* \"#utility.yul\":1107:1108   */\n  0x00\n    /* \"#utility.yul\":1132:1196   */\n  tag_29\n    /* \"#utility.yul\":1188:1195   */\n  dup6\n    /* \"#utility.yul\":1179:1185   */\n  dup3\n    /* \"#utility.yul\":1168:1177   */\n  dup7\n    /* \"#utility.yul\":1164:1186   */\n  add\n    /* \"#utility.yul\":1132:1196   */\n  tag_13\n  jump\t// in\ntag_29:\n    /* \"#utility.yul\":1122:1196   */\n  swap3\n  pop\n    /* \"#utility.yul\":1078:1206   */\n  pop\n    /* \"#utility.yul\":1245:1247   */\n  0x20\n    /* \"#utility.yul\":1271:1335   */\n  tag_30\n    /* \"#utility.yul\":1327:1334   */\n  dup6\n    /* \"#utility.yul\":1318:1324   */\n  dup3\n    /* \"#utility.yul\":1307:1316   */\n  dup7\n    /* \"#utility.yul\":1303:1325   */\n  add\n    /* \"#utility.yul\":1271:1335   */\n  tag_13\n  jump\t// in\ntag_30:\n    /* \"#utility.yul\":1261:1335   */\n  swap2\n  pop\n    /* \"#utility.yul\":1216:1345   */\n  pop\n    /* \"#utility.yul\":845:1352   */\n  swap3\n  pop\n  swap3\n  swap1\n  pop\n  jump\t// out\n    /* \"contracts/AbelStake.sol\":81:3563  contract AbelStaking {... */\ntag_6:\n  mload(0x80)\n  mload(0xa0)\n  codecopy(0x00, dataOffset(sub_0), dataSize(sub_0))\n  0x00\n  assignImmutable(\"0xe4b1702d9298fee62dfeccc57d322a463ad55ca201256d01f62b45b2e1c21c10\")\n  0x00\n  assignImmutable(\"0xceebf77a833b30520287ddd9478ff51abbdffa30aa90a8d655dba0e8a79ce0c1\")\n  return(0x00, dataSize(sub_0))\nstop\n\nsub_0: assembly {\n        /* \"contracts/AbelStake.sol\":81:3563  contract AbelStaking {... */\n      mstore(0x40, 0x80)\n      callvalue\n      dup1\n      iszero\n      tag_1\n      jumpi\n      0x00\n      dup1\n      revert\n    tag_1:\n      pop\n      jumpi(tag_2, lt(calldatasize, 0x04))\n      shr(0xe0, calldataload(0x00))\n      dup1\n      0x80faa57d\n      gt\n      tag_14\n      jumpi\n      dup1\n      0x80faa57d\n      eq\n      tag_8\n      jumpi\n      dup1\n      0x817b1cd2\n      eq\n      tag_9\n      jumpi\n      dup1\n      0xa694fc3a\n      eq\n      tag_10\n      jumpi\n      dup1\n      0xcc1a378f\n      eq\n      tag_11\n      jumpi\n      dup1\n      0xcd3daf9d\n      eq\n      tag_12\n      jumpi\n      dup1\n      0xd1af0c7d\n      eq\n      tag_13\n      jumpi\n      jump(tag_2)\n    tag_14:\n      dup1\n      0x8cc262\n      eq\n      tag_3\n      jumpi\n      dup1\n      0x2e1a7d4d\n      eq\n      tag_4\n      jumpi\n      dup1\n      0x3c6b16ab\n      eq\n      tag_5\n      jumpi\n      dup1\n      0x3d18b912\n      eq\n      tag_6\n      jumpi\n      dup1\n      0x72f702f3\n      eq\n      tag_7\n      jumpi\n    tag_2:\n      0x00\n      dup1\n      revert\n        /* \"contracts/AbelStake.sol\":2131:2362  function earned(address _account) public view returns (uint) {... */\n    tag_3:\n      tag_15\n      0x04\n      dup1\n      calldatasize\n      sub\n      dup2\n      add\n      swap1\n      tag_16\n      swap2\n      swap1\n      tag_17\n      jump\t// in\n    tag_16:\n      tag_18\n      jump\t// in\n    tag_15:\n      mload(0x40)\n      tag_19\n      swap2\n      swap1\n      tag_20\n      jump\t// in\n    tag_19:\n      mload(0x40)\n      dup1\n      swap2\n      sub\n      swap1\n      return\n        /* \"contracts/AbelStake.sol\":1882:2125  function withdraw(uint _amount) external updateReward(msg.sender) {... */\n    tag_4:\n      tag_21\n      0x04\n      dup1\n      calldatasize\n      sub\n      dup2\n      add\n      swap1\n      tag_22\n      swap2\n      swap1\n      tag_23\n      jump\t// in\n    tag_22:\n      tag_24\n      jump\t// in\n    tag_21:\n      stop\n        /* \"contracts/AbelStake.sol\":2801:3459  function notifyRewardAmount(... */\n    tag_5:\n      tag_25\n      0x04\n      dup1\n      calldatasize\n      sub\n      dup2\n      add\n      swap1\n      tag_26\n      swap2\n      swap1\n      tag_23\n      jump\t// in\n    tag_26:\n      tag_27\n      jump\t// in\n    tag_25:\n      stop\n        /* \"contracts/AbelStake.sol\":2368:2601  function getReward() external updateReward(msg.sender) {... */\n    tag_6:\n      tag_28\n      tag_29\n      jump\t// in\n    tag_28:\n      stop\n        /* \"contracts/AbelStake.sol\":108:144  IERC20 public immutable stakingToken */\n    tag_7:\n      tag_30\n      tag_31\n      jump\t// in\n    tag_30:\n      mload(0x40)\n      tag_32\n      swap2\n      swap1\n      tag_33\n      jump\t// in\n    tag_32:\n      mload(0x40)\n      dup1\n      swap2\n      sub\n      swap1\n      return\n        /* \"contracts/AbelStake.sol\":1191:1309  function lastTimeRewardApplicable() public view returns (uint) {... */\n    tag_8:\n      tag_34\n      tag_35\n      jump\t// in\n    tag_34:\n      mload(0x40)\n      tag_36\n      swap2\n      swap1\n      tag_20\n      jump\t// in\n    tag_36:\n      mload(0x40)\n      dup1\n      swap2\n      sub\n      swap1\n      return\n        /* \"contracts/AbelStake.sol\":462:485  uint public totalStaked */\n    tag_9:\n      tag_37\n      tag_38\n      jump\t// in\n    tag_37:\n      mload(0x40)\n      tag_39\n      swap2\n      swap1\n      tag_20\n      jump\t// in\n    tag_39:\n      mload(0x40)\n      dup1\n      swap2\n      sub\n      swap1\n      return\n        /* \"contracts/AbelStake.sol\":1617:1876  function stake(uint _amount) external updateReward(msg.sender) {... */\n    tag_10:\n      tag_40\n      0x04\n      dup1\n      calldatasize\n      sub\n      dup2\n      add\n      swap1\n      tag_41\n      swap2\n      swap1\n      tag_23\n      jump\t// in\n    tag_41:\n      tag_42\n      jump\t// in\n    tag_40:\n      stop\n        /* \"contracts/AbelStake.sol\":2607:2795  function setRewardsDuration(uint _duration) external {... */\n    tag_11:\n      tag_43\n      0x04\n      dup1\n      calldatasize\n      sub\n      dup2\n      add\n      swap1\n      tag_44\n      swap2\n      swap1\n      tag_23\n      jump\t// in\n    tag_44:\n      tag_45\n      jump\t// in\n    tag_43:\n      stop\n        /* \"contracts/AbelStake.sol\":1315:1611  function rewardPerToken() public view returns (uint) {... */\n    tag_12:\n      tag_46\n      tag_47\n      jump\t// in\n    tag_46:\n      mload(0x40)\n      tag_48\n      swap2\n      swap1\n      tag_20\n      jump\t// in\n    tag_48:\n      mload(0x40)\n      dup1\n      swap2\n      sub\n      swap1\n      return\n        /* \"contracts/AbelStake.sol\":150:186  IERC20 public immutable rewardsToken */\n    tag_13:\n      tag_49\n      tag_50\n      jump\t// in\n    tag_49:\n      mload(0x40)\n      tag_51\n      swap2\n      swap1\n      tag_33\n      jump\t// in\n    tag_51:\n      mload(0x40)\n      dup1\n      swap2\n      sub\n      swap1\n      return\n        /* \"contracts/AbelStake.sol\":2131:2362  function earned(address _account) public view returns (uint) {... */\n    tag_18:\n        /* \"contracts/AbelStake.sol\":2186:2190  uint */\n      0x00\n        /* \"contracts/AbelStake.sol\":2338:2345  rewards */\n      0x07\n        /* \"contracts/AbelStake.sol\":2338:2355  rewards[_account] */\n      0x00\n        /* \"contracts/AbelStake.sol\":2346:2354  _account */\n      dup4\n        /* \"contracts/AbelStake.sol\":2338:2355  rewards[_account] */\n      0xffffffffffffffffffffffffffffffffffffffff\n      and\n      0xffffffffffffffffffffffffffffffffffffffff\n      and\n      dup2\n      mstore\n      0x20\n      add\n      swap1\n      dup2\n      mstore\n      0x20\n      add\n      0x00\n      keccak256\n      sload\n        /* \"contracts/AbelStake.sol\":2318:2322  1e18 */\n      0x0de0b6b3a7640000\n        /* \"contracts/AbelStake.sol\":2281:2303  userRewardPerTokenPaid */\n      0x06\n        /* \"contracts/AbelStake.sol\":2281:2313  userRewardPerTokenPaid[_account] */\n      0x00\n        /* \"contracts/AbelStake.sol\":2304:2312  _account */\n      dup6\n        /* \"contracts/AbelStake.sol\":2281:2313  userRewardPerTokenPaid[_account] */\n      0xffffffffffffffffffffffffffffffffffffffff\n      and\n      0xffffffffffffffffffffffffffffffffffffffff\n      and\n      dup2\n      mstore\n      0x20\n      add\n      swap1\n      dup2\n      mstore\n      0x20\n      add\n      0x00\n      keccak256\n      sload\n        /* \"contracts/AbelStake.sol\":2262:2278  rewardPerToken() */\n      tag_53\n        /* \"contracts/AbelStake.sol\":2262:2276  rewardPerToken */\n      tag_47\n        /* \"contracts/AbelStake.sol\":2262:2278  rewardPerToken() */\n      jump\t// in\n    tag_53:\n        /* \"contracts/AbelStake.sol\":2262:2313  rewardPerToken() - userRewardPerTokenPaid[_account] */\n      tag_54\n      swap2\n      swap1\n      tag_55\n      jump\t// in\n    tag_54:\n        /* \"contracts/AbelStake.sol\":2223:2232  balanceOf */\n      0x09\n        /* \"contracts/AbelStake.sol\":2223:2242  balanceOf[_account] */\n      0x00\n        /* \"contracts/AbelStake.sol\":2233:2241  _account */\n      dup7\n        /* \"contracts/AbelStake.sol\":2223:2242  balanceOf[_account] */\n      0xffffffffffffffffffffffffffffffffffffffff\n      and\n      0xffffffffffffffffffffffffffffffffffffffff\n      and\n      dup2\n      mstore\n      0x20\n      add\n      swap1\n      dup2\n      mstore\n      0x20\n      add\n      0x00\n      keccak256\n      sload\n        /* \"contracts/AbelStake.sol\":2223:2314  balanceOf[_account] *... */\n      tag_56\n      swap2\n      swap1\n      tag_57\n      jump\t// in\n    tag_56:\n        /* \"contracts/AbelStake.sol\":2222:2322  (balanceOf[_account] *... */\n      tag_58\n      swap2\n      swap1\n      tag_59\n      jump\t// in\n    tag_58:\n        /* \"contracts/AbelStake.sol\":2221:2355  ((balanceOf[_account] *... */\n      tag_60\n      swap2\n      swap1\n      tag_61\n      jump\t// in\n    tag_60:\n        /* \"contracts/AbelStake.sol\":2202:2355  return... */\n      swap1\n      pop\n        /* \"contracts/AbelStake.sol\":2131:2362  function earned(address _account) public view returns (uint) {... */\n      swap2\n      swap1\n      pop\n      jump\t// out\n        /* \"contracts/AbelStake.sol\":1882:2125  function withdraw(uint _amount) external updateReward(msg.sender) {... */\n    tag_24:\n        /* \"contracts/AbelStake.sol\":1936:1946  msg.sender */\n      caller\n        /* \"contracts/AbelStake.sol\":934:950  rewardPerToken() */\n      tag_63\n        /* \"contracts/AbelStake.sol\":934:948  rewardPerToken */\n      tag_47\n        /* \"contracts/AbelStake.sol\":934:950  rewardPerToken() */\n      jump\t// in\n    tag_63:\n        /* \"contracts/AbelStake.sol\":911:931  rewardPerTokenStored */\n      0x05\n        /* \"contracts/AbelStake.sol\":911:950  rewardPerTokenStored = rewardPerToken() */\n      dup2\n      swap1\n      sstore\n      pop\n        /* \"contracts/AbelStake.sol\":972:998  lastTimeRewardApplicable() */\n      tag_64\n        /* \"contracts/AbelStake.sol\":972:996  lastTimeRewardApplicable */\n      tag_35\n        /* \"contracts/AbelStake.sol\":972:998  lastTimeRewardApplicable() */\n      jump\t// in\n    tag_64:\n        /* \"contracts/AbelStake.sol\":960:969  updatedAt */\n      0x03\n        /* \"contracts/AbelStake.sol\":960:998  updatedAt = lastTimeRewardApplicable() */\n      dup2\n      swap1\n      sstore\n      pop\n        /* \"contracts/AbelStake.sol\":1033:1034  0 */\n      0x00\n        /* \"contracts/AbelStake.sol\":1013:1035  _account != address(0) */\n      0xffffffffffffffffffffffffffffffffffffffff\n      and\n        /* \"contracts/AbelStake.sol\":1013:1021  _account */\n      dup2\n        /* \"contracts/AbelStake.sol\":1013:1035  _account != address(0) */\n      0xffffffffffffffffffffffffffffffffffffffff\n      and\n      eq\n        /* \"contracts/AbelStake.sol\":1009:1167  if (_account != address(0)) {... */\n      tag_65\n      jumpi\n        /* \"contracts/AbelStake.sol\":1071:1087  earned(_account) */\n      tag_66\n        /* \"contracts/AbelStake.sol\":1078:1086  _account */\n      dup2\n        /* \"contracts/AbelStake.sol\":1071:1077  earned */\n      tag_18\n        /* \"contracts/AbelStake.sol\":1071:1087  earned(_account) */\n      jump\t// in\n    tag_66:\n        /* \"contracts/AbelStake.sol\":1051:1058  rewards */\n      0x07\n        /* \"contracts/AbelStake.sol\":1051:1068  rewards[_account] */\n      0x00\n        /* \"contracts/AbelStake.sol\":1059:1067  _account */\n      dup4\n        /* \"contracts/AbelStake.sol\":1051:1068  rewards[_account] */\n      0xffffffffffffffffffffffffffffffffffffffff\n      and\n      0xffffffffffffffffffffffffffffffffffffffff\n      and\n      dup2\n      mstore\n      0x20\n      add\n      swap1\n      dup2\n      mstore\n      0x20\n      add\n      0x00\n      keccak256\n        /* \"contracts/AbelStake.sol\":1051:1087  rewards[_account] = earned(_account) */\n      dup2\n      swap1\n      sstore\n      pop\n        /* \"contracts/AbelStake.sol\":1136:1156  rewardPerTokenStored */\n      sload(0x05)\n        /* \"contracts/AbelStake.sol\":1101:1123  userRewardPerTokenPaid */\n      0x06\n        /* \"contracts/AbelStake.sol\":1101:1133  userRewardPerTokenPaid[_account] */\n      0x00\n        /* \"contracts/AbelStake.sol\":1124:1132  _account */\n      dup4\n        /* \"contracts/AbelStake.sol\":1101:1133  userRewardPerTokenPaid[_account] */\n      0xffffffffffffffffffffffffffffffffffffffff\n      and\n      0xffffffffffffffffffffffffffffffffffffffff\n      and\n      dup2\n      mstore\n      0x20\n      add\n      swap1\n      dup2\n      mstore\n      0x20\n      add\n      0x00\n      keccak256\n        /* \"contracts/AbelStake.sol\":1101:1156  userRewardPerTokenPaid[_account] = rewardPerTokenStored */\n      dup2\n      swap1\n      sstore\n      pop\n        /* \"contracts/AbelStake.sol\":1009:1167  if (_account != address(0)) {... */\n    tag_65:\n        /* \"contracts/AbelStake.sol\":1976:1977  0 */\n      0x00\n        /* \"contracts/AbelStake.sol\":1966:1973  _amount */\n      dup3\n        /* \"contracts/AbelStake.sol\":1966:1977  _amount > 0 */\n      gt\n        /* \"contracts/AbelStake.sol\":1958:1992  require(_amount > 0, \"amount = 0\") */\n      tag_68\n      jumpi\n      mload(0x40)\n      0x08c379a000000000000000000000000000000000000000000000000000000000\n      dup2\n      mstore\n      0x04\n      add\n      tag_69\n      swap1\n      tag_70\n      jump\t// in\n    tag_69:\n      mload(0x40)\n      dup1\n      swap2\n      sub\n      swap1\n      revert\n    tag_68:\n        /* \"contracts/AbelStake.sol\":2027:2034  _amount */\n      dup2\n        /* \"contracts/AbelStake.sol\":2002:2011  balanceOf */\n      0x09\n        /* \"contracts/AbelStake.sol\":2002:2023  balanceOf[msg.sender] */\n      0x00\n        /* \"contracts/AbelStake.sol\":2012:2022  msg.sender */\n      caller\n        /* \"contracts/AbelStake.sol\":2002:2023  balanceOf[msg.sender] */\n      0xffffffffffffffffffffffffffffffffffffffff\n      and\n      0xffffffffffffffffffffffffffffffffffffffff\n      and\n      dup2\n      mstore\n      0x20\n      add\n      swap1\n      dup2\n      mstore\n      0x20\n      add\n      0x00\n      keccak256\n      0x00\n        /* \"contracts/AbelStake.sol\":2002:2034  balanceOf[msg.sender] -= _amount */\n      dup3\n      dup3\n      sload\n      tag_71\n      swap2\n      swap1\n      tag_55\n      jump\t// in\n    tag_71:\n      swap3\n      pop\n      pop\n      dup2\n      swap1\n      sstore\n      pop\n        /* \"contracts/AbelStake.sol\":2059:2066  _amount */\n      dup2\n        /* \"contracts/AbelStake.sol\":2044:2055  totalStaked */\n      0x08\n      0x00\n        /* \"contracts/AbelStake.sol\":2044:2066  totalStaked -= _amount */\n      dup3\n      dup3\n      sload\n      tag_72\n      swap2\n      swap1\n      tag_55\n      jump\t// in\n    tag_72:\n      swap3\n      pop\n      pop\n      dup2\n      swap1\n      sstore\n      pop\n        /* \"contracts/AbelStake.sol\":2076:2088  stakingToken */\n      immutable(\"0xceebf77a833b30520287ddd9478ff51abbdffa30aa90a8d655dba0e8a79ce0c1\")\n        /* \"contracts/AbelStake.sol\":2076:2097  stakingToken.transfer */\n      0xffffffffffffffffffffffffffffffffffffffff\n      and\n      0xa9059cbb\n        /* \"contracts/AbelStake.sol\":2098:2108  msg.sender */\n      caller\n        /* \"contracts/AbelStake.sol\":2110:2117  _amount */\n      dup5\n        /* \"contracts/AbelStake.sol\":2076:2118  stakingToken.transfer(msg.sender, _amount) */\n      mload(0x40)\n      dup4\n      0xffffffff\n      and\n      0xe0\n      shl\n      dup2\n      mstore\n      0x04\n      add\n      tag_73\n      swap3\n      swap2\n      swap1\n      tag_74\n      jump\t// in\n    tag_73:\n      0x20\n      mload(0x40)\n      dup1\n      dup4\n      sub\n      dup2\n      0x00\n      dup8\n      gas\n      call\n      iszero\n      dup1\n      iszero\n      tag_76\n      jumpi\n      returndatasize\n      0x00\n      dup1\n      returndatacopy\n      revert(0x00, returndatasize)\n    tag_76:\n      pop\n      pop\n      pop\n      pop\n      mload(0x40)\n      returndatasize\n      not(0x1f)\n      0x1f\n      dup3\n      add\n      and\n      dup3\n      add\n      dup1\n      0x40\n      mstore\n      pop\n      dup2\n      add\n      swap1\n      tag_77\n      swap2\n      swap1\n      tag_78\n      jump\t// in\n    tag_77:\n      pop\n        /* \"contracts/AbelStake.sol\":1882:2125  function withdraw(uint _amount) external updateReward(msg.sender) {... */\n      pop\n      pop\n      jump\t// out\n        /* \"contracts/AbelStake.sol\":2801:3459  function notifyRewardAmount(... */\n    tag_27:\n        /* \"contracts/AbelStake.sol\":2887:2888  0 */\n      0x00\n        /* \"contracts/AbelStake.sol\":934:950  rewardPerToken() */\n      tag_80\n        /* \"contracts/AbelStake.sol\":934:948  rewardPerToken */\n      tag_47\n        /* \"contracts/AbelStake.sol\":934:950  rewardPerToken() */\n      jump\t// in\n    tag_80:\n        /* \"contracts/AbelStake.sol\":911:931  rewardPerTokenStored */\n      0x05\n        /* \"contracts/AbelStake.sol\":911:950  rewardPerTokenStored = rewardPerToken() */\n      dup2\n      swap1\n      sstore\n      pop\n        /* \"contracts/AbelStake.sol\":972:998  lastTimeRewardApplicable() */\n      tag_81\n        /* \"contracts/AbelStake.sol\":972:996  lastTimeRewardApplicable */\n      tag_35\n        /* \"contracts/AbelStake.sol\":972:998  lastTimeRewardApplicable() */\n      jump\t// in\n    tag_81:\n        /* \"contracts/AbelStake.sol\":960:969  updatedAt */\n      0x03\n        /* \"contracts/AbelStake.sol\":960:998  updatedAt = lastTimeRewardApplicable() */\n      dup2\n      swap1\n      sstore\n      pop\n        /* \"contracts/AbelStake.sol\":1033:1034  0 */\n      0x00\n        /* \"contracts/AbelStake.sol\":1013:1035  _account != address(0) */\n      0xffffffffffffffffffffffffffffffffffffffff\n      and\n        /* \"contracts/AbelStake.sol\":1013:1021  _account */\n      dup2\n        /* \"contracts/AbelStake.sol\":1013:1035  _account != address(0) */\n      0xffffffffffffffffffffffffffffffffffffffff\n      and\n      eq\n        /* \"contracts/AbelStake.sol\":1009:1167  if (_account != address(0)) {... */\n      tag_82\n      jumpi\n        /* \"contracts/AbelStake.sol\":1071:1087  earned(_account) */\n      tag_83\n        /* \"contracts/AbelStake.sol\":1078:1086  _account */\n      dup2\n        /* \"contracts/AbelStake.sol\":1071:1077  earned */\n      tag_18\n        /* \"contracts/AbelStake.sol\":1071:1087  earned(_account) */\n      jump\t// in\n    tag_83:\n        /* \"contracts/AbelStake.sol\":1051:1058  rewards */\n      0x07\n        /* \"contracts/AbelStake.sol\":1051:1068  rewards[_account] */\n      0x00\n        /* \"contracts/AbelStake.sol\":1059:1067  _account */\n      dup4\n        /* \"contracts/AbelStake.sol\":1051:1068  rewards[_account] */\n      0xffffffffffffffffffffffffffffffffffffffff\n      and\n      0xffffffffffffffffffffffffffffffffffffffff\n      and\n      dup2\n      mstore\n      0x20\n      add\n      swap1\n      dup2\n      mstore\n      0x20\n      add\n      0x00\n      keccak256\n        /* \"contracts/AbelStake.sol\":1051:1087  rewards[_account] = earned(_account) */\n      dup2\n      swap1\n      sstore\n      pop\n        /* \"contracts/AbelStake.sol\":1136:1156  rewardPerTokenStored */\n      sload(0x05)\n        /* \"contracts/AbelStake.sol\":1101:1123  userRewardPerTokenPaid */\n      0x06\n        /* \"contracts/AbelStake.sol\":1101:1133  userRewardPerTokenPaid[_account] */\n      0x00\n        /* \"contracts/AbelStake.sol\":1124:1132  _account */\n      dup4\n        /* \"contracts/AbelStake.sol\":1101:1133  userRewardPerTokenPaid[_account] */\n      0xffffffffffffffffffffffffffffffffffffffff\n      and\n      0xffffffffffffffffffffffffffffffffffffffff\n      and\n      dup2\n      mstore\n      0x20\n      add\n      swap1\n      dup2\n      mstore\n      0x20\n      add\n      0x00\n      keccak256\n        /* \"contracts/AbelStake.sol\":1101:1156  userRewardPerTokenPaid[_account] = rewardPerTokenStored */\n      dup2\n      swap1\n      sstore\n      pop\n        /* \"contracts/AbelStake.sol\":1009:1167  if (_account != address(0)) {... */\n    tag_82:\n        /* \"contracts/AbelStake.sol\":2901:2912  onlyOwner() */\n      tag_85\n        /* \"contracts/AbelStake.sol\":2901:2910  onlyOwner */\n      tag_86\n        /* \"contracts/AbelStake.sol\":2901:2912  onlyOwner() */\n      jump\t// in\n    tag_85:\n        /* \"contracts/AbelStake.sol\":2945:2953  finishAt */\n      sload(0x02)\n        /* \"contracts/AbelStake.sol\":2926:2941  block.timestamp */\n      timestamp\n        /* \"contracts/AbelStake.sol\":2926:2953  block.timestamp >= finishAt */\n      lt\n        /* \"contracts/AbelStake.sol\":2922:3173  if (block.timestamp >= finishAt) {... */\n      tag_87\n      jumpi\n        /* \"contracts/AbelStake.sol\":2992:3000  duration */\n      sload(0x01)\n        /* \"contracts/AbelStake.sol\":2982:2989  _amount */\n      dup3\n        /* \"contracts/AbelStake.sol\":2982:3000  _amount / duration */\n      tag_88\n      swap2\n      swap1\n      tag_59\n      jump\t// in\n    tag_88:\n        /* \"contracts/AbelStake.sol\":2969:2979  rewardRate */\n      0x04\n        /* \"contracts/AbelStake.sol\":2969:3000  rewardRate = _amount / duration */\n      dup2\n      swap1\n      sstore\n      pop\n        /* \"contracts/AbelStake.sol\":2922:3173  if (block.timestamp >= finishAt) {... */\n      jump(tag_89)\n    tag_87:\n        /* \"contracts/AbelStake.sol\":3031:3052  uint remainingRewards */\n      0x00\n        /* \"contracts/AbelStake.sol\":3086:3096  rewardRate */\n      sload(0x04)\n        /* \"contracts/AbelStake.sol\":3067:3082  block.timestamp */\n      timestamp\n        /* \"contracts/AbelStake.sol\":3056:3064  finishAt */\n      sload(0x02)\n        /* \"contracts/AbelStake.sol\":3056:3082  finishAt - block.timestamp */\n      tag_90\n      swap2\n      swap1\n      tag_55\n      jump\t// in\n    tag_90:\n        /* \"contracts/AbelStake.sol\":3055:3096  (finishAt - block.timestamp) * rewardRate */\n      tag_91\n      swap2\n      swap1\n      tag_57\n      jump\t// in\n    tag_91:\n        /* \"contracts/AbelStake.sol\":3031:3096  uint remainingRewards = (finishAt - block.timestamp) * rewardRate */\n      swap1\n      pop\n        /* \"contracts/AbelStake.sol\":3154:3162  duration */\n      sload(0x01)\n        /* \"contracts/AbelStake.sol\":3134:3150  remainingRewards */\n      dup2\n        /* \"contracts/AbelStake.sol\":3124:3131  _amount */\n      dup5\n        /* \"contracts/AbelStake.sol\":3124:3150  _amount + remainingRewards */\n      tag_92\n      swap2\n      swap1\n      tag_61\n      jump\t// in\n    tag_92:\n        /* \"contracts/AbelStake.sol\":3123:3162  (_amount + remainingRewards) / duration */\n      tag_93\n      swap2\n      swap1\n      tag_59\n      jump\t// in\n    tag_93:\n        /* \"contracts/AbelStake.sol\":3110:3120  rewardRate */\n      0x04\n        /* \"contracts/AbelStake.sol\":3110:3162  rewardRate = (_amount + remainingRewards) / duration */\n      dup2\n      swap1\n      sstore\n      pop\n        /* \"contracts/AbelStake.sol\":3017:3173  {... */\n      pop\n        /* \"contracts/AbelStake.sol\":2922:3173  if (block.timestamp >= finishAt) {... */\n    tag_89:\n        /* \"contracts/AbelStake.sol\":3204:3205  0 */\n      0x00\n        /* \"contracts/AbelStake.sol\":3191:3201  rewardRate */\n      sload(0x04)\n        /* \"contracts/AbelStake.sol\":3191:3205  rewardRate > 0 */\n      gt\n        /* \"contracts/AbelStake.sol\":3183:3225  require(rewardRate > 0, \"reward rate = 0\") */\n      tag_94\n      jumpi\n      mload(0x40)\n      0x08c379a000000000000000000000000000000000000000000000000000000000\n      dup2\n      mstore\n      0x04\n      add\n      tag_95\n      swap1\n      tag_96\n      jump\t// in\n    tag_95:\n      mload(0x40)\n      dup1\n      swap2\n      sub\n      swap1\n      revert\n    tag_94:\n        /* \"contracts/AbelStake.sol\":3281:3293  rewardsToken */\n      immutable(\"0xe4b1702d9298fee62dfeccc57d322a463ad55ca201256d01f62b45b2e1c21c10\")\n        /* \"contracts/AbelStake.sol\":3281:3303  rewardsToken.balanceOf */\n      0xffffffffffffffffffffffffffffffffffffffff\n      and\n      0x70a08231\n        /* \"contracts/AbelStake.sol\":3312:3316  this */\n      address\n        /* \"contracts/AbelStake.sol\":3281:3318  rewardsToken.balanceOf(address(this)) */\n      mload(0x40)\n      dup3\n      0xffffffff\n      and\n      0xe0\n      shl\n      dup2\n      mstore\n      0x04\n      add\n      tag_97\n      swap2\n      swap1\n      tag_98\n      jump\t// in\n    tag_97:\n      0x20\n      mload(0x40)\n      dup1\n      dup4\n      sub\n      dup2\n      dup7\n      gas\n      staticcall\n      iszero\n      dup1\n      iszero\n      tag_100\n      jumpi\n      returndatasize\n      0x00\n      dup1\n      returndatacopy\n      revert(0x00, returndatasize)\n    tag_100:\n      pop\n      pop\n      pop\n      pop\n      mload(0x40)\n      returndatasize\n      not(0x1f)\n      0x1f\n      dup3\n      add\n      and\n      dup3\n      add\n      dup1\n      0x40\n      mstore\n      pop\n      dup2\n      add\n      swap1\n      tag_101\n      swap2\n      swap1\n      tag_102\n      jump\t// in\n    tag_101:\n        /* \"contracts/AbelStake.sol\":3269:3277  duration */\n      sload(0x01)\n        /* \"contracts/AbelStake.sol\":3256:3266  rewardRate */\n      sload(0x04)\n        /* \"contracts/AbelStake.sol\":3256:3277  rewardRate * duration */\n      tag_103\n      swap2\n      swap1\n      tag_57\n      jump\t// in\n    tag_103:\n        /* \"contracts/AbelStake.sol\":3256:3318  rewardRate * duration <= rewardsToken.balanceOf(address(this)) */\n      gt\n      iszero\n        /* \"contracts/AbelStake.sol\":3235:3367  require(... */\n      tag_104\n      jumpi\n      mload(0x40)\n      0x08c379a000000000000000000000000000000000000000000000000000000000\n      dup2\n      mstore\n      0x04\n      add\n      tag_105\n      swap1\n      tag_106\n      jump\t// in\n    tag_105:\n      mload(0x40)\n      dup1\n      swap2\n      sub\n      swap1\n      revert\n    tag_104:\n        /* \"contracts/AbelStake.sol\":3407:3415  duration */\n      sload(0x01)\n        /* \"contracts/AbelStake.sol\":3389:3404  block.timestamp */\n      timestamp\n        /* \"contracts/AbelStake.sol\":3389:3415  block.timestamp + duration */\n      tag_107\n      swap2\n      swap1\n      tag_61\n      jump\t// in\n    tag_107:\n        /* \"contracts/AbelStake.sol\":3378:3386  finishAt */\n      0x02\n        /* \"contracts/AbelStake.sol\":3378:3415  finishAt = block.timestamp + duration */\n      dup2\n      swap1\n      sstore\n      pop\n        /* \"contracts/AbelStake.sol\":3437:3452  block.timestamp */\n      timestamp\n        /* \"contracts/AbelStake.sol\":3425:3434  updatedAt */\n      0x03\n        /* \"contracts/AbelStake.sol\":3425:3452  updatedAt = block.timestamp */\n      dup2\n      swap1\n      sstore\n      pop\n        /* \"contracts/AbelStake.sol\":2801:3459  function notifyRewardAmount(... */\n      pop\n      pop\n      jump\t// out\n        /* \"contracts/AbelStake.sol\":2368:2601  function getReward() external updateReward(msg.sender) {... */\n    tag_29:\n        /* \"contracts/AbelStake.sol\":2411:2421  msg.sender */\n      caller\n        /* \"contracts/AbelStake.sol\":934:950  rewardPerToken() */\n      tag_109\n        /* \"contracts/AbelStake.sol\":934:948  rewardPerToken */\n      tag_47\n        /* \"contracts/AbelStake.sol\":934:950  rewardPerToken() */\n      jump\t// in\n    tag_109:\n        /* \"contracts/AbelStake.sol\":911:931  rewardPerTokenStored */\n      0x05\n        /* \"contracts/AbelStake.sol\":911:950  rewardPerTokenStored = rewardPerToken() */\n      dup2\n      swap1\n      sstore\n      pop\n        /* \"contracts/AbelStake.sol\":972:998  lastTimeRewardApplicable() */\n      tag_110\n        /* \"contracts/AbelStake.sol\":972:996  lastTimeRewardApplicable */\n      tag_35\n        /* \"contracts/AbelStake.sol\":972:998  lastTimeRewardApplicable() */\n      jump\t// in\n    tag_110:\n        /* \"contracts/AbelStake.sol\":960:969  updatedAt */\n      0x03\n        /* \"contracts/AbelStake.sol\":960:998  updatedAt = lastTimeRewardApplicable() */\n      dup2\n      swap1\n      sstore\n      pop\n        /* \"contracts/AbelStake.sol\":1033:1034  0 */\n      0x00\n        /* \"contracts/AbelStake.sol\":1013:1035  _account != address(0) */\n      0xffffffffffffffffffffffffffffffffffffffff\n      and\n        /* \"contracts/AbelStake.sol\":1013:1021  _account */\n      dup2\n        /* \"contracts/AbelStake.sol\":1013:1035  _account != address(0) */\n      0xffffffffffffffffffffffffffffffffffffffff\n      and\n      eq\n        /* \"contracts/AbelStake.sol\":1009:1167  if (_account != address(0)) {... */\n      tag_111\n      jumpi\n        /* \"contracts/AbelStake.sol\":1071:1087  earned(_account) */\n      tag_112\n        /* \"contracts/AbelStake.sol\":1078:1086  _account */\n      dup2\n        /* \"contracts/AbelStake.sol\":1071:1077  earned */\n      tag_18\n        /* \"contracts/AbelStake.sol\":1071:1087  earned(_account) */\n      jump\t// in\n    tag_112:\n        /* \"contracts/AbelStake.sol\":1051:1058  rewards */\n      0x07\n        /* \"contracts/AbelStake.sol\":1051:1068  rewards[_account] */\n      0x00\n        /* \"contracts/AbelStake.sol\":1059:1067  _account */\n      dup4\n        /* \"contracts/AbelStake.sol\":1051:1068  rewards[_account] */\n      0xffffffffffffffffffffffffffffffffffffffff\n      and\n      0xffffffffffffffffffffffffffffffffffffffff\n      and\n      dup2\n      mstore\n      0x20\n      add\n      swap1\n      dup2\n      mstore\n      0x20\n      add\n      0x00\n      keccak256\n        /* \"contracts/AbelStake.sol\":1051:1087  rewards[_account] = earned(_account) */\n      dup2\n      swap1\n      sstore\n      pop\n        /* \"contracts/AbelStake.sol\":1136:1156  rewardPerTokenStored */\n      sload(0x05)\n        /* \"contracts/AbelStake.sol\":1101:1123  userRewardPerTokenPaid */\n      0x06\n        /* \"contracts/AbelStake.sol\":1101:1133  userRewardPerTokenPaid[_account] */\n      0x00\n        /* \"contracts/AbelStake.sol\":1124:1132  _account */\n      dup4\n        /* \"contracts/AbelStake.sol\":1101:1133  userRewardPerTokenPaid[_account] */\n      0xffffffffffffffffffffffffffffffffffffffff\n      and\n      0xffffffffffffffffffffffffffffffffffffffff\n      and\n      dup2\n      mstore\n      0x20\n      add\n      swap1\n      dup2\n      mstore\n      0x20\n      add\n      0x00\n      keccak256\n        /* \"contracts/AbelStake.sol\":1101:1156  userRewardPerTokenPaid[_account] = rewardPerTokenStored */\n      dup2\n      swap1\n      sstore\n      pop\n        /* \"contracts/AbelStake.sol\":1009:1167  if (_account != address(0)) {... */\n    tag_111:\n        /* \"contracts/AbelStake.sol\":2433:2444  uint reward */\n      0x00\n        /* \"contracts/AbelStake.sol\":2447:2454  rewards */\n      0x07\n        /* \"contracts/AbelStake.sol\":2447:2466  rewards[msg.sender] */\n      0x00\n        /* \"contracts/AbelStake.sol\":2455:2465  msg.sender */\n      caller\n        /* \"contracts/AbelStake.sol\":2447:2466  rewards[msg.sender] */\n      0xffffffffffffffffffffffffffffffffffffffff\n      and\n      0xffffffffffffffffffffffffffffffffffffffff\n      and\n      dup2\n      mstore\n      0x20\n      add\n      swap1\n      dup2\n      mstore\n      0x20\n      add\n      0x00\n      keccak256\n      sload\n        /* \"contracts/AbelStake.sol\":2433:2466  uint reward = rewards[msg.sender] */\n      swap1\n      pop\n        /* \"contracts/AbelStake.sol\":2489:2490  0 */\n      0x00\n        /* \"contracts/AbelStake.sol\":2480:2486  reward */\n      dup2\n        /* \"contracts/AbelStake.sol\":2480:2490  reward > 0 */\n      gt\n        /* \"contracts/AbelStake.sol\":2476:2595  if (reward > 0) {... */\n      iszero\n      tag_114\n      jumpi\n        /* \"contracts/AbelStake.sol\":2528:2529  0 */\n      0x00\n        /* \"contracts/AbelStake.sol\":2506:2513  rewards */\n      0x07\n        /* \"contracts/AbelStake.sol\":2506:2525  rewards[msg.sender] */\n      0x00\n        /* \"contracts/AbelStake.sol\":2514:2524  msg.sender */\n      caller\n        /* \"contracts/AbelStake.sol\":2506:2525  rewards[msg.sender] */\n      0xffffffffffffffffffffffffffffffffffffffff\n      and\n      0xffffffffffffffffffffffffffffffffffffffff\n      and\n      dup2\n      mstore\n      0x20\n      add\n      swap1\n      dup2\n      mstore\n      0x20\n      add\n      0x00\n      keccak256\n        /* \"contracts/AbelStake.sol\":2506:2529  rewards[msg.sender] = 0 */\n      dup2\n      swap1\n      sstore\n      pop\n        /* \"contracts/AbelStake.sol\":2543:2555  rewardsToken */\n      immutable(\"0xe4b1702d9298fee62dfeccc57d322a463ad55ca201256d01f62b45b2e1c21c10\")\n        /* \"contracts/AbelStake.sol\":2543:2564  rewardsToken.transfer */\n      0xffffffffffffffffffffffffffffffffffffffff\n      and\n      0xa9059cbb\n        /* \"contracts/AbelStake.sol\":2565:2575  msg.sender */\n      caller\n        /* \"contracts/AbelStake.sol\":2577:2583  reward */\n      dup4\n        /* \"contracts/AbelStake.sol\":2543:2584  rewardsToken.transfer(msg.sender, reward) */\n      mload(0x40)\n      dup4\n      0xffffffff\n      and\n      0xe0\n      shl\n      dup2\n      mstore\n      0x04\n      add\n      tag_115\n      swap3\n      swap2\n      swap1\n      tag_74\n      jump\t// in\n    tag_115:\n      0x20\n      mload(0x40)\n      dup1\n      dup4\n      sub\n      dup2\n      0x00\n      dup8\n      gas\n      call\n      iszero\n      dup1\n      iszero\n      tag_117\n      jumpi\n      returndatasize\n      0x00\n      dup1\n      returndatacopy\n      revert(0x00, returndatasize)\n    tag_117:\n      pop\n      pop\n      pop\n      pop\n      mload(0x40)\n      returndatasize\n      not(0x1f)\n      0x1f\n      dup3\n      add\n      and\n      dup3\n      add\n      dup1\n      0x40\n      mstore\n      pop\n      dup2\n      add\n      swap1\n      tag_118\n      swap2\n      swap1\n      tag_78\n      jump\t// in\n    tag_118:\n      pop\n        /* \"contracts/AbelStake.sol\":2476:2595  if (reward > 0) {... */\n    tag_114:\n        /* \"contracts/AbelStake.sol\":2423:2601  {... */\n      pop\n        /* \"contracts/AbelStake.sol\":2368:2601  function getReward() external updateReward(msg.sender) {... */\n      pop\n      jump\t// out\n        /* \"contracts/AbelStake.sol\":108:144  IERC20 public immutable stakingToken */\n    tag_31:\n      immutable(\"0xceebf77a833b30520287ddd9478ff51abbdffa30aa90a8d655dba0e8a79ce0c1\")\n      dup2\n      jump\t// out\n        /* \"contracts/AbelStake.sol\":1191:1309  function lastTimeRewardApplicable() public view returns (uint) {... */\n    tag_35:\n        /* \"contracts/AbelStake.sol\":1248:1252  uint */\n      0x00\n        /* \"contracts/AbelStake.sol\":1271:1302  _min(finishAt, block.timestamp) */\n      tag_120\n        /* \"contracts/AbelStake.sol\":1276:1284  finishAt */\n      sload(0x02)\n        /* \"contracts/AbelStake.sol\":1286:1301  block.timestamp */\n      timestamp\n        /* \"contracts/AbelStake.sol\":1271:1275  _min */\n      tag_121\n        /* \"contracts/AbelStake.sol\":1271:1302  _min(finishAt, block.timestamp) */\n      jump\t// in\n    tag_120:\n        /* \"contracts/AbelStake.sol\":1264:1302  return _min(finishAt, block.timestamp) */\n      swap1\n      pop\n        /* \"contracts/AbelStake.sol\":1191:1309  function lastTimeRewardApplicable() public view returns (uint) {... */\n      swap1\n      jump\t// out\n        /* \"contracts/AbelStake.sol\":462:485  uint public totalStaked */\n    tag_38:\n      sload(0x08)\n      dup2\n      jump\t// out\n        /* \"contracts/AbelStake.sol\":1617:1876  function stake(uint _amount) external updateReward(msg.sender) {... */\n    tag_42:\n        /* \"contracts/AbelStake.sol\":1668:1678  msg.sender */\n      caller\n        /* \"contracts/AbelStake.sol\":934:950  rewardPerToken() */\n      tag_123\n        /* \"contracts/AbelStake.sol\":934:948  rewardPerToken */\n      tag_47\n        /* \"contracts/AbelStake.sol\":934:950  rewardPerToken() */\n      jump\t// in\n    tag_123:\n        /* \"contracts/AbelStake.sol\":911:931  rewardPerTokenStored */\n      0x05\n        /* \"contracts/AbelStake.sol\":911:950  rewardPerTokenStored = rewardPerToken() */\n      dup2\n      swap1\n      sstore\n      pop\n        /* \"contracts/AbelStake.sol\":972:998  lastTimeRewardApplicable() */\n      tag_124\n        /* \"contracts/AbelStake.sol\":972:996  lastTimeRewardApplicable */\n      tag_35\n        /* \"contracts/AbelStake.sol\":972:998  lastTimeRewardApplicable() */\n      jump\t// in\n    tag_124:\n        /* \"contracts/AbelStake.sol\":960:969  updatedAt */\n      0x03\n        /* \"contracts/AbelStake.sol\":960:998  updatedAt = lastTimeRewardApplicable() */\n      dup2\n      swap1\n      sstore\n      pop\n        /* \"contracts/AbelStake.sol\":1033:1034  0 */\n      0x00\n        /* \"contracts/AbelStake.sol\":1013:1035  _account != address(0) */\n      0xffffffffffffffffffffffffffffffffffffffff\n      and\n        /* \"contracts/AbelStake.sol\":1013:1021  _account */\n      dup2\n        /* \"contracts/AbelStake.sol\":1013:1035  _account != address(0) */\n      0xffffffffffffffffffffffffffffffffffffffff\n      and\n      eq\n        /* \"contracts/AbelStake.sol\":1009:1167  if (_account != address(0)) {... */\n      tag_125\n      jumpi\n        /* \"contracts/AbelStake.sol\":1071:1087  earned(_account) */\n      tag_126\n        /* \"contracts/AbelStake.sol\":1078:1086  _account */\n      dup2\n        /* \"contracts/AbelStake.sol\":1071:1077  earned */\n      tag_18\n        /* \"contracts/AbelStake.sol\":1071:1087  earned(_account) */\n      jump\t// in\n    tag_126:\n        /* \"contracts/AbelStake.sol\":1051:1058  rewards */\n      0x07\n        /* \"contracts/AbelStake.sol\":1051:1068  rewards[_account] */\n      0x00\n        /* \"contracts/AbelStake.sol\":1059:1067  _account */\n      dup4\n        /* \"contracts/AbelStake.sol\":1051:1068  rewards[_account] */\n      0xffffffffffffffffffffffffffffffffffffffff\n      and\n      0xffffffffffffffffffffffffffffffffffffffff\n      and\n      dup2\n      mstore\n      0x20\n      add\n      swap1\n      dup2\n      mstore\n      0x20\n      add\n      0x00\n      keccak256\n        /* \"contracts/AbelStake.sol\":1051:1087  rewards[_account] = earned(_account) */\n      dup2\n      swap1\n      sstore\n      pop\n        /* \"contracts/AbelStake.sol\":1136:1156  rewardPerTokenStored */\n      sload(0x05)\n        /* \"contracts/AbelStake.sol\":1101:1123  userRewardPerTokenPaid */\n      0x06\n        /* \"contracts/AbelStake.sol\":1101:1133  userRewardPerTokenPaid[_account] */\n      0x00\n        /* \"contracts/AbelStake.sol\":1124:1132  _account */\n      dup4\n        /* \"contracts/AbelStake.sol\":1101:1133  userRewardPerTokenPaid[_account] */\n      0xffffffffffffffffffffffffffffffffffffffff\n      and\n      0xffffffffffffffffffffffffffffffffffffffff\n      and\n      dup2\n      mstore\n      0x20\n      add\n      swap1\n      dup2\n      mstore\n      0x20\n      add\n      0x00\n      keccak256\n        /* \"contracts/AbelStake.sol\":1101:1156  userRewardPerTokenPaid[_account] = rewardPerTokenStored */\n      dup2\n      swap1\n      sstore\n      pop\n        /* \"contracts/AbelStake.sol\":1009:1167  if (_account != address(0)) {... */\n    tag_125:\n        /* \"contracts/AbelStake.sol\":1708:1709  0 */\n      0x00\n        /* \"contracts/AbelStake.sol\":1698:1705  _amount */\n      dup3\n        /* \"contracts/AbelStake.sol\":1698:1709  _amount > 0 */\n      gt\n        /* \"contracts/AbelStake.sol\":1690:1724  require(_amount > 0, \"amount = 0\") */\n      tag_128\n      jumpi\n      mload(0x40)\n      0x08c379a000000000000000000000000000000000000000000000000000000000\n      dup2\n      mstore\n      0x04\n      add\n      tag_129\n      swap1\n      tag_70\n      jump\t// in\n    tag_129:\n      mload(0x40)\n      dup1\n      swap2\n      sub\n      swap1\n      revert\n    tag_128:\n        /* \"contracts/AbelStake.sol\":1734:1746  stakingToken */\n      immutable(\"0xceebf77a833b30520287ddd9478ff51abbdffa30aa90a8d655dba0e8a79ce0c1\")\n        /* \"contracts/AbelStake.sol\":1734:1759  stakingToken.transferFrom */\n      0xffffffffffffffffffffffffffffffffffffffff\n      and\n      0x23b872dd\n        /* \"contracts/AbelStake.sol\":1760:1770  msg.sender */\n      caller\n        /* \"contracts/AbelStake.sol\":1780:1784  this */\n      address\n        /* \"contracts/AbelStake.sol\":1787:1794  _amount */\n      dup6\n        /* \"contracts/AbelStake.sol\":1734:1795  stakingToken.transferFrom(msg.sender, address(this), _amount) */\n      mload(0x40)\n      dup5\n      0xffffffff\n      and\n      0xe0\n      shl\n      dup2\n      mstore\n      0x04\n      add\n      tag_130\n      swap4\n      swap3\n      swap2\n      swap1\n      tag_131\n      jump\t// in\n    tag_130:\n      0x20\n      mload(0x40)\n      dup1\n      dup4\n      sub\n      dup2\n      0x00\n      dup8\n      gas\n      call\n      iszero\n      dup1\n      iszero\n      tag_133\n      jumpi\n      returndatasize\n      0x00\n      dup1\n      returndatacopy\n      revert(0x00, returndatasize)\n    tag_133:\n      pop\n      pop\n      pop\n      pop\n      mload(0x40)\n      returndatasize\n      not(0x1f)\n      0x1f\n      dup3\n      add\n      and\n      dup3\n      add\n      dup1\n      0x40\n      mstore\n      pop\n      dup2\n      add\n      swap1\n      tag_134\n      swap2\n      swap1\n      tag_78\n      jump\t// in\n    tag_134:\n      pop\n        /* \"contracts/AbelStake.sol\":1830:1837  _amount */\n      dup2\n        /* \"contracts/AbelStake.sol\":1805:1814  balanceOf */\n      0x09\n        /* \"contracts/AbelStake.sol\":1805:1826  balanceOf[msg.sender] */\n      0x00\n        /* \"contracts/AbelStake.sol\":1815:1825  msg.sender */\n      caller\n        /* \"contracts/AbelStake.sol\":1805:1826  balanceOf[msg.sender] */\n      0xffffffffffffffffffffffffffffffffffffffff\n      and\n      0xffffffffffffffffffffffffffffffffffffffff\n      and\n      dup2\n      mstore\n      0x20\n      add\n      swap1\n      dup2\n      mstore\n      0x20\n      add\n      0x00\n      keccak256\n      0x00\n        /* \"contracts/AbelStake.sol\":1805:1837  balanceOf[msg.sender] += _amount */\n      dup3\n      dup3\n      sload\n      tag_135\n      swap2\n      swap1\n      tag_61\n      jump\t// in\n    tag_135:\n      swap3\n      pop\n      pop\n      dup2\n      swap1\n      sstore\n      pop\n        /* \"contracts/AbelStake.sol\":1862:1869  _amount */\n      dup2\n        /* \"contracts/AbelStake.sol\":1847:1858  totalStaked */\n      0x08\n      0x00\n        /* \"contracts/AbelStake.sol\":1847:1869  totalStaked += _amount */\n      dup3\n      dup3\n      sload\n      tag_136\n      swap2\n      swap1\n      tag_61\n      jump\t// in\n    tag_136:\n      swap3\n      pop\n      pop\n      dup2\n      swap1\n      sstore\n      pop\n        /* \"contracts/AbelStake.sol\":1617:1876  function stake(uint _amount) external updateReward(msg.sender) {... */\n      pop\n      pop\n      jump\t// out\n        /* \"contracts/AbelStake.sol\":2607:2795  function setRewardsDuration(uint _duration) external {... */\n    tag_45:\n        /* \"contracts/AbelStake.sol\":2670:2681  onlyOwner() */\n      tag_138\n        /* \"contracts/AbelStake.sol\":2670:2679  onlyOwner */\n      tag_86\n        /* \"contracts/AbelStake.sol\":2670:2681  onlyOwner() */\n      jump\t// in\n    tag_138:\n        /* \"contracts/AbelStake.sol\":2710:2725  block.timestamp */\n      timestamp\n        /* \"contracts/AbelStake.sol\":2699:2707  finishAt */\n      sload(0x02)\n        /* \"contracts/AbelStake.sol\":2699:2725  finishAt < block.timestamp */\n      lt\n        /* \"contracts/AbelStake.sol\":2691:2758  require(finishAt < block.timestamp, \"reward duration not finished\") */\n      tag_139\n      jumpi\n      mload(0x40)\n      0x08c379a000000000000000000000000000000000000000000000000000000000\n      dup2\n      mstore\n      0x04\n      add\n      tag_140\n      swap1\n      tag_141\n      jump\t// in\n    tag_140:\n      mload(0x40)\n      dup1\n      swap2\n      sub\n      swap1\n      revert\n    tag_139:\n        /* \"contracts/AbelStake.sol\":2779:2788  _duration */\n      dup1\n        /* \"contracts/AbelStake.sol\":2768:2776  duration */\n      0x01\n        /* \"contracts/AbelStake.sol\":2768:2788  duration = _duration */\n      dup2\n      swap1\n      sstore\n      pop\n        /* \"contracts/AbelStake.sol\":2607:2795  function setRewardsDuration(uint _duration) external {... */\n      pop\n      jump\t// out\n        /* \"contracts/AbelStake.sol\":1315:1611  function rewardPerToken() public view returns (uint) {... */\n    tag_47:\n        /* \"contracts/AbelStake.sol\":1362:1366  uint */\n      0x00\n        /* \"contracts/AbelStake.sol\":1397:1398  0 */\n      dup1\n        /* \"contracts/AbelStake.sol\":1382:1393  totalStaked */\n      sload(0x08)\n        /* \"contracts/AbelStake.sol\":1382:1398  totalStaked == 0 */\n      sub\n        /* \"contracts/AbelStake.sol\":1378:1452  if (totalStaked == 0) {... */\n      tag_143\n      jumpi\n        /* \"contracts/AbelStake.sol\":1421:1441  rewardPerTokenStored */\n      sload(0x05)\n        /* \"contracts/AbelStake.sol\":1414:1441  return rewardPerTokenStored */\n      swap1\n      pop\n      jump(tag_142)\n        /* \"contracts/AbelStake.sol\":1378:1452  if (totalStaked == 0) {... */\n    tag_143:\n        /* \"contracts/AbelStake.sol\":1593:1604  totalStaked */\n      sload(0x08)\n        /* \"contracts/AbelStake.sol\":1573:1577  1e18 */\n      0x0de0b6b3a7640000\n        /* \"contracts/AbelStake.sol\":1560:1569  updatedAt */\n      sload(0x03)\n        /* \"contracts/AbelStake.sol\":1531:1557  lastTimeRewardApplicable() */\n      tag_144\n        /* \"contracts/AbelStake.sol\":1531:1555  lastTimeRewardApplicable */\n      tag_35\n        /* \"contracts/AbelStake.sol\":1531:1557  lastTimeRewardApplicable() */\n      jump\t// in\n    tag_144:\n        /* \"contracts/AbelStake.sol\":1531:1569  lastTimeRewardApplicable() - updatedAt */\n      tag_145\n      swap2\n      swap1\n      tag_55\n      jump\t// in\n    tag_145:\n        /* \"contracts/AbelStake.sol\":1517:1527  rewardRate */\n      sload(0x04)\n        /* \"contracts/AbelStake.sol\":1517:1570  rewardRate * (lastTimeRewardApplicable() - updatedAt) */\n      tag_146\n      swap2\n      swap1\n      tag_57\n      jump\t// in\n    tag_146:\n        /* \"contracts/AbelStake.sol\":1517:1577  rewardRate * (lastTimeRewardApplicable() - updatedAt) * 1e18 */\n      tag_147\n      swap2\n      swap1\n      tag_57\n      jump\t// in\n    tag_147:\n        /* \"contracts/AbelStake.sol\":1516:1604  (rewardRate * (lastTimeRewardApplicable() - updatedAt) * 1e18) /... */\n      tag_148\n      swap2\n      swap1\n      tag_59\n      jump\t// in\n    tag_148:\n        /* \"contracts/AbelStake.sol\":1481:1501  rewardPerTokenStored */\n      sload(0x05)\n        /* \"contracts/AbelStake.sol\":1481:1604  rewardPerTokenStored +... */\n      tag_149\n      swap2\n      swap1\n      tag_61\n      jump\t// in\n    tag_149:\n        /* \"contracts/AbelStake.sol\":1462:1604  return... */\n      swap1\n      pop\n        /* \"contracts/AbelStake.sol\":1315:1611  function rewardPerToken() public view returns (uint) {... */\n    tag_142:\n      swap1\n      jump\t// out\n        /* \"contracts/AbelStake.sol\":150:186  IERC20 public immutable rewardsToken */\n    tag_50:\n      immutable(\"0xe4b1702d9298fee62dfeccc57d322a463ad55ca201256d01f62b45b2e1c21c10\")\n      dup2\n      jump\t// out\n        /* \"contracts/AbelStake.sol\":758:855  function onlyOwner() private view {... */\n    tag_86:\n        /* \"contracts/AbelStake.sol\":824:829  owner */\n      0x00\n      dup1\n      sload\n      swap1\n      0x0100\n      exp\n      swap1\n      div\n      0xffffffffffffffffffffffffffffffffffffffff\n      and\n        /* \"contracts/AbelStake.sol\":810:829  msg.sender == owner */\n      0xffffffffffffffffffffffffffffffffffffffff\n      and\n        /* \"contracts/AbelStake.sol\":810:820  msg.sender */\n      caller\n        /* \"contracts/AbelStake.sol\":810:829  msg.sender == owner */\n      0xffffffffffffffffffffffffffffffffffffffff\n      and\n      eq\n        /* \"contracts/AbelStake.sol\":802:848  require(msg.sender == owner, \"not authorized\") */\n      tag_151\n      jumpi\n      mload(0x40)\n      0x08c379a000000000000000000000000000000000000000000000000000000000\n      dup2\n      mstore\n      0x04\n      add\n      tag_152\n      swap1\n      tag_153\n      jump\t// in\n    tag_152:\n      mload(0x40)\n      dup1\n      swap2\n      sub\n      swap1\n      revert\n    tag_151:\n        /* \"contracts/AbelStake.sol\":758:855  function onlyOwner() private view {... */\n      jump\t// out\n        /* \"contracts/AbelStake.sol\":3465:3561  function _min(uint x, uint y) private pure returns (uint) {... */\n    tag_121:\n        /* \"contracts/AbelStake.sol\":3517:3521  uint */\n      0x00\n        /* \"contracts/AbelStake.sol\":3545:3546  y */\n      dup2\n        /* \"contracts/AbelStake.sol\":3540:3541  x */\n      dup4\n        /* \"contracts/AbelStake.sol\":3540:3546  x <= y */\n      gt\n      iszero\n        /* \"contracts/AbelStake.sol\":3540:3554  x <= y ? x : y */\n      tag_155\n      jumpi\n        /* \"contracts/AbelStake.sol\":3553:3554  y */\n      dup2\n        /* \"contracts/AbelStake.sol\":3540:3554  x <= y ? x : y */\n      jump(tag_156)\n    tag_155:\n        /* \"contracts/AbelStake.sol\":3549:3550  x */\n      dup3\n        /* \"contracts/AbelStake.sol\":3540:3554  x <= y ? x : y */\n    tag_156:\n        /* \"contracts/AbelStake.sol\":3533:3554  return x <= y ? x : y */\n      swap1\n      pop\n        /* \"contracts/AbelStake.sol\":3465:3561  function _min(uint x, uint y) private pure returns (uint) {... */\n      swap3\n      swap2\n      pop\n      pop\n      jump\t// out\n        /* \"#utility.yul\":88:205   */\n    tag_158:\n        /* \"#utility.yul\":197:198   */\n      0x00\n        /* \"#utility.yul\":194:195   */\n      dup1\n        /* \"#utility.yul\":187:199   */\n      revert\n        /* \"#utility.yul\":334:460   */\n    tag_160:\n        /* \"#utility.yul\":371:378   */\n      0x00\n        /* \"#utility.yul\":411:453   */\n      0xffffffffffffffffffffffffffffffffffffffff\n        /* \"#utility.yul\":404:409   */\n      dup3\n        /* \"#utility.yul\":400:454   */\n      and\n        /* \"#utility.yul\":389:454   */\n      swap1\n      pop\n        /* \"#utility.yul\":334:460   */\n      swap2\n      swap1\n      pop\n      jump\t// out\n        /* \"#utility.yul\":466:562   */\n    tag_161:\n        /* \"#utility.yul\":503:510   */\n      0x00\n        /* \"#utility.yul\":532:556   */\n      tag_197\n        /* \"#utility.yul\":550:555   */\n      dup3\n        /* \"#utility.yul\":532:556   */\n      tag_160\n      jump\t// in\n    tag_197:\n        /* \"#utility.yul\":521:556   */\n      swap1\n      pop\n        /* \"#utility.yul\":466:562   */\n      swap2\n      swap1\n      pop\n      jump\t// out\n        /* \"#utility.yul\":568:690   */\n    tag_162:\n        /* \"#utility.yul\":641:665   */\n      tag_199\n        /* \"#utility.yul\":659:664   */\n      dup2\n        /* \"#utility.yul\":641:665   */\n      tag_161\n      jump\t// in\n    tag_199:\n        /* \"#utility.yul\":634:639   */\n      dup2\n        /* \"#utility.yul\":631:666   */\n      eq\n        /* \"#utility.yul\":621:684   */\n      tag_200\n      jumpi\n        /* \"#utility.yul\":680:681   */\n      0x00\n        /* \"#utility.yul\":677:678   */\n      dup1\n        /* \"#utility.yul\":670:682   */\n      revert\n        /* \"#utility.yul\":621:684   */\n    tag_200:\n        /* \"#utility.yul\":568:690   */\n      pop\n      jump\t// out\n        /* \"#utility.yul\":696:835   */\n    tag_163:\n        /* \"#utility.yul\":742:747   */\n      0x00\n        /* \"#utility.yul\":780:786   */\n      dup2\n        /* \"#utility.yul\":767:787   */\n      calldataload\n        /* \"#utility.yul\":758:787   */\n      swap1\n      pop\n        /* \"#utility.yul\":796:829   */\n      tag_202\n        /* \"#utility.yul\":823:828   */\n      dup2\n        /* \"#utility.yul\":796:829   */\n      tag_162\n      jump\t// in\n    tag_202:\n        /* \"#utility.yul\":696:835   */\n      swap3\n      swap2\n      pop\n      pop\n      jump\t// out\n        /* \"#utility.yul\":841:1170   */\n    tag_17:\n        /* \"#utility.yul\":900:906   */\n      0x00\n        /* \"#utility.yul\":949:951   */\n      0x20\n        /* \"#utility.yul\":937:946   */\n      dup3\n        /* \"#utility.yul\":928:935   */\n      dup5\n        /* \"#utility.yul\":924:947   */\n      sub\n        /* \"#utility.yul\":920:952   */\n      slt\n        /* \"#utility.yul\":917:1036   */\n      iszero\n      tag_204\n      jumpi\n        /* \"#utility.yul\":955:1034   */\n      tag_205\n      tag_158\n      jump\t// in\n    tag_205:\n        /* \"#utility.yul\":917:1036   */\n    tag_204:\n        /* \"#utility.yul\":1075:1076   */\n      0x00\n        /* \"#utility.yul\":1100:1153   */\n      tag_206\n        /* \"#utility.yul\":1145:1152   */\n      dup5\n        /* \"#utility.yul\":1136:1142   */\n      dup3\n        /* \"#utility.yul\":1125:1134   */\n      dup6\n        /* \"#utility.yul\":1121:1143   */\n      add\n        /* \"#utility.yul\":1100:1153   */\n      tag_163\n      jump\t// in\n    tag_206:\n        /* \"#utility.yul\":1090:1153   */\n      swap2\n      pop\n        /* \"#utility.yul\":1046:1163   */\n      pop\n        /* \"#utility.yul\":841:1170   */\n      swap3\n      swap2\n      pop\n      pop\n      jump\t// out\n        /* \"#utility.yul\":1176:1253   */\n    tag_164:\n        /* \"#utility.yul\":1213:1220   */\n      0x00\n        /* \"#utility.yul\":1242:1247   */\n      dup2\n        /* \"#utility.yul\":1231:1247   */\n      swap1\n      pop\n        /* \"#utility.yul\":1176:1253   */\n      swap2\n      swap1\n      pop\n      jump\t// out\n        /* \"#utility.yul\":1259:1377   */\n    tag_165:\n        /* \"#utility.yul\":1346:1370   */\n      tag_209\n        /* \"#utility.yul\":1364:1369   */\n      dup2\n        /* \"#utility.yul\":1346:1370   */\n      tag_164\n      jump\t// in\n    tag_209:\n        /* \"#utility.yul\":1341:1344   */\n      dup3\n        /* \"#utility.yul\":1334:1371   */\n      mstore\n        /* \"#utility.yul\":1259:1377   */\n      pop\n      pop\n      jump\t// out\n        /* \"#utility.yul\":1383:1605   */\n    tag_20:\n        /* \"#utility.yul\":1476:1480   */\n      0x00\n        /* \"#utility.yul\":1514:1516   */\n      0x20\n        /* \"#utility.yul\":1503:1512   */\n      dup3\n        /* \"#utility.yul\":1499:1517   */\n      add\n        /* \"#utility.yul\":1491:1517   */\n      swap1\n      pop\n        /* \"#utility.yul\":1527:1598   */\n      tag_211\n        /* \"#utility.yul\":1595:1596   */\n      0x00\n        /* \"#utility.yul\":1584:1593   */\n      dup4\n        /* \"#utility.yul\":1580:1597   */\n      add\n        /* \"#utility.yul\":1571:1577   */\n      dup5\n        /* \"#utility.yul\":1527:1598   */\n      tag_165\n      jump\t// in\n    tag_211:\n        /* \"#utility.yul\":1383:1605   */\n      swap3\n      swap2\n      pop\n      pop\n      jump\t// out\n        /* \"#utility.yul\":1611:1733   */\n    tag_166:\n        /* \"#utility.yul\":1684:1708   */\n      tag_213\n        /* \"#utility.yul\":1702:1707   */\n      dup2\n        /* \"#utility.yul\":1684:1708   */\n      tag_164\n      jump\t// in\n    tag_213:\n        /* \"#utility.yul\":1677:1682   */\n      dup2\n        /* \"#utility.yul\":1674:1709   */\n      eq\n        /* \"#utility.yul\":1664:1727   */\n      tag_214\n      jumpi\n        /* \"#utility.yul\":1723:1724   */\n      0x00\n        /* \"#utility.yul\":1720:1721   */\n      dup1\n        /* \"#utility.yul\":1713:1725   */\n      revert\n        /* \"#utility.yul\":1664:1727   */\n    tag_214:\n        /* \"#utility.yul\":1611:1733   */\n      pop\n      jump\t// out\n        /* \"#utility.yul\":1739:1878   */\n    tag_167:\n        /* \"#utility.yul\":1785:1790   */\n      0x00\n        /* \"#utility.yul\":1823:1829   */\n      dup2\n        /* \"#utility.yul\":1810:1830   */\n      calldataload\n        /* \"#utility.yul\":1801:1830   */\n      swap1\n      pop\n        /* \"#utility.yul\":1839:1872   */\n      tag_216\n        /* \"#utility.yul\":1866:1871   */\n      dup2\n        /* \"#utility.yul\":1839:1872   */\n      tag_166\n      jump\t// in\n    tag_216:\n        /* \"#utility.yul\":1739:1878   */\n      swap3\n      swap2\n      pop\n      pop\n      jump\t// out\n        /* \"#utility.yul\":1884:2213   */\n    tag_23:\n        /* \"#utility.yul\":1943:1949   */\n      0x00\n        /* \"#utility.yul\":1992:1994   */\n      0x20\n        /* \"#utility.yul\":1980:1989   */\n      dup3\n        /* \"#utility.yul\":1971:1978   */\n      dup5\n        /* \"#utility.yul\":1967:1990   */\n      sub\n        /* \"#utility.yul\":1963:1995   */\n      slt\n        /* \"#utility.yul\":1960:2079   */\n      iszero\n      tag_218\n      jumpi\n        /* \"#utility.yul\":1998:2077   */\n      tag_219\n      tag_158\n      jump\t// in\n    tag_219:\n        /* \"#utility.yul\":1960:2079   */\n    tag_218:\n        /* \"#utility.yul\":2118:2119   */\n      0x00\n        /* \"#utility.yul\":2143:2196   */\n      tag_220\n        /* \"#utility.yul\":2188:2195   */\n      dup5\n        /* \"#utility.yul\":2179:2185   */\n      dup3\n        /* \"#utility.yul\":2168:2177   */\n      dup6\n        /* \"#utility.yul\":2164:2186   */\n      add\n        /* \"#utility.yul\":2143:2196   */\n      tag_167\n      jump\t// in\n    tag_220:\n        /* \"#utility.yul\":2133:2196   */\n      swap2\n      pop\n        /* \"#utility.yul\":2089:2206   */\n      pop\n        /* \"#utility.yul\":1884:2213   */\n      swap3\n      swap2\n      pop\n      pop\n      jump\t// out\n        /* \"#utility.yul\":2219:2279   */\n    tag_168:\n        /* \"#utility.yul\":2247:2250   */\n      0x00\n        /* \"#utility.yul\":2268:2273   */\n      dup2\n        /* \"#utility.yul\":2261:2273   */\n      swap1\n      pop\n        /* \"#utility.yul\":2219:2279   */\n      swap2\n      swap1\n      pop\n      jump\t// out\n        /* \"#utility.yul\":2285:2427   */\n    tag_169:\n        /* \"#utility.yul\":2335:2344   */\n      0x00\n        /* \"#utility.yul\":2368:2421   */\n      tag_223\n        /* \"#utility.yul\":2386:2420   */\n      tag_224\n        /* \"#utility.yul\":2395:2419   */\n      tag_225\n        /* \"#utility.yul\":2413:2418   */\n      dup5\n        /* \"#utility.yul\":2395:2419   */\n      tag_160\n      jump\t// in\n    tag_225:\n        /* \"#utility.yul\":2386:2420   */\n      tag_168\n      jump\t// in\n    tag_224:\n        /* \"#utility.yul\":2368:2421   */\n      tag_160\n      jump\t// in\n    tag_223:\n        /* \"#utility.yul\":2355:2421   */\n      swap1\n      pop\n        /* \"#utility.yul\":2285:2427   */\n      swap2\n      swap1\n      pop\n      jump\t// out\n        /* \"#utility.yul\":2433:2559   */\n    tag_170:\n        /* \"#utility.yul\":2483:2492   */\n      0x00\n        /* \"#utility.yul\":2516:2553   */\n      tag_227\n        /* \"#utility.yul\":2547:2552   */\n      dup3\n        /* \"#utility.yul\":2516:2553   */\n      tag_169\n      jump\t// in\n    tag_227:\n        /* \"#utility.yul\":2503:2553   */\n      swap1\n      pop\n        /* \"#utility.yul\":2433:2559   */\n      swap2\n      swap1\n      pop\n      jump\t// out\n        /* \"#utility.yul\":2565:2705   */\n    tag_171:\n        /* \"#utility.yul\":2629:2638   */\n      0x00\n        /* \"#utility.yul\":2662:2699   */\n      tag_229\n        /* \"#utility.yul\":2693:2698   */\n      dup3\n        /* \"#utility.yul\":2662:2699   */\n      tag_170\n      jump\t// in\n    tag_229:\n        /* \"#utility.yul\":2649:2699   */\n      swap1\n      pop\n        /* \"#utility.yul\":2565:2705   */\n      swap2\n      swap1\n      pop\n      jump\t// out\n        /* \"#utility.yul\":2711:2870   */\n    tag_172:\n        /* \"#utility.yul\":2812:2863   */\n      tag_231\n        /* \"#utility.yul\":2857:2862   */\n      dup2\n        /* \"#utility.yul\":2812:2863   */\n      tag_171\n      jump\t// in\n    tag_231:\n        /* \"#utility.yul\":2807:2810   */\n      dup3\n        /* \"#utility.yul\":2800:2864   */\n      mstore\n        /* \"#utility.yul\":2711:2870   */\n      pop\n      pop\n      jump\t// out\n        /* \"#utility.yul\":2876:3126   */\n    tag_33:\n        /* \"#utility.yul\":2983:2987   */\n      0x00\n        /* \"#utility.yul\":3021:3023   */\n      0x20\n        /* \"#utility.yul\":3010:3019   */\n      dup3\n        /* \"#utility.yul\":3006:3024   */\n      add\n        /* \"#utility.yul\":2998:3024   */\n      swap1\n      pop\n        /* \"#utility.yul\":3034:3119   */\n      tag_233\n        /* \"#utility.yul\":3116:3117   */\n      0x00\n        /* \"#utility.yul\":3105:3114   */\n      dup4\n        /* \"#utility.yul\":3101:3118   */\n      add\n        /* \"#utility.yul\":3092:3098   */\n      dup5\n        /* \"#utility.yul\":3034:3119   */\n      tag_172\n      jump\t// in\n    tag_233:\n        /* \"#utility.yul\":2876:3126   */\n      swap3\n      swap2\n      pop\n      pop\n      jump\t// out\n        /* \"#utility.yul\":3132:3312   */\n    tag_173:\n        /* \"#utility.yul\":3180:3257   */\n      0x4e487b7100000000000000000000000000000000000000000000000000000000\n        /* \"#utility.yul\":3177:3178   */\n      0x00\n        /* \"#utility.yul\":3170:3258   */\n      mstore\n        /* \"#utility.yul\":3277:3281   */\n      0x11\n        /* \"#utility.yul\":3274:3275   */\n      0x04\n        /* \"#utility.yul\":3267:3282   */\n      mstore\n        /* \"#utility.yul\":3301:3305   */\n      0x24\n        /* \"#utility.yul\":3298:3299   */\n      0x00\n        /* \"#utility.yul\":3291:3306   */\n      revert\n        /* \"#utility.yul\":3318:3512   */\n    tag_55:\n        /* \"#utility.yul\":3358:3362   */\n      0x00\n        /* \"#utility.yul\":3378:3398   */\n      tag_236\n        /* \"#utility.yul\":3396:3397   */\n      dup3\n        /* \"#utility.yul\":3378:3398   */\n      tag_164\n      jump\t// in\n    tag_236:\n        /* \"#utility.yul\":3373:3398   */\n      swap2\n      pop\n        /* \"#utility.yul\":3412:3432   */\n      tag_237\n        /* \"#utility.yul\":3430:3431   */\n      dup4\n        /* \"#utility.yul\":3412:3432   */\n      tag_164\n      jump\t// in\n    tag_237:\n        /* \"#utility.yul\":3407:3432   */\n      swap3\n      pop\n        /* \"#utility.yul\":3456:3457   */\n      dup3\n        /* \"#utility.yul\":3453:3454   */\n      dup3\n        /* \"#utility.yul\":3449:3458   */\n      sub\n        /* \"#utility.yul\":3441:3458   */\n      swap1\n      pop\n        /* \"#utility.yul\":3480:3481   */\n      dup2\n        /* \"#utility.yul\":3474:3478   */\n      dup2\n        /* \"#utility.yul\":3471:3482   */\n      gt\n        /* \"#utility.yul\":3468:3505   */\n      iszero\n      tag_238\n      jumpi\n        /* \"#utility.yul\":3485:3503   */\n      tag_239\n      tag_173\n      jump\t// in\n    tag_239:\n        /* \"#utility.yul\":3468:3505   */\n    tag_238:\n        /* \"#utility.yul\":3318:3512   */\n      swap3\n      swap2\n      pop\n      pop\n      jump\t// out\n        /* \"#utility.yul\":3518:3928   */\n    tag_57:\n        /* \"#utility.yul\":3558:3565   */\n      0x00\n        /* \"#utility.yul\":3581:3601   */\n      tag_241\n        /* \"#utility.yul\":3599:3600   */\n      dup3\n        /* \"#utility.yul\":3581:3601   */\n      tag_164\n      jump\t// in\n    tag_241:\n        /* \"#utility.yul\":3576:3601   */\n      swap2\n      pop\n        /* \"#utility.yul\":3615:3635   */\n      tag_242\n        /* \"#utility.yul\":3633:3634   */\n      dup4\n        /* \"#utility.yul\":3615:3635   */\n      tag_164\n      jump\t// in\n    tag_242:\n        /* \"#utility.yul\":3610:3635   */\n      swap3\n      pop\n        /* \"#utility.yul\":3670:3671   */\n      dup3\n        /* \"#utility.yul\":3667:3668   */\n      dup3\n        /* \"#utility.yul\":3663:3672   */\n      mul\n        /* \"#utility.yul\":3692:3722   */\n      tag_243\n        /* \"#utility.yul\":3710:3721   */\n      dup2\n        /* \"#utility.yul\":3692:3722   */\n      tag_164\n      jump\t// in\n    tag_243:\n        /* \"#utility.yul\":3681:3722   */\n      swap2\n      pop\n        /* \"#utility.yul\":3871:3872   */\n      dup3\n        /* \"#utility.yul\":3862:3869   */\n      dup3\n        /* \"#utility.yul\":3858:3873   */\n      div\n        /* \"#utility.yul\":3855:3856   */\n      dup5\n        /* \"#utility.yul\":3852:3874   */\n      eq\n        /* \"#utility.yul\":3832:3833   */\n      dup4\n        /* \"#utility.yul\":3825:3834   */\n      iszero\n        /* \"#utility.yul\":3805:3888   */\n      or\n        /* \"#utility.yul\":3782:3921   */\n      tag_244\n      jumpi\n        /* \"#utility.yul\":3901:3919   */\n      tag_245\n      tag_173\n      jump\t// in\n    tag_245:\n        /* \"#utility.yul\":3782:3921   */\n    tag_244:\n        /* \"#utility.yul\":3566:3928   */\n      pop\n        /* \"#utility.yul\":3518:3928   */\n      swap3\n      swap2\n      pop\n      pop\n      jump\t// out\n        /* \"#utility.yul\":3934:4114   */\n    tag_174:\n        /* \"#utility.yul\":3982:4059   */\n      0x4e487b7100000000000000000000000000000000000000000000000000000000\n        /* \"#utility.yul\":3979:3980   */\n      0x00\n        /* \"#utility.yul\":3972:4060   */\n      mstore\n        /* \"#utility.yul\":4079:4083   */\n      0x12\n        /* \"#utility.yul\":4076:4077   */\n      0x04\n        /* \"#utility.yul\":4069:4084   */\n      mstore\n        /* \"#utility.yul\":4103:4107   */\n      0x24\n        /* \"#utility.yul\":4100:4101   */\n      0x00\n        /* \"#utility.yul\":4093:4108   */\n      revert\n        /* \"#utility.yul\":4120:4305   */\n    tag_59:\n        /* \"#utility.yul\":4160:4161   */\n      0x00\n        /* \"#utility.yul\":4177:4197   */\n      tag_248\n        /* \"#utility.yul\":4195:4196   */\n      dup3\n        /* \"#utility.yul\":4177:4197   */\n      tag_164\n      jump\t// in\n    tag_248:\n        /* \"#utility.yul\":4172:4197   */\n      swap2\n      pop\n        /* \"#utility.yul\":4211:4231   */\n      tag_249\n        /* \"#utility.yul\":4229:4230   */\n      dup4\n        /* \"#utility.yul\":4211:4231   */\n      tag_164\n      jump\t// in\n    tag_249:\n        /* \"#utility.yul\":4206:4231   */\n      swap3\n      pop\n        /* \"#utility.yul\":4250:4251   */\n      dup3\n        /* \"#utility.yul\":4240:4275   */\n      tag_250\n      jumpi\n        /* \"#utility.yul\":4255:4273   */\n      tag_251\n      tag_174\n      jump\t// in\n    tag_251:\n        /* \"#utility.yul\":4240:4275   */\n    tag_250:\n        /* \"#utility.yul\":4297:4298   */\n      dup3\n        /* \"#utility.yul\":4294:4295   */\n      dup3\n        /* \"#utility.yul\":4290:4299   */\n      div\n        /* \"#utility.yul\":4285:4299   */\n      swap1\n      pop\n        /* \"#utility.yul\":4120:4305   */\n      swap3\n      swap2\n      pop\n      pop\n      jump\t// out\n        /* \"#utility.yul\":4311:4502   */\n    tag_61:\n        /* \"#utility.yul\":4351:4354   */\n      0x00\n        /* \"#utility.yul\":4370:4390   */\n      tag_253\n        /* \"#utility.yul\":4388:4389   */\n      dup3\n        /* \"#utility.yul\":4370:4390   */\n      tag_164\n      jump\t// in\n    tag_253:\n        /* \"#utility.yul\":4365:4390   */\n      swap2\n      pop\n        /* \"#utility.yul\":4404:4424   */\n      tag_254\n        /* \"#utility.yul\":4422:4423   */\n      dup4\n        /* \"#utility.yul\":4404:4424   */\n      tag_164\n      jump\t// in\n    tag_254:\n        /* \"#utility.yul\":4399:4424   */\n      swap3\n      pop\n        /* \"#utility.yul\":4447:4448   */\n      dup3\n        /* \"#utility.yul\":4444:4445   */\n      dup3\n        /* \"#utility.yul\":4440:4449   */\n      add\n        /* \"#utility.yul\":4433:4449   */\n      swap1\n      pop\n        /* \"#utility.yul\":4468:4471   */\n      dup1\n        /* \"#utility.yul\":4465:4466   */\n      dup3\n        /* \"#utility.yul\":4462:4472   */\n      gt\n        /* \"#utility.yul\":4459:4495   */\n      iszero\n      tag_255\n      jumpi\n        /* \"#utility.yul\":4475:4493   */\n      tag_256\n      tag_173\n      jump\t// in\n    tag_256:\n        /* \"#utility.yul\":4459:4495   */\n    tag_255:\n        /* \"#utility.yul\":4311:4502   */\n      swap3\n      swap2\n      pop\n      pop\n      jump\t// out\n        /* \"#utility.yul\":4508:4677   */\n    tag_175:\n        /* \"#utility.yul\":4592:4603   */\n      0x00\n        /* \"#utility.yul\":4626:4632   */\n      dup3\n        /* \"#utility.yul\":4621:4624   */\n      dup3\n        /* \"#utility.yul\":4614:4633   */\n      mstore\n        /* \"#utility.yul\":4666:4670   */\n      0x20\n        /* \"#utility.yul\":4661:4664   */\n      dup3\n        /* \"#utility.yul\":4657:4671   */\n      add\n        /* \"#utility.yul\":4642:4671   */\n      swap1\n      pop\n        /* \"#utility.yul\":4508:4677   */\n      swap3\n      swap2\n      pop\n      pop\n      jump\t// out\n        /* \"#utility.yul\":4683:4843   */\n    tag_176:\n        /* \"#utility.yul\":4823:4835   */\n      0x616d6f756e74203d203000000000000000000000000000000000000000000000\n        /* \"#utility.yul\":4819:4820   */\n      0x00\n        /* \"#utility.yul\":4811:4817   */\n      dup3\n        /* \"#utility.yul\":4807:4821   */\n      add\n        /* \"#utility.yul\":4800:4836   */\n      mstore\n        /* \"#utility.yul\":4683:4843   */\n      pop\n      jump\t// out\n        /* \"#utility.yul\":4849:5215   */\n    tag_177:\n        /* \"#utility.yul\":4991:4994   */\n      0x00\n        /* \"#utility.yul\":5012:5079   */\n      tag_260\n        /* \"#utility.yul\":5076:5078   */\n      0x0a\n        /* \"#utility.yul\":5071:5074   */\n      dup4\n        /* \"#utility.yul\":5012:5079   */\n      tag_175\n      jump\t// in\n    tag_260:\n        /* \"#utility.yul\":5005:5079   */\n      swap2\n      pop\n        /* \"#utility.yul\":5088:5181   */\n      tag_261\n        /* \"#utility.yul\":5177:5180   */\n      dup3\n        /* \"#utility.yul\":5088:5181   */\n      tag_176\n      jump\t// in\n    tag_261:\n        /* \"#utility.yul\":5206:5208   */\n      0x20\n        /* \"#utility.yul\":5201:5204   */\n      dup3\n        /* \"#utility.yul\":5197:5209   */\n      add\n        /* \"#utility.yul\":5190:5209   */\n      swap1\n      pop\n        /* \"#utility.yul\":4849:5215   */\n      swap2\n      swap1\n      pop\n      jump\t// out\n        /* \"#utility.yul\":5221:5640   */\n    tag_70:\n        /* \"#utility.yul\":5387:5391   */\n      0x00\n        /* \"#utility.yul\":5425:5427   */\n      0x20\n        /* \"#utility.yul\":5414:5423   */\n      dup3\n        /* \"#utility.yul\":5410:5428   */\n      add\n        /* \"#utility.yul\":5402:5428   */\n      swap1\n      pop\n        /* \"#utility.yul\":5474:5483   */\n      dup2\n        /* \"#utility.yul\":5468:5472   */\n      dup2\n        /* \"#utility.yul\":5464:5484   */\n      sub\n        /* \"#utility.yul\":5460:5461   */\n      0x00\n        /* \"#utility.yul\":5449:5458   */\n      dup4\n        /* \"#utility.yul\":5445:5462   */\n      add\n        /* \"#utility.yul\":5438:5485   */\n      mstore\n        /* \"#utility.yul\":5502:5633   */\n      tag_263\n        /* \"#utility.yul\":5628:5632   */\n      dup2\n        /* \"#utility.yul\":5502:5633   */\n      tag_177\n      jump\t// in\n    tag_263:\n        /* \"#utility.yul\":5494:5633   */\n      swap1\n      pop\n        /* \"#utility.yul\":5221:5640   */\n      swap2\n      swap1\n      pop\n      jump\t// out\n        /* \"#utility.yul\":5646:5764   */\n    tag_178:\n        /* \"#utility.yul\":5733:5757   */\n      tag_265\n        /* \"#utility.yul\":5751:5756   */\n      dup2\n        /* \"#utility.yul\":5733:5757   */\n      tag_161\n      jump\t// in\n    tag_265:\n        /* \"#utility.yul\":5728:5731   */\n      dup3\n        /* \"#utility.yul\":5721:5758   */\n      mstore\n        /* \"#utility.yul\":5646:5764   */\n      pop\n      pop\n      jump\t// out\n        /* \"#utility.yul\":5770:6102   */\n    tag_74:\n        /* \"#utility.yul\":5891:5895   */\n      0x00\n        /* \"#utility.yul\":5929:5931   */\n      0x40\n        /* \"#utility.yul\":5918:5927   */\n      dup3\n        /* \"#utility.yul\":5914:5932   */\n      add\n        /* \"#utility.yul\":5906:5932   */\n      swap1\n      pop\n        /* \"#utility.yul\":5942:6013   */\n      tag_267\n        /* \"#utility.yul\":6010:6011   */\n      0x00\n        /* \"#utility.yul\":5999:6008   */\n      dup4\n        /* \"#utility.yul\":5995:6012   */\n      add\n        /* \"#utility.yul\":5986:5992   */\n      dup6\n        /* \"#utility.yul\":5942:6013   */\n      tag_178\n      jump\t// in\n    tag_267:\n        /* \"#utility.yul\":6023:6095   */\n      tag_268\n        /* \"#utility.yul\":6091:6093   */\n      0x20\n        /* \"#utility.yul\":6080:6089   */\n      dup4\n        /* \"#utility.yul\":6076:6094   */\n      add\n        /* \"#utility.yul\":6067:6073   */\n      dup5\n        /* \"#utility.yul\":6023:6095   */\n      tag_165\n      jump\t// in\n    tag_268:\n        /* \"#utility.yul\":5770:6102   */\n      swap4\n      swap3\n      pop\n      pop\n      pop\n      jump\t// out\n        /* \"#utility.yul\":6108:6198   */\n    tag_179:\n        /* \"#utility.yul\":6142:6149   */\n      0x00\n        /* \"#utility.yul\":6185:6190   */\n      dup2\n        /* \"#utility.yul\":6178:6191   */\n      iszero\n        /* \"#utility.yul\":6171:6192   */\n      iszero\n        /* \"#utility.yul\":6160:6192   */\n      swap1\n      pop\n        /* \"#utility.yul\":6108:6198   */\n      swap2\n      swap1\n      pop\n      jump\t// out\n        /* \"#utility.yul\":6204:6320   */\n    tag_180:\n        /* \"#utility.yul\":6274:6295   */\n      tag_271\n        /* \"#utility.yul\":6289:6294   */\n      dup2\n        /* \"#utility.yul\":6274:6295   */\n      tag_179\n      jump\t// in\n    tag_271:\n        /* \"#utility.yul\":6267:6272   */\n      dup2\n        /* \"#utility.yul\":6264:6296   */\n      eq\n        /* \"#utility.yul\":6254:6314   */\n      tag_272\n      jumpi\n        /* \"#utility.yul\":6310:6311   */\n      0x00\n        /* \"#utility.yul\":6307:6308   */\n      dup1\n        /* \"#utility.yul\":6300:6312   */\n      revert\n        /* \"#utility.yul\":6254:6314   */\n    tag_272:\n        /* \"#utility.yul\":6204:6320   */\n      pop\n      jump\t// out\n        /* \"#utility.yul\":6326:6463   */\n    tag_181:\n        /* \"#utility.yul\":6380:6385   */\n      0x00\n        /* \"#utility.yul\":6411:6417   */\n      dup2\n        /* \"#utility.yul\":6405:6418   */\n      mload\n        /* \"#utility.yul\":6396:6418   */\n      swap1\n      pop\n        /* \"#utility.yul\":6427:6457   */\n      tag_274\n        /* \"#utility.yul\":6451:6456   */\n      dup2\n        /* \"#utility.yul\":6427:6457   */\n      tag_180\n      jump\t// in\n    tag_274:\n        /* \"#utility.yul\":6326:6463   */\n      swap3\n      swap2\n      pop\n      pop\n      jump\t// out\n        /* \"#utility.yul\":6469:6814   */\n    tag_78:\n        /* \"#utility.yul\":6536:6542   */\n      0x00\n        /* \"#utility.yul\":6585:6587   */\n      0x20\n        /* \"#utility.yul\":6573:6582   */\n      dup3\n        /* \"#utility.yul\":6564:6571   */\n      dup5\n        /* \"#utility.yul\":6560:6583   */\n      sub\n        /* \"#utility.yul\":6556:6588   */\n      slt\n        /* \"#utility.yul\":6553:6672   */\n      iszero\n      tag_276\n      jumpi\n        /* \"#utility.yul\":6591:6670   */\n      tag_277\n      tag_158\n      jump\t// in\n    tag_277:\n        /* \"#utility.yul\":6553:6672   */\n    tag_276:\n        /* \"#utility.yul\":6711:6712   */\n      0x00\n        /* \"#utility.yul\":6736:6797   */\n      tag_278\n        /* \"#utility.yul\":6789:6796   */\n      dup5\n        /* \"#utility.yul\":6780:6786   */\n      dup3\n        /* \"#utility.yul\":6769:6778   */\n      dup6\n        /* \"#utility.yul\":6765:6787   */\n      add\n        /* \"#utility.yul\":6736:6797   */\n      tag_181\n      jump\t// in\n    tag_278:\n        /* \"#utility.yul\":6726:6797   */\n      swap2\n      pop\n        /* \"#utility.yul\":6682:6807   */\n      pop\n        /* \"#utility.yul\":6469:6814   */\n      swap3\n      swap2\n      pop\n      pop\n      jump\t// out\n        /* \"#utility.yul\":6820:6985   */\n    tag_182:\n        /* \"#utility.yul\":6960:6977   */\n      0x7265776172642072617465203d20300000000000000000000000000000000000\n        /* \"#utility.yul\":6956:6957   */\n      0x00\n        /* \"#utility.yul\":6948:6954   */\n      dup3\n        /* \"#utility.yul\":6944:6958   */\n      add\n        /* \"#utility.yul\":6937:6978   */\n      mstore\n        /* \"#utility.yul\":6820:6985   */\n      pop\n      jump\t// out\n        /* \"#utility.yul\":6991:7357   */\n    tag_183:\n        /* \"#utility.yul\":7133:7136   */\n      0x00\n        /* \"#utility.yul\":7154:7221   */\n      tag_281\n        /* \"#utility.yul\":7218:7220   */\n      0x0f\n        /* \"#utility.yul\":7213:7216   */\n      dup4\n        /* \"#utility.yul\":7154:7221   */\n      tag_175\n      jump\t// in\n    tag_281:\n        /* \"#utility.yul\":7147:7221   */\n      swap2\n      pop\n        /* \"#utility.yul\":7230:7323   */\n      tag_282\n        /* \"#utility.yul\":7319:7322   */\n      dup3\n        /* \"#utility.yul\":7230:7323   */\n      tag_182\n      jump\t// in\n    tag_282:\n        /* \"#utility.yul\":7348:7350   */\n      0x20\n        /* \"#utility.yul\":7343:7346   */\n      dup3\n        /* \"#utility.yul\":7339:7351   */\n      add\n        /* \"#utility.yul\":7332:7351   */\n      swap1\n      pop\n        /* \"#utility.yul\":6991:7357   */\n      swap2\n      swap1\n      pop\n      jump\t// out\n        /* \"#utility.yul\":7363:7782   */\n    tag_96:\n        /* \"#utility.yul\":7529:7533   */\n      0x00\n        /* \"#utility.yul\":7567:7569   */\n      0x20\n        /* \"#utility.yul\":7556:7565   */\n      dup3\n        /* \"#utility.yul\":7552:7570   */\n      add\n        /* \"#utility.yul\":7544:7570   */\n      swap1\n      pop\n        /* \"#utility.yul\":7616:7625   */\n      dup2\n        /* \"#utility.yul\":7610:7614   */\n      dup2\n        /* \"#utility.yul\":7606:7626   */\n      sub\n        /* \"#utility.yul\":7602:7603   */\n      0x00\n        /* \"#utility.yul\":7591:7600   */\n      dup4\n        /* \"#utility.yul\":7587:7604   */\n      add\n        /* \"#utility.yul\":7580:7627   */\n      mstore\n        /* \"#utility.yul\":7644:7775   */\n      tag_284\n        /* \"#utility.yul\":7770:7774   */\n      dup2\n        /* \"#utility.yul\":7644:7775   */\n      tag_183\n      jump\t// in\n    tag_284:\n        /* \"#utility.yul\":7636:7775   */\n      swap1\n      pop\n        /* \"#utility.yul\":7363:7782   */\n      swap2\n      swap1\n      pop\n      jump\t// out\n        /* \"#utility.yul\":7788:8010   */\n    tag_98:\n        /* \"#utility.yul\":7881:7885   */\n      0x00\n        /* \"#utility.yul\":7919:7921   */\n      0x20\n        /* \"#utility.yul\":7908:7917   */\n      dup3\n        /* \"#utility.yul\":7904:7922   */\n      add\n        /* \"#utility.yul\":7896:7922   */\n      swap1\n      pop\n        /* \"#utility.yul\":7932:8003   */\n      tag_286\n        /* \"#utility.yul\":8000:8001   */\n      0x00\n        /* \"#utility.yul\":7989:7998   */\n      dup4\n        /* \"#utility.yul\":7985:8002   */\n      add\n        /* \"#utility.yul\":7976:7982   */\n      dup5\n        /* \"#utility.yul\":7932:8003   */\n      tag_178\n      jump\t// in\n    tag_286:\n        /* \"#utility.yul\":7788:8010   */\n      swap3\n      swap2\n      pop\n      pop\n      jump\t// out\n        /* \"#utility.yul\":8016:8159   */\n    tag_184:\n        /* \"#utility.yul\":8073:8078   */\n      0x00\n        /* \"#utility.yul\":8104:8110   */\n      dup2\n        /* \"#utility.yul\":8098:8111   */\n      mload\n        /* \"#utility.yul\":8089:8111   */\n      swap1\n      pop\n        /* \"#utility.yul\":8120:8153   */\n      tag_288\n        /* \"#utility.yul\":8147:8152   */\n      dup2\n        /* \"#utility.yul\":8120:8153   */\n      tag_166\n      jump\t// in\n    tag_288:\n        /* \"#utility.yul\":8016:8159   */\n      swap3\n      swap2\n      pop\n      pop\n      jump\t// out\n        /* \"#utility.yul\":8165:8516   */\n    tag_102:\n        /* \"#utility.yul\":8235:8241   */\n      0x00\n        /* \"#utility.yul\":8284:8286   */\n      0x20\n        /* \"#utility.yul\":8272:8281   */\n      dup3\n        /* \"#utility.yul\":8263:8270   */\n      dup5\n        /* \"#utility.yul\":8259:8282   */\n      sub\n        /* \"#utility.yul\":8255:8287   */\n      slt\n        /* \"#utility.yul\":8252:8371   */\n      iszero\n      tag_290\n      jumpi\n        /* \"#utility.yul\":8290:8369   */\n      tag_291\n      tag_158\n      jump\t// in\n    tag_291:\n        /* \"#utility.yul\":8252:8371   */\n    tag_290:\n        /* \"#utility.yul\":8410:8411   */\n      0x00\n        /* \"#utility.yul\":8435:8499   */\n      tag_292\n        /* \"#utility.yul\":8491:8498   */\n      dup5\n        /* \"#utility.yul\":8482:8488   */\n      dup3\n        /* \"#utility.yul\":8471:8480   */\n      dup6\n        /* \"#utility.yul\":8467:8489   */\n      add\n        /* \"#utility.yul\":8435:8499   */\n      tag_184\n      jump\t// in\n    tag_292:\n        /* \"#utility.yul\":8425:8499   */\n      swap2\n      pop\n        /* \"#utility.yul\":8381:8509   */\n      pop\n        /* \"#utility.yul\":8165:8516   */\n      swap3\n      swap2\n      pop\n      pop\n      jump\t// out\n        /* \"#utility.yul\":8522:8695   */\n    tag_185:\n        /* \"#utility.yul\":8662:8687   */\n      0x72657761726420616d6f756e74203e2062616c616e6365000000000000000000\n        /* \"#utility.yul\":8658:8659   */\n      0x00\n        /* \"#utility.yul\":8650:8656   */\n      dup3\n        /* \"#utility.yul\":8646:8660   */\n      add\n        /* \"#utility.yul\":8639:8688   */\n      mstore\n        /* \"#utility.yul\":8522:8695   */\n      pop\n      jump\t// out\n        /* \"#utility.yul\":8701:9067   */\n    tag_186:\n        /* \"#utility.yul\":8843:8846   */\n      0x00\n        /* \"#utility.yul\":8864:8931   */\n      tag_295\n        /* \"#utility.yul\":8928:8930   */\n      0x17\n        /* \"#utility.yul\":8923:8926   */\n      dup4\n        /* \"#utility.yul\":8864:8931   */\n      tag_175\n      jump\t// in\n    tag_295:\n        /* \"#utility.yul\":8857:8931   */\n      swap2\n      pop\n        /* \"#utility.yul\":8940:9033   */\n      tag_296\n        /* \"#utility.yul\":9029:9032   */\n      dup3\n        /* \"#utility.yul\":8940:9033   */\n      tag_185\n      jump\t// in\n    tag_296:\n        /* \"#utility.yul\":9058:9060   */\n      0x20\n        /* \"#utility.yul\":9053:9056   */\n      dup3\n        /* \"#utility.yul\":9049:9061   */\n      add\n        /* \"#utility.yul\":9042:9061   */\n      swap1\n      pop\n        /* \"#utility.yul\":8701:9067   */\n      swap2\n      swap1\n      pop\n      jump\t// out\n        /* \"#utility.yul\":9073:9492   */\n    tag_106:\n        /* \"#utility.yul\":9239:9243   */\n      0x00\n        /* \"#utility.yul\":9277:9279   */\n      0x20\n        /* \"#utility.yul\":9266:9275   */\n      dup3\n        /* \"#utility.yul\":9262:9280   */\n      add\n        /* \"#utility.yul\":9254:9280   */\n      swap1\n      pop\n        /* \"#utility.yul\":9326:9335   */\n      dup2\n        /* \"#utility.yul\":9320:9324   */\n      dup2\n        /* \"#utility.yul\":9316:9336   */\n      sub\n        /* \"#utility.yul\":9312:9313   */\n      0x00\n        /* \"#utility.yul\":9301:9310   */\n      dup4\n        /* \"#utility.yul\":9297:9314   */\n      add\n        /* \"#utility.yul\":9290:9337   */\n      mstore\n        /* \"#utility.yul\":9354:9485   */\n      tag_298\n        /* \"#utility.yul\":9480:9484   */\n      dup2\n        /* \"#utility.yul\":9354:9485   */\n      tag_186\n      jump\t// in\n    tag_298:\n        /* \"#utility.yul\":9346:9485   */\n      swap1\n      pop\n        /* \"#utility.yul\":9073:9492   */\n      swap2\n      swap1\n      pop\n      jump\t// out\n        /* \"#utility.yul\":9498:9940   */\n    tag_131:\n        /* \"#utility.yul\":9647:9651   */\n      0x00\n        /* \"#utility.yul\":9685:9687   */\n      0x60\n        /* \"#utility.yul\":9674:9683   */\n      dup3\n        /* \"#utility.yul\":9670:9688   */\n      add\n        /* \"#utility.yul\":9662:9688   */\n      swap1\n      pop\n        /* \"#utility.yul\":9698:9769   */\n      tag_300\n        /* \"#utility.yul\":9766:9767   */\n      0x00\n        /* \"#utility.yul\":9755:9764   */\n      dup4\n        /* \"#utility.yul\":9751:9768   */\n      add\n        /* \"#utility.yul\":9742:9748   */\n      dup7\n        /* \"#utility.yul\":9698:9769   */\n      tag_178\n      jump\t// in\n    tag_300:\n        /* \"#utility.yul\":9779:9851   */\n      tag_301\n        /* \"#utility.yul\":9847:9849   */\n      0x20\n        /* \"#utility.yul\":9836:9845   */\n      dup4\n        /* \"#utility.yul\":9832:9850   */\n      add\n        /* \"#utility.yul\":9823:9829   */\n      dup6\n        /* \"#utility.yul\":9779:9851   */\n      tag_178\n      jump\t// in\n    tag_301:\n        /* \"#utility.yul\":9861:9933   */\n      tag_302\n        /* \"#utility.yul\":9929:9931   */\n      0x40\n        /* \"#utility.yul\":9918:9927   */\n      dup4\n        /* \"#utility.yul\":9914:9932   */\n      add\n        /* \"#utility.yul\":9905:9911   */\n      dup5\n        /* \"#utility.yul\":9861:9933   */\n      tag_165\n      jump\t// in\n    tag_302:\n        /* \"#utility.yul\":9498:9940   */\n      swap5\n      swap4\n      pop\n      pop\n      pop\n      pop\n      jump\t// out\n        /* \"#utility.yul\":9946:10124   */\n    tag_187:\n        /* \"#utility.yul\":10086:10116   */\n      0x726577617264206475726174696f6e206e6f742066696e697368656400000000\n        /* \"#utility.yul\":10082:10083   */\n      0x00\n        /* \"#utility.yul\":10074:10080   */\n      dup3\n        /* \"#utility.yul\":10070:10084   */\n      add\n        /* \"#utility.yul\":10063:10117   */\n      mstore\n        /* \"#utility.yul\":9946:10124   */\n      pop\n      jump\t// out\n        /* \"#utility.yul\":10130:10496   */\n    tag_188:\n        /* \"#utility.yul\":10272:10275   */\n      0x00\n        /* \"#utility.yul\":10293:10360   */\n      tag_305\n        /* \"#utility.yul\":10357:10359   */\n      0x1c\n        /* \"#utility.yul\":10352:10355   */\n      dup4\n        /* \"#utility.yul\":10293:10360   */\n      tag_175\n      jump\t// in\n    tag_305:\n        /* \"#utility.yul\":10286:10360   */\n      swap2\n      pop\n        /* \"#utility.yul\":10369:10462   */\n      tag_306\n        /* \"#utility.yul\":10458:10461   */\n      dup3\n        /* \"#utility.yul\":10369:10462   */\n      tag_187\n      jump\t// in\n    tag_306:\n        /* \"#utility.yul\":10487:10489   */\n      0x20\n        /* \"#utility.yul\":10482:10485   */\n      dup3\n        /* \"#utility.yul\":10478:10490   */\n      add\n        /* \"#utility.yul\":10471:10490   */\n      swap1\n      pop\n        /* \"#utility.yul\":10130:10496   */\n      swap2\n      swap1\n      pop\n      jump\t// out\n        /* \"#utility.yul\":10502:10921   */\n    tag_141:\n        /* \"#utility.yul\":10668:10672   */\n      0x00\n        /* \"#utility.yul\":10706:10708   */\n      0x20\n        /* \"#utility.yul\":10695:10704   */\n      dup3\n        /* \"#utility.yul\":10691:10709   */\n      add\n        /* \"#utility.yul\":10683:10709   */\n      swap1\n      pop\n        /* \"#utility.yul\":10755:10764   */\n      dup2\n        /* \"#utility.yul\":10749:10753   */\n      dup2\n        /* \"#utility.yul\":10745:10765   */\n      sub\n        /* \"#utility.yul\":10741:10742   */\n      0x00\n        /* \"#utility.yul\":10730:10739   */\n      dup4\n        /* \"#utility.yul\":10726:10743   */\n      add\n        /* \"#utility.yul\":10719:10766   */\n      mstore\n        /* \"#utility.yul\":10783:10914   */\n      tag_308\n        /* \"#utility.yul\":10909:10913   */\n      dup2\n        /* \"#utility.yul\":10783:10914   */\n      tag_188\n      jump\t// in\n    tag_308:\n        /* \"#utility.yul\":10775:10914   */\n      swap1\n      pop\n        /* \"#utility.yul\":10502:10921   */\n      swap2\n      swap1\n      pop\n      jump\t// out\n        /* \"#utility.yul\":10927:11091   */\n    tag_189:\n        /* \"#utility.yul\":11067:11083   */\n      0x6e6f7420617574686f72697a6564000000000000000000000000000000000000\n        /* \"#utility.yul\":11063:11064   */\n      0x00\n        /* \"#utility.yul\":11055:11061   */\n      dup3\n        /* \"#utility.yul\":11051:11065   */\n      add\n        /* \"#utility.yul\":11044:11084   */\n      mstore\n        /* \"#utility.yul\":10927:11091   */\n      pop\n      jump\t// out\n        /* \"#utility.yul\":11097:11463   */\n    tag_190:\n        /* \"#utility.yul\":11239:11242   */\n      0x00\n        /* \"#utility.yul\":11260:11327   */\n      tag_311\n        /* \"#utility.yul\":11324:11326   */\n      0x0e\n        /* \"#utility.yul\":11319:11322   */\n      dup4\n        /* \"#utility.yul\":11260:11327   */\n      tag_175\n      jump\t// in\n    tag_311:\n        /* \"#utility.yul\":11253:11327   */\n      swap2\n      pop\n        /* \"#utility.yul\":11336:11429   */\n      tag_312\n        /* \"#utility.yul\":11425:11428   */\n      dup3\n        /* \"#utility.yul\":11336:11429   */\n      tag_189\n      jump\t// in\n    tag_312:\n        /* \"#utility.yul\":11454:11456   */\n      0x20\n        /* \"#utility.yul\":11449:11452   */\n      dup3\n        /* \"#utility.yul\":11445:11457   */\n      add\n        /* \"#utility.yul\":11438:11457   */\n      swap1\n      pop\n        /* \"#utility.yul\":11097:11463   */\n      swap2\n      swap1\n      pop\n      jump\t// out\n        /* \"#utility.yul\":11469:11888   */\n    tag_153:\n        /* \"#utility.yul\":11635:11639   */\n      0x00\n        /* \"#utility.yul\":11673:11675   */\n      0x20\n        /* \"#utility.yul\":11662:11671   */\n      dup3\n        /* \"#utility.yul\":11658:11676   */\n      add\n        /* \"#utility.yul\":11650:11676   */\n      swap1\n      pop\n        /* \"#utility.yul\":11722:11731   */\n      dup2\n        /* \"#utility.yul\":11716:11720   */\n      dup2\n        /* \"#utility.yul\":11712:11732   */\n      sub\n        /* \"#utility.yul\":11708:11709   */\n      0x00\n        /* \"#utility.yul\":11697:11706   */\n      dup4\n        /* \"#utility.yul\":11693:11710   */\n      add\n        /* \"#utility.yul\":11686:11733   */\n      mstore\n        /* \"#utility.yul\":11750:11881   */\n      tag_314\n        /* \"#utility.yul\":11876:11880   */\n      dup2\n        /* \"#utility.yul\":11750:11881   */\n      tag_190\n      jump\t// in\n    tag_314:\n        /* \"#utility.yul\":11742:11881   */\n      swap1\n      pop\n        /* \"#utility.yul\":11469:11888   */\n      swap2\n      swap1\n      pop\n      jump\t// out\n\n    auxdata: 0xa26469706673582212207c351d681783d4df459780267356a48e3e0da0eebddbc95c972fa0131090fa2964736f6c63430008180033\n}\n",
				"bytecode": {
					"linkReferences": {},
					"object": "60c060405234801562000010575f80fd5b50604051620015973803806200159783398181016040528101906200003691906200014a565b335f806101000a81548173ffffffffffffffffffffffffffffffffffffffff021916908373ffffffffffffffffffffffffffffffffffffffff1602179055508173ffffffffffffffffffffffffffffffffffffffff1660808173ffffffffffffffffffffffffffffffffffffffff16815250508073ffffffffffffffffffffffffffffffffffffffff1660a08173ffffffffffffffffffffffffffffffffffffffff168152505050506200018f565b5f80fd5b5f73ffffffffffffffffffffffffffffffffffffffff82169050919050565b5f6200011482620000e9565b9050919050565b620001268162000108565b811462000131575f80fd5b50565b5f8151905062000144816200011b565b92915050565b5f8060408385031215620001635762000162620000e5565b5b5f620001728582860162000134565b9250506020620001858582860162000134565b9150509250929050565b60805160a0516113ca620001cd5f395f818161069f015281816109110152610cdb01525f8181610473015281816109b20152610b0f01526113ca5ff3fe608060405234801561000f575f80fd5b50600436106100a6575f3560e01c806380faa57d1161006f57806380faa57d1461013a578063817b1cd214610158578063a694fc3a14610176578063cc1a378f14610192578063cd3daf9d146101ae578063d1af0c7d146101cc576100a6565b80628cc262146100aa5780632e1a7d4d146100da5780633c6b16ab146100f65780633d18b9121461011257806372f702f31461011c575b5f80fd5b6100c460048036038101906100bf9190610e03565b6101ea565b6040516100d19190610e46565b60405180910390f35b6100f460048036038101906100ef9190610e89565b6102e5565b005b610110600480360381019061010b9190610e89565b610511565b005b61011a6107a5565b005b6101246109b0565b6040516101319190610f0f565b60405180910390f35b6101426109d4565b60405161014f9190610e46565b60405180910390f35b6101606109e6565b60405161016d9190610e46565b60405180910390f35b610190600480360381019061018b9190610e89565b6109ec565b005b6101ac60048036038101906101a79190610e89565b610c1a565b005b6101b6610c70565b6040516101c39190610e46565b60405180910390f35b6101d4610cd9565b6040516101e19190610f0f565b60405180910390f35b5f60075f8373ffffffffffffffffffffffffffffffffffffffff1673ffffffffffffffffffffffffffffffffffffffff1681526020019081526020015f2054670de0b6b3a764000060065f8573ffffffffffffffffffffffffffffffffffffffff1673ffffffffffffffffffffffffffffffffffffffff1681526020019081526020015f2054610278610c70565b6102829190610f55565b60095f8673ffffffffffffffffffffffffffffffffffffffff1673ffffffffffffffffffffffffffffffffffffffff1681526020019081526020015f20546102ca9190610f88565b6102d49190610ff6565b6102de9190611026565b9050919050565b336102ee610c70565b6005819055506102fc6109d4565b6003819055505f73ffffffffffffffffffffffffffffffffffffffff168173ffffffffffffffffffffffffffffffffffffffff16146103c45761033e816101ea565b60075f8373ffffffffffffffffffffffffffffffffffffffff1673ffffffffffffffffffffffffffffffffffffffff1681526020019081526020015f208190555060055460065f8373ffffffffffffffffffffffffffffffffffffffff1673ffffffffffffffffffffffffffffffffffffffff1681526020019081526020015f20819055505b5f8211610406576040517f08c379a00000000000000000000000000000000000000000000000000000000081526004016103fd906110b3565b60405180910390fd5b8160095f3373ffffffffffffffffffffffffffffffffffffffff1673ffffffffffffffffffffffffffffffffffffffff1681526020019081526020015f205f8282546104529190610f55565b925050819055508160085f82825461046a9190610f55565b925050819055507f000000000000000000000000000000000000000000000000000000000000000073ffffffffffffffffffffffffffffffffffffffff1663a9059cbb33846040518363ffffffff1660e01b81526004016104cc9291906110e0565b6020604051808303815f875af11580156104e8573d5f803e3d5ffd5b505050506040513d601f19601f8201168201806040525081019061050c919061113c565b505050565b5f61051a610c70565b6005819055506105286109d4565b6003819055505f73ffffffffffffffffffffffffffffffffffffffff168173ffffffffffffffffffffffffffffffffffffffff16146105f05761056a816101ea565b60075f8373ffffffffffffffffffffffffffffffffffffffff1673ffffffffffffffffffffffffffffffffffffffff1681526020019081526020015f208190555060055460065f8373ffffffffffffffffffffffffffffffffffffffff1673ffffffffffffffffffffffffffffffffffffffff1681526020019081526020015f20819055505b6105f8610cfd565b600254421061061a576001548261060f9190610ff6565b600481905550610659565b5f6004544260025461062c9190610f55565b6106369190610f88565b905060015481846106479190611026565b6106519190610ff6565b600481905550505b5f6004541161069d576040517f08c379a0000000000000000000000000000000000000000000000000000000008152600401610694906111b1565b60405180910390fd5b7f000000000000000000000000000000000000000000000000000000000000000073ffffffffffffffffffffffffffffffffffffffff166370a08231306040518263ffffffff1660e01b81526004016106f691906111cf565b602060405180830381865afa158015610711573d5f803e3d5ffd5b505050506040513d601f19601f8201168201806040525081019061073591906111fc565b6001546004546107459190610f88565b1115610786576040517f08c379a000000000000000000000000000000000000000000000000000000000815260040161077d90611271565b60405180910390fd5b600154426107949190611026565b600281905550426003819055505050565b336107ae610c70565b6005819055506107bc6109d4565b6003819055505f73ffffffffffffffffffffffffffffffffffffffff168173ffffffffffffffffffffffffffffffffffffffff1614610884576107fe816101ea565b60075f8373ffffffffffffffffffffffffffffffffffffffff1673ffffffffffffffffffffffffffffffffffffffff1681526020019081526020015f208190555060055460065f8373ffffffffffffffffffffffffffffffffffffffff1673ffffffffffffffffffffffffffffffffffffffff1681526020019081526020015f20819055505b5f60075f3373ffffffffffffffffffffffffffffffffffffffff1673ffffffffffffffffffffffffffffffffffffffff1681526020019081526020015f205490505f8111156109ac575f60075f3373ffffffffffffffffffffffffffffffffffffffff1673ffffffffffffffffffffffffffffffffffffffff1681526020019081526020015f20819055507f000000000000000000000000000000000000000000000000000000000000000073ffffffffffffffffffffffffffffffffffffffff1663a9059cbb33836040518363ffffffff1660e01b815260040161096a9291906110e0565b6020604051808303815f875af1158015610986573d5f803e3d5ffd5b505050506040513d601f19601f820116820180604052508101906109aa919061113c565b505b5050565b7f000000000000000000000000000000000000000000000000000000000000000081565b5f6109e160025442610d8c565b905090565b60085481565b336109f5610c70565b600581905550610a036109d4565b6003819055505f73ffffffffffffffffffffffffffffffffffffffff168173ffffffffffffffffffffffffffffffffffffffff1614610acb57610a45816101ea565b60075f8373ffffffffffffffffffffffffffffffffffffffff1673ffffffffffffffffffffffffffffffffffffffff1681526020019081526020015f208190555060055460065f8373ffffffffffffffffffffffffffffffffffffffff1673ffffffffffffffffffffffffffffffffffffffff1681526020019081526020015f20819055505b5f8211610b0d576040517f08c379a0000000000000000000000000000000000000000000000000000000008152600401610b04906110b3565b60405180910390fd5b7f000000000000000000000000000000000000000000000000000000000000000073ffffffffffffffffffffffffffffffffffffffff166323b872dd3330856040518463ffffffff1660e01b8152600401610b6a9392919061128f565b6020604051808303815f875af1158015610b86573d5f803e3d5ffd5b505050506040513d601f19601f82011682018060405250810190610baa919061113c565b508160095f3373ffffffffffffffffffffffffffffffffffffffff1673ffffffffffffffffffffffffffffffffffffffff1681526020019081526020015f205f828254610bf79190611026565b925050819055508160085f828254610c0f9190611026565b925050819055505050565b610c22610cfd565b4260025410610c66576040517f08c379a0000000000000000000000000000000000000000000000000000000008152600401610c5d9061130e565b60405180910390fd5b8060018190555050565b5f8060085403610c84576005549050610cd6565b600854670de0b6b3a7640000600354610c9b6109d4565b610ca59190610f55565b600454610cb29190610f88565b610cbc9190610f88565b610cc69190610ff6565b600554610cd39190611026565b90505b90565b7f000000000000000000000000000000000000000000000000000000000000000081565b5f8054906101000a900473ffffffffffffffffffffffffffffffffffffffff1673ffffffffffffffffffffffffffffffffffffffff163373ffffffffffffffffffffffffffffffffffffffff1614610d8a576040517f08c379a0000000000000000000000000000000000000000000000000000000008152600401610d8190611376565b60405180910390fd5b565b5f81831115610d9b5781610d9d565b825b905092915050565b5f80fd5b5f73ffffffffffffffffffffffffffffffffffffffff82169050919050565b5f610dd282610da9565b9050919050565b610de281610dc8565b8114610dec575f80fd5b50565b5f81359050610dfd81610dd9565b92915050565b5f60208284031215610e1857610e17610da5565b5b5f610e2584828501610def565b91505092915050565b5f819050919050565b610e4081610e2e565b82525050565b5f602082019050610e595f830184610e37565b92915050565b610e6881610e2e565b8114610e72575f80fd5b50565b5f81359050610e8381610e5f565b92915050565b5f60208284031215610e9e57610e9d610da5565b5b5f610eab84828501610e75565b91505092915050565b5f819050919050565b5f610ed7610ed2610ecd84610da9565b610eb4565b610da9565b9050919050565b5f610ee882610ebd565b9050919050565b5f610ef982610ede565b9050919050565b610f0981610eef565b82525050565b5f602082019050610f225f830184610f00565b92915050565b7f4e487b71000000000000000000000000000000000000000000000000000000005f52601160045260245ffd5b5f610f5f82610e2e565b9150610f6a83610e2e565b9250828203905081811115610f8257610f81610f28565b5b92915050565b5f610f9282610e2e565b9150610f9d83610e2e565b9250828202610fab81610e2e565b91508282048414831517610fc257610fc1610f28565b5b5092915050565b7f4e487b71000000000000000000000000000000000000000000000000000000005f52601260045260245ffd5b5f61100082610e2e565b915061100b83610e2e565b92508261101b5761101a610fc9565b5b828204905092915050565b5f61103082610e2e565b915061103b83610e2e565b925082820190508082111561105357611052610f28565b5b92915050565b5f82825260208201905092915050565b7f616d6f756e74203d2030000000000000000000000000000000000000000000005f82015250565b5f61109d600a83611059565b91506110a882611069565b602082019050919050565b5f6020820190508181035f8301526110ca81611091565b9050919050565b6110da81610dc8565b82525050565b5f6040820190506110f35f8301856110d1565b6111006020830184610e37565b9392505050565b5f8115159050919050565b61111b81611107565b8114611125575f80fd5b50565b5f8151905061113681611112565b92915050565b5f6020828403121561115157611150610da5565b5b5f61115e84828501611128565b91505092915050565b7f7265776172642072617465203d203000000000000000000000000000000000005f82015250565b5f61119b600f83611059565b91506111a682611167565b602082019050919050565b5f6020820190508181035f8301526111c88161118f565b9050919050565b5f6020820190506111e25f8301846110d1565b92915050565b5f815190506111f681610e5f565b92915050565b5f6020828403121561121157611210610da5565b5b5f61121e848285016111e8565b91505092915050565b7f72657761726420616d6f756e74203e2062616c616e63650000000000000000005f82015250565b5f61125b601783611059565b915061126682611227565b602082019050919050565b5f6020820190508181035f8301526112888161124f565b9050919050565b5f6060820190506112a25f8301866110d1565b6112af60208301856110d1565b6112bc6040830184610e37565b949350505050565b7f726577617264206475726174696f6e206e6f742066696e6973686564000000005f82015250565b5f6112f8601c83611059565b9150611303826112c4565b602082019050919050565b5f6020820190508181035f830152611325816112ec565b9050919050565b7f6e6f7420617574686f72697a65640000000000000000000000000000000000005f82015250565b5f611360600e83611059565b915061136b8261132c565b602082019050919050565b5f6020820190508181035f83015261138d81611354565b905091905056fea26469706673582212207c351d681783d4df459780267356a48e3e0da0eebddbc95c972fa0131090fa2964736f6c63430008180033",
					"opcodes": "PUSH1 0xC0 PUSH1 0x40 MSTORE CALLVALUE DUP1 ISZERO PUSH3 0x10 JUMPI PUSH0 DUP1 REVERT JUMPDEST POP PUSH1 0x40 MLOAD PUSH3 0x1597 CODESIZE SUB DUP1 PUSH3 0x1597 DUP4 CODECOPY DUP2 DUP2 ADD PUSH1 0x40 MSTORE DUP2 ADD SWAP1 PUSH3 0x36 SWAP2 SWAP1 PUSH3 0x14A JUMP JUMPDEST CALLER PUSH0 DUP1 PUSH2 0x100 EXP DUP2 SLOAD DUP2 PUSH20 0xFFFFFFFFFFFFFFFFFFFFFFFFFFFFFFFFFFFFFFFF MUL NOT AND SWAP1 DUP4 PUSH20 0xFFFFFFFFFFFFFFFFFFFFFFFFFFFFFFFFFFFFFFFF AND MUL OR SWAP1 SSTORE POP DUP2 PUSH20 0xFFFFFFFFFFFFFFFFFFFFFFFFFFFFFFFFFFFFFFFF AND PUSH1 0x80 DUP2 PUSH20 0xFFFFFFFFFFFFFFFFFFFFFFFFFFFFFFFFFFFFFFFF AND DUP2 MSTORE POP POP DUP1 PUSH20 0xFFFFFFFFFFFFFFFFFFFFFFFFFFFFFFFFFFFFFFFF AND PUSH1 0xA0 DUP2 PUSH20 0xFFFFFFFFFFFFFFFFFFFFFFFFFFFFFFFFFFFFFFFF AND DUP2 MSTORE POP POP POP POP PUSH3 0x18F JUMP JUMPDEST PUSH0 DUP1 REVERT JUMPDEST PUSH0 PUSH20 0xFFFFFFFFFFFFFFFFFFFFFFFFFFFFFFFFFFFFFFFF DUP3 AND SWAP1 POP SWAP2 SWAP1 POP JUMP JUMPDEST PUSH0 PUSH3 0x114 DUP3 PUSH3 0xE9 JUMP JUMPDEST SWAP1 POP SWAP2 SWAP1 POP JUMP JUMPDEST PUSH3 0x126 DUP2 PUSH3 0x108 JUMP JUMPDEST DUP2 EQ PUSH3 0x131 JUMPI PUSH0 DUP1 REVERT JUMPDEST POP JUMP JUMPDEST PUSH0 DUP2 MLOAD SWAP1 POP PUSH3 0x144 DUP2 PUSH3 0x11B JUMP JUMPDEST SWAP3 SWAP2 POP POP JUMP JUMPDEST PUSH0 DUP1 PUSH1 0x40 DUP4 DUP6 SUB SLT ISZERO PUSH3 0x163 JUMPI PUSH3 0x162 PUSH3 0xE5 JUMP JUMPDEST JUMPDEST PUSH0 PUSH3 0x172 DUP6 DUP3 DUP7 ADD PUSH3 0x134 JUMP JUMPDEST SWAP3 POP POP PUSH1 0x20 PUSH3 0x185 DUP6 DUP3 DUP7 ADD PUSH3 0x134 JUMP JUMPDEST SWAP2 POP POP SWAP3 POP SWAP3 SWAP1 POP JUMP JUMPDEST PUSH1 0x80 MLOAD PUSH1 0xA0 MLOAD PUSH2 0x13CA PUSH3 0x1CD PUSH0 CODECOPY PUSH0 DUP2 DUP2 PUSH2 0x69F ADD MSTORE DUP2 DUP2 PUSH2 0x911 ADD MSTORE PUSH2 0xCDB ADD MSTORE PUSH0 DUP2 DUP2 PUSH2 0x473 ADD MSTORE DUP2 DUP2 PUSH2 0x9B2 ADD MSTORE PUSH2 0xB0F ADD MSTORE PUSH2 0x13CA PUSH0 RETURN INVALID PUSH1 0x80 PUSH1 0x40 MSTORE CALLVALUE DUP1 ISZERO PUSH2 0xF JUMPI PUSH0 DUP1 REVERT JUMPDEST POP PUSH1 0x4 CALLDATASIZE LT PUSH2 0xA6 JUMPI PUSH0 CALLDATALOAD PUSH1 0xE0 SHR DUP1 PUSH4 0x80FAA57D GT PUSH2 0x6F JUMPI DUP1 PUSH4 0x80FAA57D EQ PUSH2 0x13A JUMPI DUP1 PUSH4 0x817B1CD2 EQ PUSH2 0x158 JUMPI DUP1 PUSH4 0xA694FC3A EQ PUSH2 0x176 JUMPI DUP1 PUSH4 0xCC1A378F EQ PUSH2 0x192 JUMPI DUP1 PUSH4 0xCD3DAF9D EQ PUSH2 0x1AE JUMPI DUP1 PUSH4 0xD1AF0C7D EQ PUSH2 0x1CC JUMPI PUSH2 0xA6 JUMP JUMPDEST DUP1 PUSH3 0x8CC262 EQ PUSH2 0xAA JUMPI DUP1 PUSH4 0x2E1A7D4D EQ PUSH2 0xDA JUMPI DUP1 PUSH4 0x3C6B16AB EQ PUSH2 0xF6 JUMPI DUP1 PUSH4 0x3D18B912 EQ PUSH2 0x112 JUMPI DUP1 PUSH4 0x72F702F3 EQ PUSH2 0x11C JUMPI JUMPDEST PUSH0 DUP1 REVERT JUMPDEST PUSH2 0xC4 PUSH1 0x4 DUP1 CALLDATASIZE SUB DUP2 ADD SWAP1 PUSH2 0xBF SWAP2 SWAP1 PUSH2 0xE03 JUMP JUMPDEST PUSH2 0x1EA JUMP JUMPDEST PUSH1 0x40 MLOAD PUSH2 0xD1 SWAP2 SWAP1 PUSH2 0xE46 JUMP JUMPDEST PUSH1 0x40 MLOAD DUP1 SWAP2 SUB SWAP1 RETURN JUMPDEST PUSH2 0xF4 PUSH1 0x4 DUP1 CALLDATASIZE SUB DUP2 ADD SWAP1 PUSH2 0xEF SWAP2 SWAP1 PUSH2 0xE89 JUMP JUMPDEST PUSH2 0x2E5 JUMP JUMPDEST STOP JUMPDEST PUSH2 0x110 PUSH1 0x4 DUP1 CALLDATASIZE SUB DUP2 ADD SWAP1 PUSH2 0x10B SWAP2 SWAP1 PUSH2 0xE89 JUMP JUMPDEST PUSH2 0x511 JUMP JUMPDEST STOP JUMPDEST PUSH2 0x11A PUSH2 0x7A5 JUMP JUMPDEST STOP JUMPDEST PUSH2 0x124 PUSH2 0x9B0 JUMP JUMPDEST PUSH1 0x40 MLOAD PUSH2 0x131 SWAP2 SWAP1 PUSH2 0xF0F JUMP JUMPDEST PUSH1 0x40 MLOAD DUP1 SWAP2 SUB SWAP1 RETURN JUMPDEST PUSH2 0x142 PUSH2 0x9D4 JUMP JUMPDEST PUSH1 0x40 MLOAD PUSH2 0x14F SWAP2 SWAP1 PUSH2 0xE46 JUMP JUMPDEST PUSH1 0x40 MLOAD DUP1 SWAP2 SUB SWAP1 RETURN JUMPDEST PUSH2 0x160 PUSH2 0x9E6 JUMP JUMPDEST PUSH1 0x40 MLOAD PUSH2 0x16D SWAP2 SWAP1 PUSH2 0xE46 JUMP JUMPDEST PUSH1 0x40 MLOAD DUP1 SWAP2 SUB SWAP1 RETURN JUMPDEST PUSH2 0x190 PUSH1 0x4 DUP1 CALLDATASIZE SUB DUP2 ADD SWAP1 PUSH2 0x18B SWAP2 SWAP1 PUSH2 0xE89 JUMP JUMPDEST PUSH2 0x9EC JUMP JUMPDEST STOP JUMPDEST PUSH2 0x1AC PUSH1 0x4 DUP1 CALLDATASIZE SUB DUP2 ADD SWAP1 PUSH2 0x1A7 SWAP2 SWAP1 PUSH2 0xE89 JUMP JUMPDEST PUSH2 0xC1A JUMP JUMPDEST STOP JUMPDEST PUSH2 0x1B6 PUSH2 0xC70 JUMP JUMPDEST PUSH1 0x40 MLOAD PUSH2 0x1C3 SWAP2 SWAP1 PUSH2 0xE46 JUMP JUMPDEST PUSH1 0x40 MLOAD DUP1 SWAP2 SUB SWAP1 RETURN JUMPDEST PUSH2 0x1D4 PUSH2 0xCD9 JUMP JUMPDEST PUSH1 0x40 MLOAD PUSH2 0x1E1 SWAP2 SWAP1 PUSH2 0xF0F JUMP JUMPDEST PUSH1 0x40 MLOAD DUP1 SWAP2 SUB SWAP1 RETURN JUMPDEST PUSH0 PUSH1 0x7 PUSH0 DUP4 PUSH20 0xFFFFFFFFFFFFFFFFFFFFFFFFFFFFFFFFFFFFFFFF AND PUSH20 0xFFFFFFFFFFFFFFFFFFFFFFFFFFFFFFFFFFFFFFFF AND DUP2 MSTORE PUSH1 0x20 ADD SWAP1 DUP2 MSTORE PUSH1 0x20 ADD PUSH0 KECCAK256 SLOAD PUSH8 0xDE0B6B3A7640000 PUSH1 0x6 PUSH0 DUP6 PUSH20 0xFFFFFFFFFFFFFFFFFFFFFFFFFFFFFFFFFFFFFFFF AND PUSH20 0xFFFFFFFFFFFFFFFFFFFFFFFFFFFFFFFFFFFFFFFF AND DUP2 MSTORE PUSH1 0x20 ADD SWAP1 DUP2 MSTORE PUSH1 0x20 ADD PUSH0 KECCAK256 SLOAD PUSH2 0x278 PUSH2 0xC70 JUMP JUMPDEST PUSH2 0x282 SWAP2 SWAP1 PUSH2 0xF55 JUMP JUMPDEST PUSH1 0x9 PUSH0 DUP7 PUSH20 0xFFFFFFFFFFFFFFFFFFFFFFFFFFFFFFFFFFFFFFFF AND PUSH20 0xFFFFFFFFFFFFFFFFFFFFFFFFFFFFFFFFFFFFFFFF AND DUP2 MSTORE PUSH1 0x20 ADD SWAP1 DUP2 MSTORE PUSH1 0x20 ADD PUSH0 KECCAK256 SLOAD PUSH2 0x2CA SWAP2 SWAP1 PUSH2 0xF88 JUMP JUMPDEST PUSH2 0x2D4 SWAP2 SWAP1 PUSH2 0xFF6 JUMP JUMPDEST PUSH2 0x2DE SWAP2 SWAP1 PUSH2 0x1026 JUMP JUMPDEST SWAP1 POP SWAP2 SWAP1 POP JUMP JUMPDEST CALLER PUSH2 0x2EE PUSH2 0xC70 JUMP JUMPDEST PUSH1 0x5 DUP2 SWAP1 SSTORE POP PUSH2 0x2FC PUSH2 0x9D4 JUMP JUMPDEST PUSH1 0x3 DUP2 SWAP1 SSTORE POP PUSH0 PUSH20 0xFFFFFFFFFFFFFFFFFFFFFFFFFFFFFFFFFFFFFFFF AND DUP2 PUSH20 0xFFFFFFFFFFFFFFFFFFFFFFFFFFFFFFFFFFFFFFFF AND EQ PUSH2 0x3C4 JUMPI PUSH2 0x33E DUP2 PUSH2 0x1EA JUMP JUMPDEST PUSH1 0x7 PUSH0 DUP4 PUSH20 0xFFFFFFFFFFFFFFFFFFFFFFFFFFFFFFFFFFFFFFFF AND PUSH20 0xFFFFFFFFFFFFFFFFFFFFFFFFFFFFFFFFFFFFFFFF AND DUP2 MSTORE PUSH1 0x20 ADD SWAP1 DUP2 MSTORE PUSH1 0x20 ADD PUSH0 KECCAK256 DUP2 SWAP1 SSTORE POP PUSH1 0x5 SLOAD PUSH1 0x6 PUSH0 DUP4 PUSH20 0xFFFFFFFFFFFFFFFFFFFFFFFFFFFFFFFFFFFFFFFF AND PUSH20 0xFFFFFFFFFFFFFFFFFFFFFFFFFFFFFFFFFFFFFFFF AND DUP2 MSTORE PUSH1 0x20 ADD SWAP1 DUP2 MSTORE PUSH1 0x20 ADD PUSH0 KECCAK256 DUP2 SWAP1 SSTORE POP JUMPDEST PUSH0 DUP3 GT PUSH2 0x406 JUMPI PUSH1 0x40 MLOAD PUSH32 0x8C379A000000000000000000000000000000000000000000000000000000000 DUP2 MSTORE PUSH1 0x4 ADD PUSH2 0x3FD SWAP1 PUSH2 0x10B3 JUMP JUMPDEST PUSH1 0x40 MLOAD DUP1 SWAP2 SUB SWAP1 REVERT JUMPDEST DUP2 PUSH1 0x9 PUSH0 CALLER PUSH20 0xFFFFFFFFFFFFFFFFFFFFFFFFFFFFFFFFFFFFFFFF AND PUSH20 0xFFFFFFFFFFFFFFFFFFFFFFFFFFFFFFFFFFFFFFFF AND DUP2 MSTORE PUSH1 0x20 ADD SWAP1 DUP2 MSTORE PUSH1 0x20 ADD PUSH0 KECCAK256 PUSH0 DUP3 DUP3 SLOAD PUSH2 0x452 SWAP2 SWAP1 PUSH2 0xF55 JUMP JUMPDEST SWAP3 POP POP DUP2 SWAP1 SSTORE POP DUP2 PUSH1 0x8 PUSH0 DUP3 DUP3 SLOAD PUSH2 0x46A SWAP2 SWAP1 PUSH2 0xF55 JUMP JUMPDEST SWAP3 POP POP DUP2 SWAP1 SSTORE POP PUSH32 0x0 PUSH20 0xFFFFFFFFFFFFFFFFFFFFFFFFFFFFFFFFFFFFFFFF AND PUSH4 0xA9059CBB CALLER DUP5 PUSH1 0x40 MLOAD DUP4 PUSH4 0xFFFFFFFF AND PUSH1 0xE0 SHL DUP2 MSTORE PUSH1 0x4 ADD PUSH2 0x4CC SWAP3 SWAP2 SWAP1 PUSH2 0x10E0 JUMP JUMPDEST PUSH1 0x20 PUSH1 0x40 MLOAD DUP1 DUP4 SUB DUP2 PUSH0 DUP8 GAS CALL ISZERO DUP1 ISZERO PUSH2 0x4E8 JUMPI RETURNDATASIZE PUSH0 DUP1 RETURNDATACOPY RETURNDATASIZE PUSH0 REVERT JUMPDEST POP POP POP POP PUSH1 0x40 MLOAD RETURNDATASIZE PUSH1 0x1F NOT PUSH1 0x1F DUP3 ADD AND DUP3 ADD DUP1 PUSH1 0x40 MSTORE POP DUP2 ADD SWAP1 PUSH2 0x50C SWAP2 SWAP1 PUSH2 0x113C JUMP JUMPDEST POP POP POP JUMP JUMPDEST PUSH0 PUSH2 0x51A PUSH2 0xC70 JUMP JUMPDEST PUSH1 0x5 DUP2 SWAP1 SSTORE POP PUSH2 0x528 PUSH2 0x9D4 JUMP JUMPDEST PUSH1 0x3 DUP2 SWAP1 SSTORE POP PUSH0 PUSH20 0xFFFFFFFFFFFFFFFFFFFFFFFFFFFFFFFFFFFFFFFF AND DUP2 PUSH20 0xFFFFFFFFFFFFFFFFFFFFFFFFFFFFFFFFFFFFFFFF AND EQ PUSH2 0x5F0 JUMPI PUSH2 0x56A DUP2 PUSH2 0x1EA JUMP JUMPDEST PUSH1 0x7 PUSH0 DUP4 PUSH20 0xFFFFFFFFFFFFFFFFFFFFFFFFFFFFFFFFFFFFFFFF AND PUSH20 0xFFFFFFFFFFFFFFFFFFFFFFFFFFFFFFFFFFFFFFFF AND DUP2 MSTORE PUSH1 0x20 ADD SWAP1 DUP2 MSTORE PUSH1 0x20 ADD PUSH0 KECCAK256 DUP2 SWAP1 SSTORE POP PUSH1 0x5 SLOAD PUSH1 0x6 PUSH0 DUP4 PUSH20 0xFFFFFFFFFFFFFFFFFFFFFFFFFFFFFFFFFFFFFFFF AND PUSH20 0xFFFFFFFFFFFFFFFFFFFFFFFFFFFFFFFFFFFFFFFF AND DUP2 MSTORE PUSH1 0x20 ADD SWAP1 DUP2 MSTORE PUSH1 0x20 ADD PUSH0 KECCAK256 DUP2 SWAP1 SSTORE POP JUMPDEST PUSH2 0x5F8 PUSH2 0xCFD JUMP JUMPDEST PUSH1 0x2 SLOAD TIMESTAMP LT PUSH2 0x61A JUMPI PUSH1 0x1 SLOAD DUP3 PUSH2 0x60F SWAP2 SWAP1 PUSH2 0xFF6 JUMP JUMPDEST PUSH1 0x4 DUP2 SWAP1 SSTORE POP PUSH2 0x659 JUMP JUMPDEST PUSH0 PUSH1 0x4 SLOAD TIMESTAMP PUSH1 0x2 SLOAD PUSH2 0x62C SWAP2 SWAP1 PUSH2 0xF55 JUMP JUMPDEST PUSH2 0x636 SWAP2 SWAP1 PUSH2 0xF88 JUMP JUMPDEST SWAP1 POP PUSH1 0x1 SLOAD DUP2 DUP5 PUSH2 0x647 SWAP2 SWAP1 PUSH2 0x1026 JUMP JUMPDEST PUSH2 0x651 SWAP2 SWAP1 PUSH2 0xFF6 JUMP JUMPDEST PUSH1 0x4 DUP2 SWAP1 SSTORE POP POP JUMPDEST PUSH0 PUSH1 0x4 SLOAD GT PUSH2 0x69D JUMPI PUSH1 0x40 MLOAD PUSH32 0x8C379A000000000000000000000000000000000000000000000000000000000 DUP2 MSTORE PUSH1 0x4 ADD PUSH2 0x694 SWAP1 PUSH2 0x11B1 JUMP JUMPDEST PUSH1 0x40 MLOAD DUP1 SWAP2 SUB SWAP1 REVERT JUMPDEST PUSH32 0x0 PUSH20 0xFFFFFFFFFFFFFFFFFFFFFFFFFFFFFFFFFFFFFFFF AND PUSH4 0x70A08231 ADDRESS PUSH1 0x40 MLOAD DUP3 PUSH4 0xFFFFFFFF AND PUSH1 0xE0 SHL DUP2 MSTORE PUSH1 0x4 ADD PUSH2 0x6F6 SWAP2 SWAP1 PUSH2 0x11CF JUMP JUMPDEST PUSH1 0x20 PUSH1 0x40 MLOAD DUP1 DUP4 SUB DUP2 DUP7 GAS STATICCALL ISZERO DUP1 ISZERO PUSH2 0x711 JUMPI RETURNDATASIZE PUSH0 DUP1 RETURNDATACOPY RETURNDATASIZE PUSH0 REVERT JUMPDEST POP POP POP POP PUSH1 0x40 MLOAD RETURNDATASIZE PUSH1 0x1F NOT PUSH1 0x1F DUP3 ADD AND DUP3 ADD DUP1 PUSH1 0x40 MSTORE POP DUP2 ADD SWAP1 PUSH2 0x735 SWAP2 SWAP1 PUSH2 0x11FC JUMP JUMPDEST PUSH1 0x1 SLOAD PUSH1 0x4 SLOAD PUSH2 0x745 SWAP2 SWAP1 PUSH2 0xF88 JUMP JUMPDEST GT ISZERO PUSH2 0x786 JUMPI PUSH1 0x40 MLOAD PUSH32 0x8C379A000000000000000000000000000000000000000000000000000000000 DUP2 MSTORE PUSH1 0x4 ADD PUSH2 0x77D SWAP1 PUSH2 0x1271 JUMP JUMPDEST PUSH1 0x40 MLOAD DUP1 SWAP2 SUB SWAP1 REVERT JUMPDEST PUSH1 0x1 SLOAD TIMESTAMP PUSH2 0x794 SWAP2 SWAP1 PUSH2 0x1026 JUMP JUMPDEST PUSH1 0x2 DUP2 SWAP1 SSTORE POP TIMESTAMP PUSH1 0x3 DUP2 SWAP1 SSTORE POP POP POP JUMP JUMPDEST CALLER PUSH2 0x7AE PUSH2 0xC70 JUMP JUMPDEST PUSH1 0x5 DUP2 SWAP1 SSTORE POP PUSH2 0x7BC PUSH2 0x9D4 JUMP JUMPDEST PUSH1 0x3 DUP2 SWAP1 SSTORE POP PUSH0 PUSH20 0xFFFFFFFFFFFFFFFFFFFFFFFFFFFFFFFFFFFFFFFF AND DUP2 PUSH20 0xFFFFFFFFFFFFFFFFFFFFFFFFFFFFFFFFFFFFFFFF AND EQ PUSH2 0x884 JUMPI PUSH2 0x7FE DUP2 PUSH2 0x1EA JUMP JUMPDEST PUSH1 0x7 PUSH0 DUP4 PUSH20 0xFFFFFFFFFFFFFFFFFFFFFFFFFFFFFFFFFFFFFFFF AND PUSH20 0xFFFFFFFFFFFFFFFFFFFFFFFFFFFFFFFFFFFFFFFF AND DUP2 MSTORE PUSH1 0x20 ADD SWAP1 DUP2 MSTORE PUSH1 0x20 ADD PUSH0 KECCAK256 DUP2 SWAP1 SSTORE POP PUSH1 0x5 SLOAD PUSH1 0x6 PUSH0 DUP4 PUSH20 0xFFFFFFFFFFFFFFFFFFFFFFFFFFFFFFFFFFFFFFFF AND PUSH20 0xFFFFFFFFFFFFFFFFFFFFFFFFFFFFFFFFFFFFFFFF AND DUP2 MSTORE PUSH1 0x20 ADD SWAP1 DUP2 MSTORE PUSH1 0x20 ADD PUSH0 KECCAK256 DUP2 SWAP1 SSTORE POP JUMPDEST PUSH0 PUSH1 0x7 PUSH0 CALLER PUSH20 0xFFFFFFFFFFFFFFFFFFFFFFFFFFFFFFFFFFFFFFFF AND PUSH20 0xFFFFFFFFFFFFFFFFFFFFFFFFFFFFFFFFFFFFFFFF AND DUP2 MSTORE PUSH1 0x20 ADD SWAP1 DUP2 MSTORE PUSH1 0x20 ADD PUSH0 KECCAK256 SLOAD SWAP1 POP PUSH0 DUP2 GT ISZERO PUSH2 0x9AC JUMPI PUSH0 PUSH1 0x7 PUSH0 CALLER PUSH20 0xFFFFFFFFFFFFFFFFFFFFFFFFFFFFFFFFFFFFFFFF AND PUSH20 0xFFFFFFFFFFFFFFFFFFFFFFFFFFFFFFFFFFFFFFFF AND DUP2 MSTORE PUSH1 0x20 ADD SWAP1 DUP2 MSTORE PUSH1 0x20 ADD PUSH0 KECCAK256 DUP2 SWAP1 SSTORE POP PUSH32 0x0 PUSH20 0xFFFFFFFFFFFFFFFFFFFFFFFFFFFFFFFFFFFFFFFF AND PUSH4 0xA9059CBB CALLER DUP4 PUSH1 0x40 MLOAD DUP4 PUSH4 0xFFFFFFFF AND PUSH1 0xE0 SHL DUP2 MSTORE PUSH1 0x4 ADD PUSH2 0x96A SWAP3 SWAP2 SWAP1 PUSH2 0x10E0 JUMP JUMPDEST PUSH1 0x20 PUSH1 0x40 MLOAD DUP1 DUP4 SUB DUP2 PUSH0 DUP8 GAS CALL ISZERO DUP1 ISZERO PUSH2 0x986 JUMPI RETURNDATASIZE PUSH0 DUP1 RETURNDATACOPY RETURNDATASIZE PUSH0 REVERT JUMPDEST POP POP POP POP PUSH1 0x40 MLOAD RETURNDATASIZE PUSH1 0x1F NOT PUSH1 0x1F DUP3 ADD AND DUP3 ADD DUP1 PUSH1 0x40 MSTORE POP DUP2 ADD SWAP1 PUSH2 0x9AA SWAP2 SWAP1 PUSH2 0x113C JUMP JUMPDEST POP JUMPDEST POP POP JUMP JUMPDEST PUSH32 0x0 DUP2 JUMP JUMPDEST PUSH0 PUSH2 0x9E1 PUSH1 0x2 SLOAD TIMESTAMP PUSH2 0xD8C JUMP JUMPDEST SWAP1 POP SWAP1 JUMP JUMPDEST PUSH1 0x8 SLOAD DUP2 JUMP JUMPDEST CALLER PUSH2 0x9F5 PUSH2 0xC70 JUMP JUMPDEST PUSH1 0x5 DUP2 SWAP1 SSTORE POP PUSH2 0xA03 PUSH2 0x9D4 JUMP JUMPDEST PUSH1 0x3 DUP2 SWAP1 SSTORE POP PUSH0 PUSH20 0xFFFFFFFFFFFFFFFFFFFFFFFFFFFFFFFFFFFFFFFF AND DUP2 PUSH20 0xFFFFFFFFFFFFFFFFFFFFFFFFFFFFFFFFFFFFFFFF AND EQ PUSH2 0xACB JUMPI PUSH2 0xA45 DUP2 PUSH2 0x1EA JUMP JUMPDEST PUSH1 0x7 PUSH0 DUP4 PUSH20 0xFFFFFFFFFFFFFFFFFFFFFFFFFFFFFFFFFFFFFFFF AND PUSH20 0xFFFFFFFFFFFFFFFFFFFFFFFFFFFFFFFFFFFFFFFF AND DUP2 MSTORE PUSH1 0x20 ADD SWAP1 DUP2 MSTORE PUSH1 0x20 ADD PUSH0 KECCAK256 DUP2 SWAP1 SSTORE POP PUSH1 0x5 SLOAD PUSH1 0x6 PUSH0 DUP4 PUSH20 0xFFFFFFFFFFFFFFFFFFFFFFFFFFFFFFFFFFFFFFFF AND PUSH20 0xFFFFFFFFFFFFFFFFFFFFFFFFFFFFFFFFFFFFFFFF AND DUP2 MSTORE PUSH1 0x20 ADD SWAP1 DUP2 MSTORE PUSH1 0x20 ADD PUSH0 KECCAK256 DUP2 SWAP1 SSTORE POP JUMPDEST PUSH0 DUP3 GT PUSH2 0xB0D JUMPI PUSH1 0x40 MLOAD PUSH32 0x8C379A000000000000000000000000000000000000000000000000000000000 DUP2 MSTORE PUSH1 0x4 ADD PUSH2 0xB04 SWAP1 PUSH2 0x10B3 JUMP JUMPDEST PUSH1 0x40 MLOAD DUP1 SWAP2 SUB SWAP1 REVERT JUMPDEST PUSH32 0x0 PUSH20 0xFFFFFFFFFFFFFFFFFFFFFFFFFFFFFFFFFFFFFFFF AND PUSH4 0x23B872DD CALLER ADDRESS DUP6 PUSH1 0x40 MLOAD DUP5 PUSH4 0xFFFFFFFF AND PUSH1 0xE0 SHL DUP2 MSTORE PUSH1 0x4 ADD PUSH2 0xB6A SWAP4 SWAP3 SWAP2 SWAP1 PUSH2 0x128F JUMP JUMPDEST PUSH1 0x20 PUSH1 0x40 MLOAD DUP1 DUP4 SUB DUP2 PUSH0 DUP8 GAS CALL ISZERO DUP1 ISZERO PUSH2 0xB86 JUMPI RETURNDATASIZE PUSH0 DUP1 RETURNDATACOPY RETURNDATASIZE PUSH0 REVERT JUMPDEST POP POP POP POP PUSH1 0x40 MLOAD RETURNDATASIZE PUSH1 0x1F NOT PUSH1 0x1F DUP3 ADD AND DUP3 ADD DUP1 PUSH1 0x40 MSTORE POP DUP2 ADD SWAP1 PUSH2 0xBAA SWAP2 SWAP1 PUSH2 0x113C JUMP JUMPDEST POP DUP2 PUSH1 0x9 PUSH0 CALLER PUSH20 0xFFFFFFFFFFFFFFFFFFFFFFFFFFFFFFFFFFFFFFFF AND PUSH20 0xFFFFFFFFFFFFFFFFFFFFFFFFFFFFFFFFFFFFFFFF AND DUP2 MSTORE PUSH1 0x20 ADD SWAP1 DUP2 MSTORE PUSH1 0x20 ADD PUSH0 KECCAK256 PUSH0 DUP3 DUP3 SLOAD PUSH2 0xBF7 SWAP2 SWAP1 PUSH2 0x1026 JUMP JUMPDEST SWAP3 POP POP DUP2 SWAP1 SSTORE POP DUP2 PUSH1 0x8 PUSH0 DUP3 DUP3 SLOAD PUSH2 0xC0F SWAP2 SWAP1 PUSH2 0x1026 JUMP JUMPDEST SWAP3 POP POP DUP2 SWAP1 SSTORE POP POP POP JUMP JUMPDEST PUSH2 0xC22 PUSH2 0xCFD JUMP JUMPDEST TIMESTAMP PUSH1 0x2 SLOAD LT PUSH2 0xC66 JUMPI PUSH1 0x40 MLOAD PUSH32 0x8C379A000000000000000000000000000000000000000000000000000000000 DUP2 MSTORE PUSH1 0x4 ADD PUSH2 0xC5D SWAP1 PUSH2 0x130E JUMP JUMPDEST PUSH1 0x40 MLOAD DUP1 SWAP2 SUB SWAP1 REVERT JUMPDEST DUP1 PUSH1 0x1 DUP2 SWAP1 SSTORE POP POP JUMP JUMPDEST PUSH0 DUP1 PUSH1 0x8 SLOAD SUB PUSH2 0xC84 JUMPI PUSH1 0x5 SLOAD SWAP1 POP PUSH2 0xCD6 JUMP JUMPDEST PUSH1 0x8 SLOAD PUSH8 0xDE0B6B3A7640000 PUSH1 0x3 SLOAD PUSH2 0xC9B PUSH2 0x9D4 JUMP JUMPDEST PUSH2 0xCA5 SWAP2 SWAP1 PUSH2 0xF55 JUMP JUMPDEST PUSH1 0x4 SLOAD PUSH2 0xCB2 SWAP2 SWAP1 PUSH2 0xF88 JUMP JUMPDEST PUSH2 0xCBC SWAP2 SWAP1 PUSH2 0xF88 JUMP JUMPDEST PUSH2 0xCC6 SWAP2 SWAP1 PUSH2 0xFF6 JUMP JUMPDEST PUSH1 0x5 SLOAD PUSH2 0xCD3 SWAP2 SWAP1 PUSH2 0x1026 JUMP JUMPDEST SWAP1 POP JUMPDEST SWAP1 JUMP JUMPDEST PUSH32 0x0 DUP2 JUMP JUMPDEST PUSH0 DUP1 SLOAD SWAP1 PUSH2 0x100 EXP SWAP1 DIV PUSH20 0xFFFFFFFFFFFFFFFFFFFFFFFFFFFFFFFFFFFFFFFF AND PUSH20 0xFFFFFFFFFFFFFFFFFFFFFFFFFFFFFFFFFFFFFFFF AND CALLER PUSH20 0xFFFFFFFFFFFFFFFFFFFFFFFFFFFFFFFFFFFFFFFF AND EQ PUSH2 0xD8A JUMPI PUSH1 0x40 MLOAD PUSH32 0x8C379A000000000000000000000000000000000000000000000000000000000 DUP2 MSTORE PUSH1 0x4 ADD PUSH2 0xD81 SWAP1 PUSH2 0x1376 JUMP JUMPDEST PUSH1 0x40 MLOAD DUP1 SWAP2 SUB SWAP1 REVERT JUMPDEST JUMP JUMPDEST PUSH0 DUP2 DUP4 GT ISZERO PUSH2 0xD9B JUMPI DUP2 PUSH2 0xD9D JUMP JUMPDEST DUP3 JUMPDEST SWAP1 POP SWAP3 SWAP2 POP POP JUMP JUMPDEST PUSH0 DUP1 REVERT JUMPDEST PUSH0 PUSH20 0xFFFFFFFFFFFFFFFFFFFFFFFFFFFFFFFFFFFFFFFF DUP3 AND SWAP1 POP SWAP2 SWAP1 POP JUMP JUMPDEST PUSH0 PUSH2 0xDD2 DUP3 PUSH2 0xDA9 JUMP JUMPDEST SWAP1 POP SWAP2 SWAP1 POP JUMP JUMPDEST PUSH2 0xDE2 DUP2 PUSH2 0xDC8 JUMP JUMPDEST DUP2 EQ PUSH2 0xDEC JUMPI PUSH0 DUP1 REVERT JUMPDEST POP JUMP JUMPDEST PUSH0 DUP2 CALLDATALOAD SWAP1 POP PUSH2 0xDFD DUP2 PUSH2 0xDD9 JUMP JUMPDEST SWAP3 SWAP2 POP POP JUMP JUMPDEST PUSH0 PUSH1 0x20 DUP3 DUP5 SUB SLT ISZERO PUSH2 0xE18 JUMPI PUSH2 0xE17 PUSH2 0xDA5 JUMP JUMPDEST JUMPDEST PUSH0 PUSH2 0xE25 DUP5 DUP3 DUP6 ADD PUSH2 0xDEF JUMP JUMPDEST SWAP2 POP POP SWAP3 SWAP2 POP POP JUMP JUMPDEST PUSH0 DUP2 SWAP1 POP SWAP2 SWAP1 POP JUMP JUMPDEST PUSH2 0xE40 DUP2 PUSH2 0xE2E JUMP JUMPDEST DUP3 MSTORE POP POP JUMP JUMPDEST PUSH0 PUSH1 0x20 DUP3 ADD SWAP1 POP PUSH2 0xE59 PUSH0 DUP4 ADD DUP5 PUSH2 0xE37 JUMP JUMPDEST SWAP3 SWAP2 POP POP JUMP JUMPDEST PUSH2 0xE68 DUP2 PUSH2 0xE2E JUMP JUMPDEST DUP2 EQ PUSH2 0xE72 JUMPI PUSH0 DUP1 REVERT JUMPDEST POP JUMP JUMPDEST PUSH0 DUP2 CALLDATALOAD SWAP1 POP PUSH2 0xE83 DUP2 PUSH2 0xE5F JUMP JUMPDEST SWAP3 SWAP2 POP POP JUMP JUMPDEST PUSH0 PUSH1 0x20 DUP3 DUP5 SUB SLT ISZERO PUSH2 0xE9E JUMPI PUSH2 0xE9D PUSH2 0xDA5 JUMP JUMPDEST JUMPDEST PUSH0 PUSH2 0xEAB DUP5 DUP3 DUP6 ADD PUSH2 0xE75 JUMP JUMPDEST SWAP2 POP POP SWAP3 SWAP2 POP POP JUMP JUMPDEST PUSH0 DUP2 SWAP1 POP SWAP2 SWAP1 POP JUMP JUMPDEST PUSH0 PUSH2 0xED7 PUSH2 0xED2 PUSH2 0xECD DUP5 PUSH2 0xDA9 JUMP JUMPDEST PUSH2 0xEB4 JUMP JUMPDEST PUSH2 0xDA9 JUMP JUMPDEST SWAP1 POP SWAP2 SWAP1 POP JUMP JUMPDEST PUSH0 PUSH2 0xEE8 DUP3 PUSH2 0xEBD JUMP JUMPDEST SWAP1 POP SWAP2 SWAP1 POP JUMP JUMPDEST PUSH0 PUSH2 0xEF9 DUP3 PUSH2 0xEDE JUMP JUMPDEST SWAP1 POP SWAP2 SWAP1 POP JUMP JUMPDEST PUSH2 0xF09 DUP2 PUSH2 0xEEF JUMP JUMPDEST DUP3 MSTORE POP POP JUMP JUMPDEST PUSH0 PUSH1 0x20 DUP3 ADD SWAP1 POP PUSH2 0xF22 PUSH0 DUP4 ADD DUP5 PUSH2 0xF00 JUMP JUMPDEST SWAP3 SWAP2 POP POP JUMP JUMPDEST PUSH32 0x4E487B7100000000000000000000000000000000000000000000000000000000 PUSH0 MSTORE PUSH1 0x11 PUSH1 0x4 MSTORE PUSH1 0x24 PUSH0 REVERT JUMPDEST PUSH0 PUSH2 0xF5F DUP3 PUSH2 0xE2E JUMP JUMPDEST SWAP2 POP PUSH2 0xF6A DUP4 PUSH2 0xE2E JUMP JUMPDEST SWAP3 POP DUP3 DUP3 SUB SWAP1 POP DUP2 DUP2 GT ISZERO PUSH2 0xF82 JUMPI PUSH2 0xF81 PUSH2 0xF28 JUMP JUMPDEST JUMPDEST SWAP3 SWAP2 POP POP JUMP JUMPDEST PUSH0 PUSH2 0xF92 DUP3 PUSH2 0xE2E JUMP JUMPDEST SWAP2 POP PUSH2 0xF9D DUP4 PUSH2 0xE2E JUMP JUMPDEST SWAP3 POP DUP3 DUP3 MUL PUSH2 0xFAB DUP2 PUSH2 0xE2E JUMP JUMPDEST SWAP2 POP DUP3 DUP3 DIV DUP5 EQ DUP4 ISZERO OR PUSH2 0xFC2 JUMPI PUSH2 0xFC1 PUSH2 0xF28 JUMP JUMPDEST JUMPDEST POP SWAP3 SWAP2 POP POP JUMP JUMPDEST PUSH32 0x4E487B7100000000000000000000000000000000000000000000000000000000 PUSH0 MSTORE PUSH1 0x12 PUSH1 0x4 MSTORE PUSH1 0x24 PUSH0 REVERT JUMPDEST PUSH0 PUSH2 0x1000 DUP3 PUSH2 0xE2E JUMP JUMPDEST SWAP2 POP PUSH2 0x100B DUP4 PUSH2 0xE2E JUMP JUMPDEST SWAP3 POP DUP3 PUSH2 0x101B JUMPI PUSH2 0x101A PUSH2 0xFC9 JUMP JUMPDEST JUMPDEST DUP3 DUP3 DIV SWAP1 POP SWAP3 SWAP2 POP POP JUMP JUMPDEST PUSH0 PUSH2 0x1030 DUP3 PUSH2 0xE2E JUMP JUMPDEST SWAP2 POP PUSH2 0x103B DUP4 PUSH2 0xE2E JUMP JUMPDEST SWAP3 POP DUP3 DUP3 ADD SWAP1 POP DUP1 DUP3 GT ISZERO PUSH2 0x1053 JUMPI PUSH2 0x1052 PUSH2 0xF28 JUMP JUMPDEST JUMPDEST SWAP3 SWAP2 POP POP JUMP JUMPDEST PUSH0 DUP3 DUP3 MSTORE PUSH1 0x20 DUP3 ADD SWAP1 POP SWAP3 SWAP2 POP POP JUMP JUMPDEST PUSH32 0x616D6F756E74203D203000000000000000000000000000000000000000000000 PUSH0 DUP3 ADD MSTORE POP JUMP JUMPDEST PUSH0 PUSH2 0x109D PUSH1 0xA DUP4 PUSH2 0x1059 JUMP JUMPDEST SWAP2 POP PUSH2 0x10A8 DUP3 PUSH2 0x1069 JUMP JUMPDEST PUSH1 0x20 DUP3 ADD SWAP1 POP SWAP2 SWAP1 POP JUMP JUMPDEST PUSH0 PUSH1 0x20 DUP3 ADD SWAP1 POP DUP2 DUP2 SUB PUSH0 DUP4 ADD MSTORE PUSH2 0x10CA DUP2 PUSH2 0x1091 JUMP JUMPDEST SWAP1 POP SWAP2 SWAP1 POP JUMP JUMPDEST PUSH2 0x10DA DUP2 PUSH2 0xDC8 JUMP JUMPDEST DUP3 MSTORE POP POP JUMP JUMPDEST PUSH0 PUSH1 0x40 DUP3 ADD SWAP1 POP PUSH2 0x10F3 PUSH0 DUP4 ADD DUP6 PUSH2 0x10D1 JUMP JUMPDEST PUSH2 0x1100 PUSH1 0x20 DUP4 ADD DUP5 PUSH2 0xE37 JUMP JUMPDEST SWAP4 SWAP3 POP POP POP JUMP JUMPDEST PUSH0 DUP2 ISZERO ISZERO SWAP1 POP SWAP2 SWAP1 POP JUMP JUMPDEST PUSH2 0x111B DUP2 PUSH2 0x1107 JUMP JUMPDEST DUP2 EQ PUSH2 0x1125 JUMPI PUSH0 DUP1 REVERT JUMPDEST POP JUMP JUMPDEST PUSH0 DUP2 MLOAD SWAP1 POP PUSH2 0x1136 DUP2 PUSH2 0x1112 JUMP JUMPDEST SWAP3 SWAP2 POP POP JUMP JUMPDEST PUSH0 PUSH1 0x20 DUP3 DUP5 SUB SLT ISZERO PUSH2 0x1151 JUMPI PUSH2 0x1150 PUSH2 0xDA5 JUMP JUMPDEST JUMPDEST PUSH0 PUSH2 0x115E DUP5 DUP3 DUP6 ADD PUSH2 0x1128 JUMP JUMPDEST SWAP2 POP POP SWAP3 SWAP2 POP POP JUMP JUMPDEST PUSH32 0x7265776172642072617465203D20300000000000000000000000000000000000 PUSH0 DUP3 ADD MSTORE POP JUMP JUMPDEST PUSH0 PUSH2 0x119B PUSH1 0xF DUP4 PUSH2 0x1059 JUMP JUMPDEST SWAP2 POP PUSH2 0x11A6 DUP3 PUSH2 0x1167 JUMP JUMPDEST PUSH1 0x20 DUP3 ADD SWAP1 POP SWAP2 SWAP1 POP JUMP JUMPDEST PUSH0 PUSH1 0x20 DUP3 ADD SWAP1 POP DUP2 DUP2 SUB PUSH0 DUP4 ADD MSTORE PUSH2 0x11C8 DUP2 PUSH2 0x118F JUMP JUMPDEST SWAP1 POP SWAP2 SWAP1 POP JUMP JUMPDEST PUSH0 PUSH1 0x20 DUP3 ADD SWAP1 POP PUSH2 0x11E2 PUSH0 DUP4 ADD DUP5 PUSH2 0x10D1 JUMP JUMPDEST SWAP3 SWAP2 POP POP JUMP JUMPDEST PUSH0 DUP2 MLOAD SWAP1 POP PUSH2 0x11F6 DUP2 PUSH2 0xE5F JUMP JUMPDEST SWAP3 SWAP2 POP POP JUMP JUMPDEST PUSH0 PUSH1 0x20 DUP3 DUP5 SUB SLT ISZERO PUSH2 0x1211 JUMPI PUSH2 0x1210 PUSH2 0xDA5 JUMP JUMPDEST JUMPDEST PUSH0 PUSH2 0x121E DUP5 DUP3 DUP6 ADD PUSH2 0x11E8 JUMP JUMPDEST SWAP2 POP POP SWAP3 SWAP2 POP POP JUMP JUMPDEST PUSH32 0x72657761726420616D6F756E74203E2062616C616E6365000000000000000000 PUSH0 DUP3 ADD MSTORE POP JUMP JUMPDEST PUSH0 PUSH2 0x125B PUSH1 0x17 DUP4 PUSH2 0x1059 JUMP JUMPDEST SWAP2 POP PUSH2 0x1266 DUP3 PUSH2 0x1227 JUMP JUMPDEST PUSH1 0x20 DUP3 ADD SWAP1 POP SWAP2 SWAP1 POP JUMP JUMPDEST PUSH0 PUSH1 0x20 DUP3 ADD SWAP1 POP DUP2 DUP2 SUB PUSH0 DUP4 ADD MSTORE PUSH2 0x1288 DUP2 PUSH2 0x124F JUMP JUMPDEST SWAP1 POP SWAP2 SWAP1 POP JUMP JUMPDEST PUSH0 PUSH1 0x60 DUP3 ADD SWAP1 POP PUSH2 0x12A2 PUSH0 DUP4 ADD DUP7 PUSH2 0x10D1 JUMP JUMPDEST PUSH2 0x12AF PUSH1 0x20 DUP4 ADD DUP6 PUSH2 0x10D1 JUMP JUMPDEST PUSH2 0x12BC PUSH1 0x40 DUP4 ADD DUP5 PUSH2 0xE37 JUMP JUMPDEST SWAP5 SWAP4 POP POP POP POP JUMP JUMPDEST PUSH32 0x726577617264206475726174696F6E206E6F742066696E697368656400000000 PUSH0 DUP3 ADD MSTORE POP JUMP JUMPDEST PUSH0 PUSH2 0x12F8 PUSH1 0x1C DUP4 PUSH2 0x1059 JUMP JUMPDEST SWAP2 POP PUSH2 0x1303 DUP3 PUSH2 0x12C4 JUMP JUMPDEST PUSH1 0x20 DUP3 ADD SWAP1 POP SWAP2 SWAP1 POP JUMP JUMPDEST PUSH0 PUSH1 0x20 DUP3 ADD SWAP1 POP DUP2 DUP2 SUB PUSH0 DUP4 ADD MSTORE PUSH2 0x1325 DUP2 PUSH2 0x12EC JUMP JUMPDEST SWAP1 POP SWAP2 SWAP1 POP JUMP JUMPDEST PUSH32 0x6E6F7420617574686F72697A6564000000000000000000000000000000000000 PUSH0 DUP3 ADD MSTORE POP JUMP JUMPDEST PUSH0 PUSH2 0x1360 PUSH1 0xE DUP4 PUSH2 0x1059 JUMP JUMPDEST SWAP2 POP PUSH2 0x136B DUP3 PUSH2 0x132C JUMP JUMPDEST PUSH1 0x20 DUP3 ADD SWAP1 POP SWAP2 SWAP1 POP JUMP JUMPDEST PUSH0 PUSH1 0x20 DUP3 ADD SWAP1 POP DUP2 DUP2 SUB PUSH0 DUP4 ADD MSTORE PUSH2 0x138D DUP2 PUSH2 0x1354 JUMP JUMPDEST SWAP1 POP SWAP2 SWAP1 POP JUMP INVALID LOG2 PUSH5 0x6970667358 0x22 SLT KECCAK256 PUSH29 0x351D681783D4DF459780267356A48E3E0DA0EEBDDBC95C972FA0131090 STATICCALL 0x29 PUSH5 0x736F6C6343 STOP ADDMOD XOR STOP CALLER "
				},
				"gasEstimates": {
					"creation": {
						"codeDepositCost": "1013200",
						"executionCost": "infinite",
						"totalCost": "infinite"
					},
					"external": {
						"earned(address)": "infinite",
						"getReward()": "infinite",
						"lastTimeRewardApplicable()": "2515",
						"notifyRewardAmount(uint256)": "infinite",
						"rewardPerToken()": "infinite",
						"rewardsToken()": "infinite",
						"setRewardsDuration(uint256)": "26893",
						"stake(uint256)": "infinite",
						"stakingToken()": "infinite",
						"totalStaked()": "2447",
						"withdraw(uint256)": "infinite"
					},
					"internal": {
						"_min(uint256,uint256)": "66",
						"onlyOwner()": "infinite"
					}
				},
				"methodIdentifiers": {
					"earned(address)": "008cc262",
					"getReward()": "3d18b912",
					"lastTimeRewardApplicable()": "80faa57d",
					"notifyRewardAmount(uint256)": "3c6b16ab",
					"rewardPerToken()": "cd3daf9d",
					"rewardsToken()": "d1af0c7d",
					"setRewardsDuration(uint256)": "cc1a378f",
					"stake(uint256)": "a694fc3a",
					"stakingToken()": "72f702f3",
					"totalStaked()": "817b1cd2",
					"withdraw(uint256)": "2e1a7d4d"
				}
			},
			"storageLayout": {
				"storage": [
					{
						"astId": 10,
						"contract": "contracts/AbelStake.sol:AbelStaking",
						"label": "owner",
						"offset": 0,
						"slot": "0",
						"type": "t_address"
					},
					{
						"astId": 12,
						"contract": "contracts/AbelStake.sol:AbelStaking",
						"label": "duration",
						"offset": 0,
						"slot": "1",
						"type": "t_uint256"
					},
					{
						"astId": 14,
						"contract": "contracts/AbelStake.sol:AbelStaking",
						"label": "finishAt",
						"offset": 0,
						"slot": "2",
						"type": "t_uint256"
					},
					{
						"astId": 16,
						"contract": "contracts/AbelStake.sol:AbelStaking",
						"label": "updatedAt",
						"offset": 0,
						"slot": "3",
						"type": "t_uint256"
					},
					{
						"astId": 18,
						"contract": "contracts/AbelStake.sol:AbelStaking",
						"label": "rewardRate",
						"offset": 0,
						"slot": "4",
						"type": "t_uint256"
					},
					{
						"astId": 20,
						"contract": "contracts/AbelStake.sol:AbelStaking",
						"label": "rewardPerTokenStored",
						"offset": 0,
						"slot": "5",
						"type": "t_uint256"
					},
					{
						"astId": 24,
						"contract": "contracts/AbelStake.sol:AbelStaking",
						"label": "userRewardPerTokenPaid",
						"offset": 0,
						"slot": "6",
						"type": "t_mapping(t_address,t_uint256)"
					},
					{
						"astId": 28,
						"contract": "contracts/AbelStake.sol:AbelStaking",
						"label": "rewards",
						"offset": 0,
						"slot": "7",
						"type": "t_mapping(t_address,t_uint256)"
					},
					{
						"astId": 30,
						"contract": "contracts/AbelStake.sol:AbelStaking",
						"label": "totalStaked",
						"offset": 0,
						"slot": "8",
						"type": "t_uint256"
					},
					{
						"astId": 34,
						"contract": "contracts/AbelStake.sol:AbelStaking",
						"label": "balanceOf",
						"offset": 0,
						"slot": "9",
						"type": "t_mapping(t_address,t_uint256)"
					}
				],
				"types": {
					"t_address": {
						"encoding": "inplace",
						"label": "address",
						"numberOfBytes": "20"
					},
					"t_mapping(t_address,t_uint256)": {
						"encoding": "mapping",
						"key": "t_address",
						"label": "mapping(address => uint256)",
						"numberOfBytes": "32",
						"value": "t_uint256"
					},
					"t_uint256": {
						"encoding": "inplace",
						"label": "uint256",
						"numberOfBytes": "32"
					}
				}
			},
			"userdoc": {
				"kind": "user",
				"methods": {},
				"version": 1
			}
		}
	}
}