{
	"contracts/AbelStake.sol": {
		"AbelStaking": {
			"abi": [
				{
					"inputs": [
						{
							"internalType": "address",
							"name": "_stakingToken",
							"type": "address"
						},
						{
							"internalType": "address",
							"name": "_rewardToken",
							"type": "address"
						}
					],
					"stateMutability": "nonpayable",
					"type": "constructor"
				},
				{
					"inputs": [
						{
							"internalType": "address",
							"name": "_account",
							"type": "address"
						}
					],
					"name": "earned",
					"outputs": [
						{
							"internalType": "uint256",
							"name": "",
							"type": "uint256"
						}
					],
					"stateMutability": "view",
					"type": "function"
				},
				{
					"inputs": [],
					"name": "getReward",
					"outputs": [],
					"stateMutability": "nonpayable",
					"type": "function"
				},
				{
					"inputs": [],
					"name": "lastTimeRewardApplicable",
					"outputs": [
						{
							"internalType": "uint256",
							"name": "",
							"type": "uint256"
						}
					],
					"stateMutability": "view",
					"type": "function"
				},
				{
					"inputs": [
						{
							"internalType": "uint256",
							"name": "_amount",
							"type": "uint256"
						}
					],
					"name": "notifyRewardAmount",
					"outputs": [],
					"stateMutability": "nonpayable",
					"type": "function"
				},
				{
					"inputs": [],
					"name": "rewardPerToken",
					"outputs": [
						{
							"internalType": "uint256",
							"name": "",
							"type": "uint256"
						}
					],
					"stateMutability": "view",
					"type": "function"
				},
				{
					"inputs": [],
					"name": "rewardsToken",
					"outputs": [
						{
							"internalType": "contract IERC20",
							"name": "",
							"type": "address"
						}
					],
					"stateMutability": "view",
					"type": "function"
				},
				{
					"inputs": [
						{
							"internalType": "uint256",
							"name": "_duration",
							"type": "uint256"
						}
					],
					"name": "setRewardsDuration",
					"outputs": [],
					"stateMutability": "nonpayable",
					"type": "function"
				},
				{
					"inputs": [
						{
							"internalType": "uint256",
							"name": "_amount",
							"type": "uint256"
						}
					],
					"name": "stake",
					"outputs": [],
					"stateMutability": "nonpayable",
					"type": "function"
				},
				{
					"inputs": [],
					"name": "stakingToken",
					"outputs": [
						{
							"internalType": "contract IERC20",
							"name": "",
							"type": "address"
						}
					],
					"stateMutability": "view",
					"type": "function"
				},
				{
					"inputs": [],
					"name": "totalStaked",
					"outputs": [
						{
							"internalType": "uint256",
							"name": "",
							"type": "uint256"
						}
					],
					"stateMutability": "view",
					"type": "function"
				},
				{
					"inputs": [
						{
							"internalType": "uint256",
							"name": "_amount",
							"type": "uint256"
						}
					],
					"name": "withdraw",
					"outputs": [],
					"stateMutability": "nonpayable",
					"type": "function"
				}
			],
			"devdoc": {
				"kind": "dev",
				"methods": {},
				"version": 1
			},
			"evm": {
				"assembly": "    /* \"contracts/AbelStake.sol\":81:3563  contract AbelStaking {... */\n  mstore(0x40, 0xc0)\n    /* \"contracts/AbelStake.sol\":569:752  constructor(address _stakingToken, address _rewardToken) {... */\n  callvalue\n  dup1\n  iszero\n  tag_1\n  jumpi\n  0x00\n  dup1\n  revert\ntag_1:\n  pop\n  mload(0x40)\n  sub(codesize, bytecodeSize)\n  dup1\n  bytecodeSize\n  dup4\n  codecopy\n  dup2\n  dup2\n  add\n  0x40\n  mstore\n  0x40\n  dup2\n  lt\n  iszero\n  tag_2\n  jumpi\n  0x00\n  dup1\n  revert\ntag_2:\n  dup2\n  add\n  swap1\n  dup1\n  dup1\n  mload\n  swap1\n  0x20\n  add\n  swap1\n  swap3\n  swap2\n  swap1\n  dup1\n  mload\n  swap1\n  0x20\n  add\n  swap1\n  swap3\n  swap2\n  swap1\n  pop\n  pop\n  pop\n    /* \"contracts/AbelStake.sol\":644:654  msg.sender */\n  caller\n    /* \"contracts/AbelStake.sol\":636:641  owner */\n  0x00\n  dup1\n    /* \"contracts/AbelStake.sol\":636:654  owner = msg.sender */\n  0x0100\n  exp\n  dup2\n  sload\n  dup2\n  0xffffffffffffffffffffffffffffffffffffffff\n  mul\n  not\n  and\n  swap1\n  dup4\n  0xffffffffffffffffffffffffffffffffffffffff\n  and\n  mul\n  or\n  swap1\n  sstore\n  pop\n    /* \"contracts/AbelStake.sol\":686:699  _stakingToken */\n  dup2\n    /* \"contracts/AbelStake.sol\":664:700  stakingToken = IERC20(_stakingToken) */\n  0xffffffffffffffffffffffffffffffffffffffff\n  and\n  0x80\n  dup2\n  0xffffffffffffffffffffffffffffffffffffffff\n  and\n  0x60\n  shl\n  dup2\n  mstore\n  pop\n  pop\n    /* \"contracts/AbelStake.sol\":732:744  _rewardToken */\n  dup1\n    /* \"contracts/AbelStake.sol\":710:745  rewardsToken = IERC20(_rewardToken) */\n  0xffffffffffffffffffffffffffffffffffffffff\n  and\n  0xa0\n  dup2\n  0xffffffffffffffffffffffffffffffffffffffff\n  and\n  0x60\n  shl\n  dup2\n  mstore\n  pop\n  pop\n    /* \"contracts/AbelStake.sol\":569:752  constructor(address _stakingToken, address _rewardToken) {... */\n  pop\n  pop\n    /* \"contracts/AbelStake.sol\":81:3563  contract AbelStaking {... */\n  shr(0x60, mload(0x80))\n  shr(0x60, mload(0xa0))\n  codecopy(0x00, dataOffset(sub_0), dataSize(sub_0))\n  assignImmutable(\"0xe455bf8ea6e7463a1046a0b52804526e119b4bf5136279614e0b1e8e296a4e2d\")\n  assignImmutable(\"0x13600b294191fc92924bb3ce4b969c1e7e2bab8f4c93c3fc6d0a51733df3c060\")\n  return(0x00, dataSize(sub_0))\nstop\n\nsub_0: assembly {\n        /* \"contracts/AbelStake.sol\":81:3563  contract AbelStaking {... */\n      mstore(0x40, 0x80)\n      callvalue\n      dup1\n      iszero\n      tag_1\n      jumpi\n      0x00\n      dup1\n      revert\n    tag_1:\n      pop\n      jumpi(tag_2, lt(calldatasize, 0x04))\n      shr(0xe0, calldataload(0x00))\n      dup1\n      0x80faa57d\n      gt\n      tag_14\n      jumpi\n      dup1\n      0x80faa57d\n      eq\n      tag_8\n      jumpi\n      dup1\n      0x817b1cd2\n      eq\n      tag_9\n      jumpi\n      dup1\n      0xa694fc3a\n      eq\n      tag_10\n      jumpi\n      dup1\n      0xcc1a378f\n      eq\n      tag_11\n      jumpi\n      dup1\n      0xcd3daf9d\n      eq\n      tag_12\n      jumpi\n      dup1\n      0xd1af0c7d\n      eq\n      tag_13\n      jumpi\n      jump(tag_2)\n    tag_14:\n      dup1\n      0x8cc262\n      eq\n      tag_3\n      jumpi\n      dup1\n      0x2e1a7d4d\n      eq\n      tag_4\n      jumpi\n      dup1\n      0x3c6b16ab\n      eq\n      tag_5\n      jumpi\n      dup1\n      0x3d18b912\n      eq\n      tag_6\n      jumpi\n      dup1\n      0x72f702f3\n      eq\n      tag_7\n      jumpi\n    tag_2:\n      0x00\n      dup1\n      revert\n        /* \"contracts/AbelStake.sol\":2131:2362  function earned(address _account) public view returns (uint) {... */\n    tag_3:\n      tag_15\n      0x04\n      dup1\n      calldatasize\n      sub\n      0x20\n      dup2\n      lt\n      iszero\n      tag_16\n      jumpi\n      0x00\n      dup1\n      revert\n    tag_16:\n      dup2\n      add\n      swap1\n      dup1\n      dup1\n      calldataload\n      0xffffffffffffffffffffffffffffffffffffffff\n      and\n      swap1\n      0x20\n      add\n      swap1\n      swap3\n      swap2\n      swap1\n      pop\n      pop\n      pop\n      tag_17\n      jump\t// in\n    tag_15:\n      mload(0x40)\n      dup1\n      dup3\n      dup2\n      mstore\n      0x20\n      add\n      swap2\n      pop\n      pop\n      mload(0x40)\n      dup1\n      swap2\n      sub\n      swap1\n      return\n        /* \"contracts/AbelStake.sol\":1882:2125  function withdraw(uint _amount) external updateReward(msg.sender) {... */\n    tag_4:\n      tag_18\n      0x04\n      dup1\n      calldatasize\n      sub\n      0x20\n      dup2\n      lt\n      iszero\n      tag_19\n      jumpi\n      0x00\n      dup1\n      revert\n    tag_19:\n      dup2\n      add\n      swap1\n      dup1\n      dup1\n      calldataload\n      swap1\n      0x20\n      add\n      swap1\n      swap3\n      swap2\n      swap1\n      pop\n      pop\n      pop\n      tag_20\n      jump\t// in\n    tag_18:\n      stop\n        /* \"contracts/AbelStake.sol\":2801:3459  function notifyRewardAmount(... */\n    tag_5:\n      tag_21\n      0x04\n      dup1\n      calldatasize\n      sub\n      0x20\n      dup2\n      lt\n      iszero\n      tag_22\n      jumpi\n      0x00\n      dup1\n      revert\n    tag_22:\n      dup2\n      add\n      swap1\n      dup1\n      dup1\n      calldataload\n      swap1\n      0x20\n      add\n      swap1\n      swap3\n      swap2\n      swap1\n      pop\n      pop\n      pop\n      tag_23\n      jump\t// in\n    tag_21:\n      stop\n        /* \"contracts/AbelStake.sol\":2368:2601  function getReward() external updateReward(msg.sender) {... */\n    tag_6:\n      tag_24\n      tag_25\n      jump\t// in\n    tag_24:\n      stop\n        /* \"contracts/AbelStake.sol\":108:144  IERC20 public immutable stakingToken */\n    tag_7:\n      tag_26\n      tag_27\n      jump\t// in\n    tag_26:\n      mload(0x40)\n      dup1\n      dup3\n      0xffffffffffffffffffffffffffffffffffffffff\n      and\n      dup2\n      mstore\n      0x20\n      add\n      swap2\n      pop\n      pop\n      mload(0x40)\n      dup1\n      swap2\n      sub\n      swap1\n      return\n        /* \"contracts/AbelStake.sol\":1191:1309  function lastTimeRewardApplicable() public view returns (uint) {... */\n    tag_8:\n      tag_28\n      tag_29\n      jump\t// in\n    tag_28:\n      mload(0x40)\n      dup1\n      dup3\n      dup2\n      mstore\n      0x20\n      add\n      swap2\n      pop\n      pop\n      mload(0x40)\n      dup1\n      swap2\n      sub\n      swap1\n      return\n        /* \"contracts/AbelStake.sol\":462:485  uint public totalStaked */\n    tag_9:\n      tag_30\n      tag_31\n      jump\t// in\n    tag_30:\n      mload(0x40)\n      dup1\n      dup3\n      dup2\n      mstore\n      0x20\n      add\n      swap2\n      pop\n      pop\n      mload(0x40)\n      dup1\n      swap2\n      sub\n      swap1\n      return\n        /* \"contracts/AbelStake.sol\":1617:1876  function stake(uint _amount) external updateReward(msg.sender) {... */\n    tag_10:\n      tag_32\n      0x04\n      dup1\n      calldatasize\n      sub\n      0x20\n      dup2\n      lt\n      iszero\n      tag_33\n      jumpi\n      0x00\n      dup1\n      revert\n    tag_33:\n      dup2\n      add\n      swap1\n      dup1\n      dup1\n      calldataload\n      swap1\n      0x20\n      add\n      swap1\n      swap3\n      swap2\n      swap1\n      pop\n      pop\n      pop\n      tag_34\n      jump\t// in\n    tag_32:\n      stop\n        /* \"contracts/AbelStake.sol\":2607:2795  function setRewardsDuration(uint _duration) external {... */\n    tag_11:\n      tag_35\n      0x04\n      dup1\n      calldatasize\n      sub\n      0x20\n      dup2\n      lt\n      iszero\n      tag_36\n      jumpi\n      0x00\n      dup1\n      revert\n    tag_36:\n      dup2\n      add\n      swap1\n      dup1\n      dup1\n      calldataload\n      swap1\n      0x20\n      add\n      swap1\n      swap3\n      swap2\n      swap1\n      pop\n      pop\n      pop\n      tag_37\n      jump\t// in\n    tag_35:\n      stop\n        /* \"contracts/AbelStake.sol\":1315:1611  function rewardPerToken() public view returns (uint) {... */\n    tag_12:\n      tag_38\n      tag_39\n      jump\t// in\n    tag_38:\n      mload(0x40)\n      dup1\n      dup3\n      dup2\n      mstore\n      0x20\n      add\n      swap2\n      pop\n      pop\n      mload(0x40)\n      dup1\n      swap2\n      sub\n      swap1\n      return\n        /* \"contracts/AbelStake.sol\":150:186  IERC20 public immutable rewardsToken */\n    tag_13:\n      tag_40\n      tag_41\n      jump\t// in\n    tag_40:\n      mload(0x40)\n      dup1\n      dup3\n      0xffffffffffffffffffffffffffffffffffffffff\n      and\n      dup2\n      mstore\n      0x20\n      add\n      swap2\n      pop\n      pop\n      mload(0x40)\n      dup1\n      swap2\n      sub\n      swap1\n      return\n        /* \"contracts/AbelStake.sol\":2131:2362  function earned(address _account) public view returns (uint) {... */\n    tag_17:\n        /* \"contracts/AbelStake.sol\":2186:2190  uint */\n      0x00\n        /* \"contracts/AbelStake.sol\":2338:2345  rewards */\n      0x07\n        /* \"contracts/AbelStake.sol\":2338:2355  rewards[_account] */\n      0x00\n        /* \"contracts/AbelStake.sol\":2346:2354  _account */\n      dup4\n        /* \"contracts/AbelStake.sol\":2338:2355  rewards[_account] */\n      0xffffffffffffffffffffffffffffffffffffffff\n      and\n      0xffffffffffffffffffffffffffffffffffffffff\n      and\n      dup2\n      mstore\n      0x20\n      add\n      swap1\n      dup2\n      mstore\n      0x20\n      add\n      0x00\n      keccak256\n      sload\n        /* \"contracts/AbelStake.sol\":2318:2322  1e18 */\n      0x0de0b6b3a7640000\n        /* \"contracts/AbelStake.sol\":2281:2303  userRewardPerTokenPaid */\n      0x06\n        /* \"contracts/AbelStake.sol\":2281:2313  userRewardPerTokenPaid[_account] */\n      0x00\n        /* \"contracts/AbelStake.sol\":2304:2312  _account */\n      dup6\n        /* \"contracts/AbelStake.sol\":2281:2313  userRewardPerTokenPaid[_account] */\n      0xffffffffffffffffffffffffffffffffffffffff\n      and\n      0xffffffffffffffffffffffffffffffffffffffff\n      and\n      dup2\n      mstore\n      0x20\n      add\n      swap1\n      dup2\n      mstore\n      0x20\n      add\n      0x00\n      keccak256\n      sload\n        /* \"contracts/AbelStake.sol\":2262:2278  rewardPerToken() */\n      tag_43\n        /* \"contracts/AbelStake.sol\":2262:2276  rewardPerToken */\n      tag_39\n        /* \"contracts/AbelStake.sol\":2262:2278  rewardPerToken() */\n      jump\t// in\n    tag_43:\n        /* \"contracts/AbelStake.sol\":2262:2313  rewardPerToken() - userRewardPerTokenPaid[_account] */\n      sub\n        /* \"contracts/AbelStake.sol\":2223:2232  balanceOf */\n      0x09\n        /* \"contracts/AbelStake.sol\":2223:2242  balanceOf[_account] */\n      0x00\n        /* \"contracts/AbelStake.sol\":2233:2241  _account */\n      dup7\n        /* \"contracts/AbelStake.sol\":2223:2242  balanceOf[_account] */\n      0xffffffffffffffffffffffffffffffffffffffff\n      and\n      0xffffffffffffffffffffffffffffffffffffffff\n      and\n      dup2\n      mstore\n      0x20\n      add\n      swap1\n      dup2\n      mstore\n      0x20\n      add\n      0x00\n      keccak256\n      sload\n        /* \"contracts/AbelStake.sol\":2223:2314  balanceOf[_account] *... */\n      mul\n        /* \"contracts/AbelStake.sol\":2222:2322  (balanceOf[_account] *... */\n      dup2\n      tag_44\n      jumpi\n      invalid\n    tag_44:\n      div\n        /* \"contracts/AbelStake.sol\":2221:2355  ((balanceOf[_account] *... */\n      add\n        /* \"contracts/AbelStake.sol\":2202:2355  return... */\n      swap1\n      pop\n        /* \"contracts/AbelStake.sol\":2131:2362  function earned(address _account) public view returns (uint) {... */\n      swap2\n      swap1\n      pop\n      jump\t// out\n        /* \"contracts/AbelStake.sol\":1882:2125  function withdraw(uint _amount) external updateReward(msg.sender) {... */\n    tag_20:\n        /* \"contracts/AbelStake.sol\":1936:1946  msg.sender */\n      caller\n        /* \"contracts/AbelStake.sol\":934:950  rewardPerToken() */\n      tag_46\n        /* \"contracts/AbelStake.sol\":934:948  rewardPerToken */\n      tag_39\n        /* \"contracts/AbelStake.sol\":934:950  rewardPerToken() */\n      jump\t// in\n    tag_46:\n        /* \"contracts/AbelStake.sol\":911:931  rewardPerTokenStored */\n      0x05\n        /* \"contracts/AbelStake.sol\":911:950  rewardPerTokenStored = rewardPerToken() */\n      dup2\n      swap1\n      sstore\n      pop\n        /* \"contracts/AbelStake.sol\":972:998  lastTimeRewardApplicable() */\n      tag_47\n        /* \"contracts/AbelStake.sol\":972:996  lastTimeRewardApplicable */\n      tag_29\n        /* \"contracts/AbelStake.sol\":972:998  lastTimeRewardApplicable() */\n      jump\t// in\n    tag_47:\n        /* \"contracts/AbelStake.sol\":960:969  updatedAt */\n      0x03\n        /* \"contracts/AbelStake.sol\":960:998  updatedAt = lastTimeRewardApplicable() */\n      dup2\n      swap1\n      sstore\n      pop\n        /* \"contracts/AbelStake.sol\":1033:1034  0 */\n      0x00\n        /* \"contracts/AbelStake.sol\":1013:1035  _account != address(0) */\n      0xffffffffffffffffffffffffffffffffffffffff\n      and\n        /* \"contracts/AbelStake.sol\":1013:1021  _account */\n      dup2\n        /* \"contracts/AbelStake.sol\":1013:1035  _account != address(0) */\n      0xffffffffffffffffffffffffffffffffffffffff\n      and\n      eq\n        /* \"contracts/AbelStake.sol\":1009:1167  if (_account != address(0)) {... */\n      tag_48\n      jumpi\n        /* \"contracts/AbelStake.sol\":1071:1087  earned(_account) */\n      tag_49\n        /* \"contracts/AbelStake.sol\":1078:1086  _account */\n      dup2\n        /* \"contracts/AbelStake.sol\":1071:1077  earned */\n      tag_17\n        /* \"contracts/AbelStake.sol\":1071:1087  earned(_account) */\n      jump\t// in\n    tag_49:\n        /* \"contracts/AbelStake.sol\":1051:1058  rewards */\n      0x07\n        /* \"contracts/AbelStake.sol\":1051:1068  rewards[_account] */\n      0x00\n        /* \"contracts/AbelStake.sol\":1059:1067  _account */\n      dup4\n        /* \"contracts/AbelStake.sol\":1051:1068  rewards[_account] */\n      0xffffffffffffffffffffffffffffffffffffffff\n      and\n      0xffffffffffffffffffffffffffffffffffffffff\n      and\n      dup2\n      mstore\n      0x20\n      add\n      swap1\n      dup2\n      mstore\n      0x20\n      add\n      0x00\n      keccak256\n        /* \"contracts/AbelStake.sol\":1051:1087  rewards[_account] = earned(_account) */\n      dup2\n      swap1\n      sstore\n      pop\n        /* \"contracts/AbelStake.sol\":1136:1156  rewardPerTokenStored */\n      sload(0x05)\n        /* \"contracts/AbelStake.sol\":1101:1123  userRewardPerTokenPaid */\n      0x06\n        /* \"contracts/AbelStake.sol\":1101:1133  userRewardPerTokenPaid[_account] */\n      0x00\n        /* \"contracts/AbelStake.sol\":1124:1132  _account */\n      dup4\n        /* \"contracts/AbelStake.sol\":1101:1133  userRewardPerTokenPaid[_account] */\n      0xffffffffffffffffffffffffffffffffffffffff\n      and\n      0xffffffffffffffffffffffffffffffffffffffff\n      and\n      dup2\n      mstore\n      0x20\n      add\n      swap1\n      dup2\n      mstore\n      0x20\n      add\n      0x00\n      keccak256\n        /* \"contracts/AbelStake.sol\":1101:1156  userRewardPerTokenPaid[_account] = rewardPerTokenStored */\n      dup2\n      swap1\n      sstore\n      pop\n        /* \"contracts/AbelStake.sol\":1009:1167  if (_account != address(0)) {... */\n    tag_48:\n        /* \"contracts/AbelStake.sol\":1976:1977  0 */\n      0x00\n        /* \"contracts/AbelStake.sol\":1966:1973  _amount */\n      dup3\n        /* \"contracts/AbelStake.sol\":1966:1977  _amount > 0 */\n      gt\n        /* \"contracts/AbelStake.sol\":1958:1992  require(_amount > 0, \"amount = 0\") */\n      tag_51\n      jumpi\n      mload(0x40)\n      0x08c379a000000000000000000000000000000000000000000000000000000000\n      dup2\n      mstore\n      0x04\n      add\n      dup1\n      dup1\n      0x20\n      add\n      dup3\n      dup2\n      sub\n      dup3\n      mstore\n      0x0a\n      dup2\n      mstore\n      0x20\n      add\n      dup1\n      0x616d6f756e74203d203000000000000000000000000000000000000000000000\n      dup2\n      mstore\n      pop\n      0x20\n      add\n      swap2\n      pop\n      pop\n      mload(0x40)\n      dup1\n      swap2\n      sub\n      swap1\n      revert\n    tag_51:\n        /* \"contracts/AbelStake.sol\":2027:2034  _amount */\n      dup2\n        /* \"contracts/AbelStake.sol\":2002:2011  balanceOf */\n      0x09\n        /* \"contracts/AbelStake.sol\":2002:2023  balanceOf[msg.sender] */\n      0x00\n        /* \"contracts/AbelStake.sol\":2012:2022  msg.sender */\n      caller\n        /* \"contracts/AbelStake.sol\":2002:2023  balanceOf[msg.sender] */\n      0xffffffffffffffffffffffffffffffffffffffff\n      and\n      0xffffffffffffffffffffffffffffffffffffffff\n      and\n      dup2\n      mstore\n      0x20\n      add\n      swap1\n      dup2\n      mstore\n      0x20\n      add\n      0x00\n      keccak256\n      0x00\n        /* \"contracts/AbelStake.sol\":2002:2034  balanceOf[msg.sender] -= _amount */\n      dup3\n      dup3\n      sload\n      sub\n      swap3\n      pop\n      pop\n      dup2\n      swap1\n      sstore\n      pop\n        /* \"contracts/AbelStake.sol\":2059:2066  _amount */\n      dup2\n        /* \"contracts/AbelStake.sol\":2044:2055  totalStaked */\n      0x08\n      0x00\n        /* \"contracts/AbelStake.sol\":2044:2066  totalStaked -= _amount */\n      dup3\n      dup3\n      sload\n      sub\n      swap3\n      pop\n      pop\n      dup2\n      swap1\n      sstore\n      pop\n        /* \"contracts/AbelStake.sol\":2076:2088  stakingToken */\n      immutable(\"0x13600b294191fc92924bb3ce4b969c1e7e2bab8f4c93c3fc6d0a51733df3c060\")\n        /* \"contracts/AbelStake.sol\":2076:2097  stakingToken.transfer */\n      0xffffffffffffffffffffffffffffffffffffffff\n      and\n      0xa9059cbb\n        /* \"contracts/AbelStake.sol\":2098:2108  msg.sender */\n      caller\n        /* \"contracts/AbelStake.sol\":2110:2117  _amount */\n      dup5\n        /* \"contracts/AbelStake.sol\":2076:2118  stakingToken.transfer(msg.sender, _amount) */\n      mload(0x40)\n      dup4\n      0xffffffff\n      and\n      0xe0\n      shl\n      dup2\n      mstore\n      0x04\n      add\n      dup1\n      dup4\n      0xffffffffffffffffffffffffffffffffffffffff\n      and\n      dup2\n      mstore\n      0x20\n      add\n      dup3\n      dup2\n      mstore\n      0x20\n      add\n      swap3\n      pop\n      pop\n      pop\n      0x20\n      mload(0x40)\n      dup1\n      dup4\n      sub\n      dup2\n      0x00\n      dup8\n      dup1\n      extcodesize\n      iszero\n      dup1\n      iszero\n      tag_52\n      jumpi\n      0x00\n      dup1\n      revert\n    tag_52:\n      pop\n      gas\n      call\n      iszero\n      dup1\n      iszero\n      tag_54\n      jumpi\n      returndatasize\n      0x00\n      dup1\n      returndatacopy\n      revert(0x00, returndatasize)\n    tag_54:\n      pop\n      pop\n      pop\n      pop\n      mload(0x40)\n      returndatasize\n      0x20\n      dup2\n      lt\n      iszero\n      tag_55\n      jumpi\n      0x00\n      dup1\n      revert\n    tag_55:\n      dup2\n      add\n      swap1\n      dup1\n      dup1\n      mload\n      swap1\n      0x20\n      add\n      swap1\n      swap3\n      swap2\n      swap1\n      pop\n      pop\n      pop\n      pop\n        /* \"contracts/AbelStake.sol\":1882:2125  function withdraw(uint _amount) external updateReward(msg.sender) {... */\n      pop\n      pop\n      jump\t// out\n        /* \"contracts/AbelStake.sol\":2801:3459  function notifyRewardAmount(... */\n    tag_23:\n        /* \"contracts/AbelStake.sol\":2887:2888  0 */\n      0x00\n        /* \"contracts/AbelStake.sol\":934:950  rewardPerToken() */\n      tag_57\n        /* \"contracts/AbelStake.sol\":934:948  rewardPerToken */\n      tag_39\n        /* \"contracts/AbelStake.sol\":934:950  rewardPerToken() */\n      jump\t// in\n    tag_57:\n        /* \"contracts/AbelStake.sol\":911:931  rewardPerTokenStored */\n      0x05\n        /* \"contracts/AbelStake.sol\":911:950  rewardPerTokenStored = rewardPerToken() */\n      dup2\n      swap1\n      sstore\n      pop\n        /* \"contracts/AbelStake.sol\":972:998  lastTimeRewardApplicable() */\n      tag_58\n        /* \"contracts/AbelStake.sol\":972:996  lastTimeRewardApplicable */\n      tag_29\n        /* \"contracts/AbelStake.sol\":972:998  lastTimeRewardApplicable() */\n      jump\t// in\n    tag_58:\n        /* \"contracts/AbelStake.sol\":960:969  updatedAt */\n      0x03\n        /* \"contracts/AbelStake.sol\":960:998  updatedAt = lastTimeRewardApplicable() */\n      dup2\n      swap1\n      sstore\n      pop\n        /* \"contracts/AbelStake.sol\":1033:1034  0 */\n      0x00\n        /* \"contracts/AbelStake.sol\":1013:1035  _account != address(0) */\n      0xffffffffffffffffffffffffffffffffffffffff\n      and\n        /* \"contracts/AbelStake.sol\":1013:1021  _account */\n      dup2\n        /* \"contracts/AbelStake.sol\":1013:1035  _account != address(0) */\n      0xffffffffffffffffffffffffffffffffffffffff\n      and\n      eq\n        /* \"contracts/AbelStake.sol\":1009:1167  if (_account != address(0)) {... */\n      tag_59\n      jumpi\n        /* \"contracts/AbelStake.sol\":1071:1087  earned(_account) */\n      tag_60\n        /* \"contracts/AbelStake.sol\":1078:1086  _account */\n      dup2\n        /* \"contracts/AbelStake.sol\":1071:1077  earned */\n      tag_17\n        /* \"contracts/AbelStake.sol\":1071:1087  earned(_account) */\n      jump\t// in\n    tag_60:\n        /* \"contracts/AbelStake.sol\":1051:1058  rewards */\n      0x07\n        /* \"contracts/AbelStake.sol\":1051:1068  rewards[_account] */\n      0x00\n        /* \"contracts/AbelStake.sol\":1059:1067  _account */\n      dup4\n        /* \"contracts/AbelStake.sol\":1051:1068  rewards[_account] */\n      0xffffffffffffffffffffffffffffffffffffffff\n      and\n      0xffffffffffffffffffffffffffffffffffffffff\n      and\n      dup2\n      mstore\n      0x20\n      add\n      swap1\n      dup2\n      mstore\n      0x20\n      add\n      0x00\n      keccak256\n        /* \"contracts/AbelStake.sol\":1051:1087  rewards[_account] = earned(_account) */\n      dup2\n      swap1\n      sstore\n      pop\n        /* \"contracts/AbelStake.sol\":1136:1156  rewardPerTokenStored */\n      sload(0x05)\n        /* \"contracts/AbelStake.sol\":1101:1123  userRewardPerTokenPaid */\n      0x06\n        /* \"contracts/AbelStake.sol\":1101:1133  userRewardPerTokenPaid[_account] */\n      0x00\n        /* \"contracts/AbelStake.sol\":1124:1132  _account */\n      dup4\n        /* \"contracts/AbelStake.sol\":1101:1133  userRewardPerTokenPaid[_account] */\n      0xffffffffffffffffffffffffffffffffffffffff\n      and\n      0xffffffffffffffffffffffffffffffffffffffff\n      and\n      dup2\n      mstore\n      0x20\n      add\n      swap1\n      dup2\n      mstore\n      0x20\n      add\n      0x00\n      keccak256\n        /* \"contracts/AbelStake.sol\":1101:1156  userRewardPerTokenPaid[_account] = rewardPerTokenStored */\n      dup2\n      swap1\n      sstore\n      pop\n        /* \"contracts/AbelStake.sol\":1009:1167  if (_account != address(0)) {... */\n    tag_59:\n        /* \"contracts/AbelStake.sol\":2901:2912  onlyOwner() */\n      tag_62\n        /* \"contracts/AbelStake.sol\":2901:2910  onlyOwner */\n      tag_63\n        /* \"contracts/AbelStake.sol\":2901:2912  onlyOwner() */\n      jump\t// in\n    tag_62:\n        /* \"contracts/AbelStake.sol\":2945:2953  finishAt */\n      sload(0x02)\n        /* \"contracts/AbelStake.sol\":2926:2941  block.timestamp */\n      timestamp\n        /* \"contracts/AbelStake.sol\":2926:2953  block.timestamp >= finishAt */\n      lt\n        /* \"contracts/AbelStake.sol\":2922:3173  if (block.timestamp >= finishAt) {... */\n      tag_64\n      jumpi\n        /* \"contracts/AbelStake.sol\":2992:3000  duration */\n      sload(0x01)\n        /* \"contracts/AbelStake.sol\":2982:2989  _amount */\n      dup3\n        /* \"contracts/AbelStake.sol\":2982:3000  _amount / duration */\n      dup2\n      tag_65\n      jumpi\n      invalid\n    tag_65:\n      div\n        /* \"contracts/AbelStake.sol\":2969:2979  rewardRate */\n      0x04\n        /* \"contracts/AbelStake.sol\":2969:3000  rewardRate = _amount / duration */\n      dup2\n      swap1\n      sstore\n      pop\n        /* \"contracts/AbelStake.sol\":2922:3173  if (block.timestamp >= finishAt) {... */\n      jump(tag_66)\n    tag_64:\n        /* \"contracts/AbelStake.sol\":3031:3052  uint remainingRewards */\n      0x00\n        /* \"contracts/AbelStake.sol\":3086:3096  rewardRate */\n      sload(0x04)\n        /* \"contracts/AbelStake.sol\":3067:3082  block.timestamp */\n      timestamp\n        /* \"contracts/AbelStake.sol\":3056:3064  finishAt */\n      sload(0x02)\n        /* \"contracts/AbelStake.sol\":3056:3082  finishAt - block.timestamp */\n      sub\n        /* \"contracts/AbelStake.sol\":3055:3096  (finishAt - block.timestamp) * rewardRate */\n      mul\n        /* \"contracts/AbelStake.sol\":3031:3096  uint remainingRewards = (finishAt - block.timestamp) * rewardRate */\n      swap1\n      pop\n        /* \"contracts/AbelStake.sol\":3154:3162  duration */\n      sload(0x01)\n        /* \"contracts/AbelStake.sol\":3134:3150  remainingRewards */\n      dup2\n        /* \"contracts/AbelStake.sol\":3124:3131  _amount */\n      dup5\n        /* \"contracts/AbelStake.sol\":3124:3150  _amount + remainingRewards */\n      add\n        /* \"contracts/AbelStake.sol\":3123:3162  (_amount + remainingRewards) / duration */\n      dup2\n      tag_67\n      jumpi\n      invalid\n    tag_67:\n      div\n        /* \"contracts/AbelStake.sol\":3110:3120  rewardRate */\n      0x04\n        /* \"contracts/AbelStake.sol\":3110:3162  rewardRate = (_amount + remainingRewards) / duration */\n      dup2\n      swap1\n      sstore\n      pop\n        /* \"contracts/AbelStake.sol\":2922:3173  if (block.timestamp >= finishAt) {... */\n      pop\n    tag_66:\n        /* \"contracts/AbelStake.sol\":3204:3205  0 */\n      0x00\n        /* \"contracts/AbelStake.sol\":3191:3201  rewardRate */\n      sload(0x04)\n        /* \"contracts/AbelStake.sol\":3191:3205  rewardRate > 0 */\n      gt\n        /* \"contracts/AbelStake.sol\":3183:3225  require(rewardRate > 0, \"reward rate = 0\") */\n      tag_68\n      jumpi\n      mload(0x40)\n      0x08c379a000000000000000000000000000000000000000000000000000000000\n      dup2\n      mstore\n      0x04\n      add\n      dup1\n      dup1\n      0x20\n      add\n      dup3\n      dup2\n      sub\n      dup3\n      mstore\n      0x0f\n      dup2\n      mstore\n      0x20\n      add\n      dup1\n      0x7265776172642072617465203d20300000000000000000000000000000000000\n      dup2\n      mstore\n      pop\n      0x20\n      add\n      swap2\n      pop\n      pop\n      mload(0x40)\n      dup1\n      swap2\n      sub\n      swap1\n      revert\n    tag_68:\n        /* \"contracts/AbelStake.sol\":3281:3293  rewardsToken */\n      immutable(\"0xe455bf8ea6e7463a1046a0b52804526e119b4bf5136279614e0b1e8e296a4e2d\")\n        /* \"contracts/AbelStake.sol\":3281:3303  rewardsToken.balanceOf */\n      0xffffffffffffffffffffffffffffffffffffffff\n      and\n      0x70a08231\n        /* \"contracts/AbelStake.sol\":3312:3316  this */\n      address\n        /* \"contracts/AbelStake.sol\":3281:3318  rewardsToken.balanceOf(address(this)) */\n      mload(0x40)\n      dup3\n      0xffffffff\n      and\n      0xe0\n      shl\n      dup2\n      mstore\n      0x04\n      add\n      dup1\n      dup3\n      0xffffffffffffffffffffffffffffffffffffffff\n      and\n      dup2\n      mstore\n      0x20\n      add\n      swap2\n      pop\n      pop\n      0x20\n      mload(0x40)\n      dup1\n      dup4\n      sub\n      dup2\n      dup7\n      dup1\n      extcodesize\n      iszero\n      dup1\n      iszero\n      tag_69\n      jumpi\n      0x00\n      dup1\n      revert\n    tag_69:\n      pop\n      gas\n      staticcall\n      iszero\n      dup1\n      iszero\n      tag_71\n      jumpi\n      returndatasize\n      0x00\n      dup1\n      returndatacopy\n      revert(0x00, returndatasize)\n    tag_71:\n      pop\n      pop\n      pop\n      pop\n      mload(0x40)\n      returndatasize\n      0x20\n      dup2\n      lt\n      iszero\n      tag_72\n      jumpi\n      0x00\n      dup1\n      revert\n    tag_72:\n      dup2\n      add\n      swap1\n      dup1\n      dup1\n      mload\n      swap1\n      0x20\n      add\n      swap1\n      swap3\n      swap2\n      swap1\n      pop\n      pop\n      pop\n        /* \"contracts/AbelStake.sol\":3269:3277  duration */\n      sload(0x01)\n        /* \"contracts/AbelStake.sol\":3256:3266  rewardRate */\n      sload(0x04)\n        /* \"contracts/AbelStake.sol\":3256:3277  rewardRate * duration */\n      mul\n        /* \"contracts/AbelStake.sol\":3256:3318  rewardRate * duration <= rewardsToken.balanceOf(address(this)) */\n      gt\n      iszero\n        /* \"contracts/AbelStake.sol\":3235:3367  require(... */\n      tag_73\n      jumpi\n      mload(0x40)\n      0x08c379a000000000000000000000000000000000000000000000000000000000\n      dup2\n      mstore\n      0x04\n      add\n      dup1\n      dup1\n      0x20\n      add\n      dup3\n      dup2\n      sub\n      dup3\n      mstore\n      0x17\n      dup2\n      mstore\n      0x20\n      add\n      dup1\n      0x72657761726420616d6f756e74203e2062616c616e6365000000000000000000\n      dup2\n      mstore\n      pop\n      0x20\n      add\n      swap2\n      pop\n      pop\n      mload(0x40)\n      dup1\n      swap2\n      sub\n      swap1\n      revert\n    tag_73:\n        /* \"contracts/AbelStake.sol\":3407:3415  duration */\n      sload(0x01)\n        /* \"contracts/AbelStake.sol\":3389:3404  block.timestamp */\n      timestamp\n        /* \"contracts/AbelStake.sol\":3389:3415  block.timestamp + duration */\n      add\n        /* \"contracts/AbelStake.sol\":3378:3386  finishAt */\n      0x02\n        /* \"contracts/AbelStake.sol\":3378:3415  finishAt = block.timestamp + duration */\n      dup2\n      swap1\n      sstore\n      pop\n        /* \"contracts/AbelStake.sol\":3437:3452  block.timestamp */\n      timestamp\n        /* \"contracts/AbelStake.sol\":3425:3434  updatedAt */\n      0x03\n        /* \"contracts/AbelStake.sol\":3425:3452  updatedAt = block.timestamp */\n      dup2\n      swap1\n      sstore\n      pop\n        /* \"contracts/AbelStake.sol\":2801:3459  function notifyRewardAmount(... */\n      pop\n      pop\n      jump\t// out\n        /* \"contracts/AbelStake.sol\":2368:2601  function getReward() external updateReward(msg.sender) {... */\n    tag_25:\n        /* \"contracts/AbelStake.sol\":2411:2421  msg.sender */\n      caller\n        /* \"contracts/AbelStake.sol\":934:950  rewardPerToken() */\n      tag_75\n        /* \"contracts/AbelStake.sol\":934:948  rewardPerToken */\n      tag_39\n        /* \"contracts/AbelStake.sol\":934:950  rewardPerToken() */\n      jump\t// in\n    tag_75:\n        /* \"contracts/AbelStake.sol\":911:931  rewardPerTokenStored */\n      0x05\n        /* \"contracts/AbelStake.sol\":911:950  rewardPerTokenStored = rewardPerToken() */\n      dup2\n      swap1\n      sstore\n      pop\n        /* \"contracts/AbelStake.sol\":972:998  lastTimeRewardApplicable() */\n      tag_76\n        /* \"contracts/AbelStake.sol\":972:996  lastTimeRewardApplicable */\n      tag_29\n        /* \"contracts/AbelStake.sol\":972:998  lastTimeRewardApplicable() */\n      jump\t// in\n    tag_76:\n        /* \"contracts/AbelStake.sol\":960:969  updatedAt */\n      0x03\n        /* \"contracts/AbelStake.sol\":960:998  updatedAt = lastTimeRewardApplicable() */\n      dup2\n      swap1\n      sstore\n      pop\n        /* \"contracts/AbelStake.sol\":1033:1034  0 */\n      0x00\n        /* \"contracts/AbelStake.sol\":1013:1035  _account != address(0) */\n      0xffffffffffffffffffffffffffffffffffffffff\n      and\n        /* \"contracts/AbelStake.sol\":1013:1021  _account */\n      dup2\n        /* \"contracts/AbelStake.sol\":1013:1035  _account != address(0) */\n      0xffffffffffffffffffffffffffffffffffffffff\n      and\n      eq\n        /* \"contracts/AbelStake.sol\":1009:1167  if (_account != address(0)) {... */\n      tag_77\n      jumpi\n        /* \"contracts/AbelStake.sol\":1071:1087  earned(_account) */\n      tag_78\n        /* \"contracts/AbelStake.sol\":1078:1086  _account */\n      dup2\n        /* \"contracts/AbelStake.sol\":1071:1077  earned */\n      tag_17\n        /* \"contracts/AbelStake.sol\":1071:1087  earned(_account) */\n      jump\t// in\n    tag_78:\n        /* \"contracts/AbelStake.sol\":1051:1058  rewards */\n      0x07\n        /* \"contracts/AbelStake.sol\":1051:1068  rewards[_account] */\n      0x00\n        /* \"contracts/AbelStake.sol\":1059:1067  _account */\n      dup4\n        /* \"contracts/AbelStake.sol\":1051:1068  rewards[_account] */\n      0xffffffffffffffffffffffffffffffffffffffff\n      and\n      0xffffffffffffffffffffffffffffffffffffffff\n      and\n      dup2\n      mstore\n      0x20\n      add\n      swap1\n      dup2\n      mstore\n      0x20\n      add\n      0x00\n      keccak256\n        /* \"contracts/AbelStake.sol\":1051:1087  rewards[_account] = earned(_account) */\n      dup2\n      swap1\n      sstore\n      pop\n        /* \"contracts/AbelStake.sol\":1136:1156  rewardPerTokenStored */\n      sload(0x05)\n        /* \"contracts/AbelStake.sol\":1101:1123  userRewardPerTokenPaid */\n      0x06\n        /* \"contracts/AbelStake.sol\":1101:1133  userRewardPerTokenPaid[_account] */\n      0x00\n        /* \"contracts/AbelStake.sol\":1124:1132  _account */\n      dup4\n        /* \"contracts/AbelStake.sol\":1101:1133  userRewardPerTokenPaid[_account] */\n      0xffffffffffffffffffffffffffffffffffffffff\n      and\n      0xffffffffffffffffffffffffffffffffffffffff\n      and\n      dup2\n      mstore\n      0x20\n      add\n      swap1\n      dup2\n      mstore\n      0x20\n      add\n      0x00\n      keccak256\n        /* \"contracts/AbelStake.sol\":1101:1156  userRewardPerTokenPaid[_account] = rewardPerTokenStored */\n      dup2\n      swap1\n      sstore\n      pop\n        /* \"contracts/AbelStake.sol\":1009:1167  if (_account != address(0)) {... */\n    tag_77:\n        /* \"contracts/AbelStake.sol\":2433:2444  uint reward */\n      0x00\n        /* \"contracts/AbelStake.sol\":2447:2454  rewards */\n      0x07\n        /* \"contracts/AbelStake.sol\":2447:2466  rewards[msg.sender] */\n      0x00\n        /* \"contracts/AbelStake.sol\":2455:2465  msg.sender */\n      caller\n        /* \"contracts/AbelStake.sol\":2447:2466  rewards[msg.sender] */\n      0xffffffffffffffffffffffffffffffffffffffff\n      and\n      0xffffffffffffffffffffffffffffffffffffffff\n      and\n      dup2\n      mstore\n      0x20\n      add\n      swap1\n      dup2\n      mstore\n      0x20\n      add\n      0x00\n      keccak256\n      sload\n        /* \"contracts/AbelStake.sol\":2433:2466  uint reward = rewards[msg.sender] */\n      swap1\n      pop\n        /* \"contracts/AbelStake.sol\":2489:2490  0 */\n      0x00\n        /* \"contracts/AbelStake.sol\":2480:2486  reward */\n      dup2\n        /* \"contracts/AbelStake.sol\":2480:2490  reward > 0 */\n      gt\n        /* \"contracts/AbelStake.sol\":2476:2595  if (reward > 0) {... */\n      iszero\n      tag_80\n      jumpi\n        /* \"contracts/AbelStake.sol\":2528:2529  0 */\n      0x00\n        /* \"contracts/AbelStake.sol\":2506:2513  rewards */\n      0x07\n        /* \"contracts/AbelStake.sol\":2506:2525  rewards[msg.sender] */\n      0x00\n        /* \"contracts/AbelStake.sol\":2514:2524  msg.sender */\n      caller\n        /* \"contracts/AbelStake.sol\":2506:2525  rewards[msg.sender] */\n      0xffffffffffffffffffffffffffffffffffffffff\n      and\n      0xffffffffffffffffffffffffffffffffffffffff\n      and\n      dup2\n      mstore\n      0x20\n      add\n      swap1\n      dup2\n      mstore\n      0x20\n      add\n      0x00\n      keccak256\n        /* \"contracts/AbelStake.sol\":2506:2529  rewards[msg.sender] = 0 */\n      dup2\n      swap1\n      sstore\n      pop\n        /* \"contracts/AbelStake.sol\":2543:2555  rewardsToken */\n      immutable(\"0xe455bf8ea6e7463a1046a0b52804526e119b4bf5136279614e0b1e8e296a4e2d\")\n        /* \"contracts/AbelStake.sol\":2543:2564  rewardsToken.transfer */\n      0xffffffffffffffffffffffffffffffffffffffff\n      and\n      0xa9059cbb\n        /* \"contracts/AbelStake.sol\":2565:2575  msg.sender */\n      caller\n        /* \"contracts/AbelStake.sol\":2577:2583  reward */\n      dup4\n        /* \"contracts/AbelStake.sol\":2543:2584  rewardsToken.transfer(msg.sender, reward) */\n      mload(0x40)\n      dup4\n      0xffffffff\n      and\n      0xe0\n      shl\n      dup2\n      mstore\n      0x04\n      add\n      dup1\n      dup4\n      0xffffffffffffffffffffffffffffffffffffffff\n      and\n      dup2\n      mstore\n      0x20\n      add\n      dup3\n      dup2\n      mstore\n      0x20\n      add\n      swap3\n      pop\n      pop\n      pop\n      0x20\n      mload(0x40)\n      dup1\n      dup4\n      sub\n      dup2\n      0x00\n      dup8\n      dup1\n      extcodesize\n      iszero\n      dup1\n      iszero\n      tag_81\n      jumpi\n      0x00\n      dup1\n      revert\n    tag_81:\n      pop\n      gas\n      call\n      iszero\n      dup1\n      iszero\n      tag_83\n      jumpi\n      returndatasize\n      0x00\n      dup1\n      returndatacopy\n      revert(0x00, returndatasize)\n    tag_83:\n      pop\n      pop\n      pop\n      pop\n      mload(0x40)\n      returndatasize\n      0x20\n      dup2\n      lt\n      iszero\n      tag_84\n      jumpi\n      0x00\n      dup1\n      revert\n    tag_84:\n      dup2\n      add\n      swap1\n      dup1\n      dup1\n      mload\n      swap1\n      0x20\n      add\n      swap1\n      swap3\n      swap2\n      swap1\n      pop\n      pop\n      pop\n      pop\n        /* \"contracts/AbelStake.sol\":2476:2595  if (reward > 0) {... */\n    tag_80:\n        /* \"contracts/AbelStake.sol\":1177:1178  _ */\n      pop\n        /* \"contracts/AbelStake.sol\":2368:2601  function getReward() external updateReward(msg.sender) {... */\n      pop\n      jump\t// out\n        /* \"contracts/AbelStake.sol\":108:144  IERC20 public immutable stakingToken */\n    tag_27:\n      immutable(\"0x13600b294191fc92924bb3ce4b969c1e7e2bab8f4c93c3fc6d0a51733df3c060\")\n      dup2\n      jump\t// out\n        /* \"contracts/AbelStake.sol\":1191:1309  function lastTimeRewardApplicable() public view returns (uint) {... */\n    tag_29:\n        /* \"contracts/AbelStake.sol\":1248:1252  uint */\n      0x00\n        /* \"contracts/AbelStake.sol\":1271:1302  _min(finishAt, block.timestamp) */\n      tag_86\n        /* \"contracts/AbelStake.sol\":1276:1284  finishAt */\n      sload(0x02)\n        /* \"contracts/AbelStake.sol\":1286:1301  block.timestamp */\n      timestamp\n        /* \"contracts/AbelStake.sol\":1271:1275  _min */\n      tag_87\n        /* \"contracts/AbelStake.sol\":1271:1302  _min(finishAt, block.timestamp) */\n      jump\t// in\n    tag_86:\n        /* \"contracts/AbelStake.sol\":1264:1302  return _min(finishAt, block.timestamp) */\n      swap1\n      pop\n        /* \"contracts/AbelStake.sol\":1191:1309  function lastTimeRewardApplicable() public view returns (uint) {... */\n      swap1\n      jump\t// out\n        /* \"contracts/AbelStake.sol\":462:485  uint public totalStaked */\n    tag_31:\n      sload(0x08)\n      dup2\n      jump\t// out\n        /* \"contracts/AbelStake.sol\":1617:1876  function stake(uint _amount) external updateReward(msg.sender) {... */\n    tag_34:\n        /* \"contracts/AbelStake.sol\":1668:1678  msg.sender */\n      caller\n        /* \"contracts/AbelStake.sol\":934:950  rewardPerToken() */\n      tag_89\n        /* \"contracts/AbelStake.sol\":934:948  rewardPerToken */\n      tag_39\n        /* \"contracts/AbelStake.sol\":934:950  rewardPerToken() */\n      jump\t// in\n    tag_89:\n        /* \"contracts/AbelStake.sol\":911:931  rewardPerTokenStored */\n      0x05\n        /* \"contracts/AbelStake.sol\":911:950  rewardPerTokenStored = rewardPerToken() */\n      dup2\n      swap1\n      sstore\n      pop\n        /* \"contracts/AbelStake.sol\":972:998  lastTimeRewardApplicable() */\n      tag_90\n        /* \"contracts/AbelStake.sol\":972:996  lastTimeRewardApplicable */\n      tag_29\n        /* \"contracts/AbelStake.sol\":972:998  lastTimeRewardApplicable() */\n      jump\t// in\n    tag_90:\n        /* \"contracts/AbelStake.sol\":960:969  updatedAt */\n      0x03\n        /* \"contracts/AbelStake.sol\":960:998  updatedAt = lastTimeRewardApplicable() */\n      dup2\n      swap1\n      sstore\n      pop\n        /* \"contracts/AbelStake.sol\":1033:1034  0 */\n      0x00\n        /* \"contracts/AbelStake.sol\":1013:1035  _account != address(0) */\n      0xffffffffffffffffffffffffffffffffffffffff\n      and\n        /* \"contracts/AbelStake.sol\":1013:1021  _account */\n      dup2\n        /* \"contracts/AbelStake.sol\":1013:1035  _account != address(0) */\n      0xffffffffffffffffffffffffffffffffffffffff\n      and\n      eq\n        /* \"contracts/AbelStake.sol\":1009:1167  if (_account != address(0)) {... */\n      tag_91\n      jumpi\n        /* \"contracts/AbelStake.sol\":1071:1087  earned(_account) */\n      tag_92\n        /* \"contracts/AbelStake.sol\":1078:1086  _account */\n      dup2\n        /* \"contracts/AbelStake.sol\":1071:1077  earned */\n      tag_17\n        /* \"contracts/AbelStake.sol\":1071:1087  earned(_account) */\n      jump\t// in\n    tag_92:\n        /* \"contracts/AbelStake.sol\":1051:1058  rewards */\n      0x07\n        /* \"contracts/AbelStake.sol\":1051:1068  rewards[_account] */\n      0x00\n        /* \"contracts/AbelStake.sol\":1059:1067  _account */\n      dup4\n        /* \"contracts/AbelStake.sol\":1051:1068  rewards[_account] */\n      0xffffffffffffffffffffffffffffffffffffffff\n      and\n      0xffffffffffffffffffffffffffffffffffffffff\n      and\n      dup2\n      mstore\n      0x20\n      add\n      swap1\n      dup2\n      mstore\n      0x20\n      add\n      0x00\n      keccak256\n        /* \"contracts/AbelStake.sol\":1051:1087  rewards[_account] = earned(_account) */\n      dup2\n      swap1\n      sstore\n      pop\n        /* \"contracts/AbelStake.sol\":1136:1156  rewardPerTokenStored */\n      sload(0x05)\n        /* \"contracts/AbelStake.sol\":1101:1123  userRewardPerTokenPaid */\n      0x06\n        /* \"contracts/AbelStake.sol\":1101:1133  userRewardPerTokenPaid[_account] */\n      0x00\n        /* \"contracts/AbelStake.sol\":1124:1132  _account */\n      dup4\n        /* \"contracts/AbelStake.sol\":1101:1133  userRewardPerTokenPaid[_account] */\n      0xffffffffffffffffffffffffffffffffffffffff\n      and\n      0xffffffffffffffffffffffffffffffffffffffff\n      and\n      dup2\n      mstore\n      0x20\n      add\n      swap1\n      dup2\n      mstore\n      0x20\n      add\n      0x00\n      keccak256\n        /* \"contracts/AbelStake.sol\":1101:1156  userRewardPerTokenPaid[_account] = rewardPerTokenStored */\n      dup2\n      swap1\n      sstore\n      pop\n        /* \"contracts/AbelStake.sol\":1009:1167  if (_account != address(0)) {... */\n    tag_91:\n        /* \"contracts/AbelStake.sol\":1708:1709  0 */\n      0x00\n        /* \"contracts/AbelStake.sol\":1698:1705  _amount */\n      dup3\n        /* \"contracts/AbelStake.sol\":1698:1709  _amount > 0 */\n      gt\n        /* \"contracts/AbelStake.sol\":1690:1724  require(_amount > 0, \"amount = 0\") */\n      tag_94\n      jumpi\n      mload(0x40)\n      0x08c379a000000000000000000000000000000000000000000000000000000000\n      dup2\n      mstore\n      0x04\n      add\n      dup1\n      dup1\n      0x20\n      add\n      dup3\n      dup2\n      sub\n      dup3\n      mstore\n      0x0a\n      dup2\n      mstore\n      0x20\n      add\n      dup1\n      0x616d6f756e74203d203000000000000000000000000000000000000000000000\n      dup2\n      mstore\n      pop\n      0x20\n      add\n      swap2\n      pop\n      pop\n      mload(0x40)\n      dup1\n      swap2\n      sub\n      swap1\n      revert\n    tag_94:\n        /* \"contracts/AbelStake.sol\":1734:1746  stakingToken */\n      immutable(\"0x13600b294191fc92924bb3ce4b969c1e7e2bab8f4c93c3fc6d0a51733df3c060\")\n        /* \"contracts/AbelStake.sol\":1734:1759  stakingToken.transferFrom */\n      0xffffffffffffffffffffffffffffffffffffffff\n      and\n      0x23b872dd\n        /* \"contracts/AbelStake.sol\":1760:1770  msg.sender */\n      caller\n        /* \"contracts/AbelStake.sol\":1780:1784  this */\n      address\n        /* \"contracts/AbelStake.sol\":1787:1794  _amount */\n      dup6\n        /* \"contracts/AbelStake.sol\":1734:1795  stakingToken.transferFrom(msg.sender, address(this), _amount) */\n      mload(0x40)\n      dup5\n      0xffffffff\n      and\n      0xe0\n      shl\n      dup2\n      mstore\n      0x04\n      add\n      dup1\n      dup5\n      0xffffffffffffffffffffffffffffffffffffffff\n      and\n      dup2\n      mstore\n      0x20\n      add\n      dup4\n      0xffffffffffffffffffffffffffffffffffffffff\n      and\n      dup2\n      mstore\n      0x20\n      add\n      dup3\n      dup2\n      mstore\n      0x20\n      add\n      swap4\n      pop\n      pop\n      pop\n      pop\n      0x20\n      mload(0x40)\n      dup1\n      dup4\n      sub\n      dup2\n      0x00\n      dup8\n      dup1\n      extcodesize\n      iszero\n      dup1\n      iszero\n      tag_95\n      jumpi\n      0x00\n      dup1\n      revert\n    tag_95:\n      pop\n      gas\n      call\n      iszero\n      dup1\n      iszero\n      tag_97\n      jumpi\n      returndatasize\n      0x00\n      dup1\n      returndatacopy\n      revert(0x00, returndatasize)\n    tag_97:\n      pop\n      pop\n      pop\n      pop\n      mload(0x40)\n      returndatasize\n      0x20\n      dup2\n      lt\n      iszero\n      tag_98\n      jumpi\n      0x00\n      dup1\n      revert\n    tag_98:\n      dup2\n      add\n      swap1\n      dup1\n      dup1\n      mload\n      swap1\n      0x20\n      add\n      swap1\n      swap3\n      swap2\n      swap1\n      pop\n      pop\n      pop\n      pop\n        /* \"contracts/AbelStake.sol\":1830:1837  _amount */\n      dup2\n        /* \"contracts/AbelStake.sol\":1805:1814  balanceOf */\n      0x09\n        /* \"contracts/AbelStake.sol\":1805:1826  balanceOf[msg.sender] */\n      0x00\n        /* \"contracts/AbelStake.sol\":1815:1825  msg.sender */\n      caller\n        /* \"contracts/AbelStake.sol\":1805:1826  balanceOf[msg.sender] */\n      0xffffffffffffffffffffffffffffffffffffffff\n      and\n      0xffffffffffffffffffffffffffffffffffffffff\n      and\n      dup2\n      mstore\n      0x20\n      add\n      swap1\n      dup2\n      mstore\n      0x20\n      add\n      0x00\n      keccak256\n      0x00\n        /* \"contracts/AbelStake.sol\":1805:1837  balanceOf[msg.sender] += _amount */\n      dup3\n      dup3\n      sload\n      add\n      swap3\n      pop\n      pop\n      dup2\n      swap1\n      sstore\n      pop\n        /* \"contracts/AbelStake.sol\":1862:1869  _amount */\n      dup2\n        /* \"contracts/AbelStake.sol\":1847:1858  totalStaked */\n      0x08\n      0x00\n        /* \"contracts/AbelStake.sol\":1847:1869  totalStaked += _amount */\n      dup3\n      dup3\n      sload\n      add\n      swap3\n      pop\n      pop\n      dup2\n      swap1\n      sstore\n      pop\n        /* \"contracts/AbelStake.sol\":1617:1876  function stake(uint _amount) external updateReward(msg.sender) {... */\n      pop\n      pop\n      jump\t// out\n        /* \"contracts/AbelStake.sol\":2607:2795  function setRewardsDuration(uint _duration) external {... */\n    tag_37:\n        /* \"contracts/AbelStake.sol\":2670:2681  onlyOwner() */\n      tag_100\n        /* \"contracts/AbelStake.sol\":2670:2679  onlyOwner */\n      tag_63\n        /* \"contracts/AbelStake.sol\":2670:2681  onlyOwner() */\n      jump\t// in\n    tag_100:\n        /* \"contracts/AbelStake.sol\":2710:2725  block.timestamp */\n      timestamp\n        /* \"contracts/AbelStake.sol\":2699:2707  finishAt */\n      sload(0x02)\n        /* \"contracts/AbelStake.sol\":2699:2725  finishAt < block.timestamp */\n      lt\n        /* \"contracts/AbelStake.sol\":2691:2758  require(finishAt < block.timestamp, \"reward duration not finished\") */\n      tag_101\n      jumpi\n      mload(0x40)\n      0x08c379a000000000000000000000000000000000000000000000000000000000\n      dup2\n      mstore\n      0x04\n      add\n      dup1\n      dup1\n      0x20\n      add\n      dup3\n      dup2\n      sub\n      dup3\n      mstore\n      0x1c\n      dup2\n      mstore\n      0x20\n      add\n      dup1\n      0x726577617264206475726174696f6e206e6f742066696e697368656400000000\n      dup2\n      mstore\n      pop\n      0x20\n      add\n      swap2\n      pop\n      pop\n      mload(0x40)\n      dup1\n      swap2\n      sub\n      swap1\n      revert\n    tag_101:\n        /* \"contracts/AbelStake.sol\":2779:2788  _duration */\n      dup1\n        /* \"contracts/AbelStake.sol\":2768:2776  duration */\n      0x01\n        /* \"contracts/AbelStake.sol\":2768:2788  duration = _duration */\n      dup2\n      swap1\n      sstore\n      pop\n        /* \"contracts/AbelStake.sol\":2607:2795  function setRewardsDuration(uint _duration) external {... */\n      pop\n      jump\t// out\n        /* \"contracts/AbelStake.sol\":1315:1611  function rewardPerToken() public view returns (uint) {... */\n    tag_39:\n        /* \"contracts/AbelStake.sol\":1362:1366  uint */\n      0x00\n        /* \"contracts/AbelStake.sol\":1397:1398  0 */\n      dup1\n        /* \"contracts/AbelStake.sol\":1382:1393  totalStaked */\n      sload(0x08)\n        /* \"contracts/AbelStake.sol\":1382:1398  totalStaked == 0 */\n      eq\n        /* \"contracts/AbelStake.sol\":1378:1452  if (totalStaked == 0) {... */\n      iszero\n      tag_103\n      jumpi\n        /* \"contracts/AbelStake.sol\":1421:1441  rewardPerTokenStored */\n      sload(0x05)\n        /* \"contracts/AbelStake.sol\":1414:1441  return rewardPerTokenStored */\n      swap1\n      pop\n      jump(tag_102)\n        /* \"contracts/AbelStake.sol\":1378:1452  if (totalStaked == 0) {... */\n    tag_103:\n        /* \"contracts/AbelStake.sol\":1593:1604  totalStaked */\n      sload(0x08)\n        /* \"contracts/AbelStake.sol\":1573:1577  1e18 */\n      0x0de0b6b3a7640000\n        /* \"contracts/AbelStake.sol\":1560:1569  updatedAt */\n      sload(0x03)\n        /* \"contracts/AbelStake.sol\":1531:1557  lastTimeRewardApplicable() */\n      tag_104\n        /* \"contracts/AbelStake.sol\":1531:1555  lastTimeRewardApplicable */\n      tag_29\n        /* \"contracts/AbelStake.sol\":1531:1557  lastTimeRewardApplicable() */\n      jump\t// in\n    tag_104:\n        /* \"contracts/AbelStake.sol\":1531:1569  lastTimeRewardApplicable() - updatedAt */\n      sub\n        /* \"contracts/AbelStake.sol\":1517:1527  rewardRate */\n      sload(0x04)\n        /* \"contracts/AbelStake.sol\":1517:1570  rewardRate * (lastTimeRewardApplicable() - updatedAt) */\n      mul\n        /* \"contracts/AbelStake.sol\":1517:1577  rewardRate * (lastTimeRewardApplicable() - updatedAt) * 1e18 */\n      mul\n        /* \"contracts/AbelStake.sol\":1516:1604  (rewardRate * (lastTimeRewardApplicable() - updatedAt) * 1e18) /... */\n      dup2\n      tag_105\n      jumpi\n      invalid\n    tag_105:\n      div\n        /* \"contracts/AbelStake.sol\":1481:1501  rewardPerTokenStored */\n      sload(0x05)\n        /* \"contracts/AbelStake.sol\":1481:1604  rewardPerTokenStored +... */\n      add\n        /* \"contracts/AbelStake.sol\":1462:1604  return... */\n      swap1\n      pop\n        /* \"contracts/AbelStake.sol\":1315:1611  function rewardPerToken() public view returns (uint) {... */\n    tag_102:\n      swap1\n      jump\t// out\n        /* \"contracts/AbelStake.sol\":150:186  IERC20 public immutable rewardsToken */\n    tag_41:\n      immutable(\"0xe455bf8ea6e7463a1046a0b52804526e119b4bf5136279614e0b1e8e296a4e2d\")\n      dup2\n      jump\t// out\n        /* \"contracts/AbelStake.sol\":758:855  function onlyOwner() private view {... */\n    tag_63:\n        /* \"contracts/AbelStake.sol\":824:829  owner */\n      0x00\n      dup1\n      sload\n      swap1\n      0x0100\n      exp\n      swap1\n      div\n      0xffffffffffffffffffffffffffffffffffffffff\n      and\n        /* \"contracts/AbelStake.sol\":810:829  msg.sender == owner */\n      0xffffffffffffffffffffffffffffffffffffffff\n      and\n        /* \"contracts/AbelStake.sol\":810:820  msg.sender */\n      caller\n        /* \"contracts/AbelStake.sol\":810:829  msg.sender == owner */\n      0xffffffffffffffffffffffffffffffffffffffff\n      and\n      eq\n        /* \"contracts/AbelStake.sol\":802:848  require(msg.sender == owner, \"not authorized\") */\n      tag_107\n      jumpi\n      mload(0x40)\n      0x08c379a000000000000000000000000000000000000000000000000000000000\n      dup2\n      mstore\n      0x04\n      add\n      dup1\n      dup1\n      0x20\n      add\n      dup3\n      dup2\n      sub\n      dup3\n      mstore\n      0x0e\n      dup2\n      mstore\n      0x20\n      add\n      dup1\n      0x6e6f7420617574686f72697a6564000000000000000000000000000000000000\n      dup2\n      mstore\n      pop\n      0x20\n      add\n      swap2\n      pop\n      pop\n      mload(0x40)\n      dup1\n      swap2\n      sub\n      swap1\n      revert\n    tag_107:\n        /* \"contracts/AbelStake.sol\":758:855  function onlyOwner() private view {... */\n      jump\t// out\n        /* \"contracts/AbelStake.sol\":3465:3561  function _min(uint x, uint y) private pure returns (uint) {... */\n    tag_87:\n        /* \"contracts/AbelStake.sol\":3517:3521  uint */\n      0x00\n        /* \"contracts/AbelStake.sol\":3545:3546  y */\n      dup2\n        /* \"contracts/AbelStake.sol\":3540:3541  x */\n      dup4\n        /* \"contracts/AbelStake.sol\":3540:3546  x <= y */\n      gt\n      iszero\n        /* \"contracts/AbelStake.sol\":3540:3554  x <= y ? x : y */\n      tag_109\n      jumpi\n        /* \"contracts/AbelStake.sol\":3553:3554  y */\n      dup2\n        /* \"contracts/AbelStake.sol\":3540:3554  x <= y ? x : y */\n      jump(tag_110)\n    tag_109:\n        /* \"contracts/AbelStake.sol\":3549:3550  x */\n      dup3\n        /* \"contracts/AbelStake.sol\":3540:3554  x <= y ? x : y */\n    tag_110:\n        /* \"contracts/AbelStake.sol\":3533:3554  return x <= y ? x : y */\n      swap1\n      pop\n        /* \"contracts/AbelStake.sol\":3465:3561  function _min(uint x, uint y) private pure returns (uint) {... */\n      swap3\n      swap2\n      pop\n      pop\n      jump\t// out\n\n    auxdata: 0xa2646970667358221220d153ee8f8f2ea172659e66571332cae75fd807cfd111dc8ee412c06b42c9fdf564736f6c63430007060033\n}\n",
				"bytecode": {
					"linkReferences": {},
					"object": "60c060405234801561001057600080fd5b5060405161115c38038061115c8339818101604052604081101561003357600080fd5b810190808051906020019092919080519060200190929190505050336000806101000a81548173ffffffffffffffffffffffffffffffffffffffff021916908373ffffffffffffffffffffffffffffffffffffffff1602179055508173ffffffffffffffffffffffffffffffffffffffff1660808173ffffffffffffffffffffffffffffffffffffffff1660601b815250508073ffffffffffffffffffffffffffffffffffffffff1660a08173ffffffffffffffffffffffffffffffffffffffff1660601b81525050505060805160601c60a05160601c61102161013b600039806107a05280610a695280610eec5250806105275280610b3b5280610cd252506110216000f3fe608060405234801561001057600080fd5b50600436106100a85760003560e01c806380faa57d1161007157806380faa57d1461019f578063817b1cd2146101bd578063a694fc3a146101db578063cc1a378f14610209578063cd3daf9d14610237578063d1af0c7d14610255576100a8565b80628cc262146100ad5780632e1a7d4d146101055780633c6b16ab146101335780633d18b9121461016157806372f702f31461016b575b600080fd5b6100ef600480360360208110156100c357600080fd5b81019080803573ffffffffffffffffffffffffffffffffffffffff169060200190929190505050610289565b6040518082815260200191505060405180910390f35b6101316004803603602081101561011b57600080fd5b810190808035906020019092919050505061036e565b005b61015f6004803603602081101561014957600080fd5b81019080803590602001909291905050506105f6565b005b6101696108f1565b005b610173610b39565b604051808273ffffffffffffffffffffffffffffffffffffffff16815260200191505060405180910390f35b6101a7610b5d565b6040518082815260200191505060405180910390f35b6101c5610b70565b6040518082815260200191505060405180910390f35b610207600480360360208110156101f157600080fd5b8101908080359060200190929190505050610b76565b005b6102356004803603602081101561021f57600080fd5b8101908080359060200190929190505050610e1c565b005b61023f610ea5565b6040518082815260200191505060405180910390f35b61025d610eea565b604051808273ffffffffffffffffffffffffffffffffffffffff16815260200191505060405180910390f35b6000600760008373ffffffffffffffffffffffffffffffffffffffff1673ffffffffffffffffffffffffffffffffffffffff16815260200190815260200160002054670de0b6b3a7640000600660008573ffffffffffffffffffffffffffffffffffffffff1673ffffffffffffffffffffffffffffffffffffffff1681526020019081526020016000205461031c610ea5565b03600960008673ffffffffffffffffffffffffffffffffffffffff1673ffffffffffffffffffffffffffffffffffffffff16815260200190815260200160002054028161036557fe5b04019050919050565b33610377610ea5565b600581905550610385610b5d565b600381905550600073ffffffffffffffffffffffffffffffffffffffff168173ffffffffffffffffffffffffffffffffffffffff1614610452576103c881610289565b600760008373ffffffffffffffffffffffffffffffffffffffff1673ffffffffffffffffffffffffffffffffffffffff16815260200190815260200160002081905550600554600660008373ffffffffffffffffffffffffffffffffffffffff1673ffffffffffffffffffffffffffffffffffffffff168152602001908152602001600020819055505b600082116104c8576040517f08c379a000000000000000000000000000000000000000000000000000000000815260040180806020018281038252600a8152602001807f616d6f756e74203d20300000000000000000000000000000000000000000000081525060200191505060405180910390fd5b81600960003373ffffffffffffffffffffffffffffffffffffffff1673ffffffffffffffffffffffffffffffffffffffff16815260200190815260200160002060008282540392505081905550816008600082825403925050819055507f000000000000000000000000000000000000000000000000000000000000000073ffffffffffffffffffffffffffffffffffffffff1663a9059cbb33846040518363ffffffff1660e01b8152600401808373ffffffffffffffffffffffffffffffffffffffff16815260200182815260200192505050602060405180830381600087803b1580156105b657600080fd5b505af11580156105ca573d6000803e3d6000fd5b505050506040513d60208110156105e057600080fd5b8101908080519060200190929190505050505050565b6000610600610ea5565b60058190555061060e610b5d565b600381905550600073ffffffffffffffffffffffffffffffffffffffff168173ffffffffffffffffffffffffffffffffffffffff16146106db5761065181610289565b600760008373ffffffffffffffffffffffffffffffffffffffff1673ffffffffffffffffffffffffffffffffffffffff16815260200190815260200160002081905550600554600660008373ffffffffffffffffffffffffffffffffffffffff1673ffffffffffffffffffffffffffffffffffffffff168152602001908152602001600020819055505b6106e3610f0e565b60025442106107035760015482816106f757fe5b04600481905550610726565b600060045442600254030290506001548184018161071d57fe5b04600481905550505b60006004541161079e576040517f08c379a000000000000000000000000000000000000000000000000000000000815260040180806020018281038252600f8152602001807f7265776172642072617465203d2030000000000000000000000000000000000081525060200191505060405180910390fd5b7f000000000000000000000000000000000000000000000000000000000000000073ffffffffffffffffffffffffffffffffffffffff166370a08231306040518263ffffffff1660e01b8152600401808273ffffffffffffffffffffffffffffffffffffffff16815260200191505060206040518083038186803b15801561082557600080fd5b505afa158015610839573d6000803e3d6000fd5b505050506040513d602081101561084f57600080fd5b81019080805190602001909291905050506001546004540211156108db576040517f08c379a00000000000000000000000000000000000000000000000000000000081526004018080602001828103825260178152602001807f72657761726420616d6f756e74203e2062616c616e636500000000000000000081525060200191505060405180910390fd5b6001544201600281905550426003819055505050565b336108fa610ea5565b600581905550610908610b5d565b600381905550600073ffffffffffffffffffffffffffffffffffffffff168173ffffffffffffffffffffffffffffffffffffffff16146109d55761094b81610289565b600760008373ffffffffffffffffffffffffffffffffffffffff1673ffffffffffffffffffffffffffffffffffffffff16815260200190815260200160002081905550600554600660008373ffffffffffffffffffffffffffffffffffffffff1673ffffffffffffffffffffffffffffffffffffffff168152602001908152602001600020819055505b6000600760003373ffffffffffffffffffffffffffffffffffffffff1673ffffffffffffffffffffffffffffffffffffffff1681526020019081526020016000205490506000811115610b35576000600760003373ffffffffffffffffffffffffffffffffffffffff1673ffffffffffffffffffffffffffffffffffffffff168152602001908152602001600020819055507f000000000000000000000000000000000000000000000000000000000000000073ffffffffffffffffffffffffffffffffffffffff1663a9059cbb33836040518363ffffffff1660e01b8152600401808373ffffffffffffffffffffffffffffffffffffffff16815260200182815260200192505050602060405180830381600087803b158015610af857600080fd5b505af1158015610b0c573d6000803e3d6000fd5b505050506040513d6020811015610b2257600080fd5b8101908080519060200190929190505050505b5050565b7f000000000000000000000000000000000000000000000000000000000000000081565b6000610b6b60025442610fd1565b905090565b60085481565b33610b7f610ea5565b600581905550610b8d610b5d565b600381905550600073ffffffffffffffffffffffffffffffffffffffff168173ffffffffffffffffffffffffffffffffffffffff1614610c5a57610bd081610289565b600760008373ffffffffffffffffffffffffffffffffffffffff1673ffffffffffffffffffffffffffffffffffffffff16815260200190815260200160002081905550600554600660008373ffffffffffffffffffffffffffffffffffffffff1673ffffffffffffffffffffffffffffffffffffffff168152602001908152602001600020819055505b60008211610cd0576040517f08c379a000000000000000000000000000000000000000000000000000000000815260040180806020018281038252600a8152602001807f616d6f756e74203d20300000000000000000000000000000000000000000000081525060200191505060405180910390fd5b7f000000000000000000000000000000000000000000000000000000000000000073ffffffffffffffffffffffffffffffffffffffff166323b872dd3330856040518463ffffffff1660e01b8152600401808473ffffffffffffffffffffffffffffffffffffffff1681526020018373ffffffffffffffffffffffffffffffffffffffff1681526020018281526020019350505050602060405180830381600087803b158015610d7f57600080fd5b505af1158015610d93573d6000803e3d6000fd5b505050506040513d6020811015610da957600080fd5b81019080805190602001909291905050505081600960003373ffffffffffffffffffffffffffffffffffffffff1673ffffffffffffffffffffffffffffffffffffffff16815260200190815260200160002060008282540192505081905550816008600082825401925050819055505050565b610e24610f0e565b4260025410610e9b576040517f08c379a000000000000000000000000000000000000000000000000000000000815260040180806020018281038252601c8152602001807f726577617264206475726174696f6e206e6f742066696e69736865640000000081525060200191505060405180910390fd5b8060018190555050565b6000806008541415610ebb576005549050610ee7565b600854670de0b6b3a7640000600354610ed2610b5d565b03600454020281610edf57fe5b046005540190505b90565b7f000000000000000000000000000000000000000000000000000000000000000081565b60008054906101000a900473ffffffffffffffffffffffffffffffffffffffff1673ffffffffffffffffffffffffffffffffffffffff163373ffffffffffffffffffffffffffffffffffffffff1614610fcf576040517f08c379a000000000000000000000000000000000000000000000000000000000815260040180806020018281038252600e8152602001807f6e6f7420617574686f72697a656400000000000000000000000000000000000081525060200191505060405180910390fd5b565b600081831115610fe15781610fe3565b825b90509291505056fea2646970667358221220d153ee8f8f2ea172659e66571332cae75fd807cfd111dc8ee412c06b42c9fdf564736f6c63430007060033",
					"opcodes": "PUSH1 0xC0 PUSH1 0x40 MSTORE CALLVALUE DUP1 ISZERO PUSH2 0x10 JUMPI PUSH1 0x0 DUP1 REVERT JUMPDEST POP PUSH1 0x40 MLOAD PUSH2 0x115C CODESIZE SUB DUP1 PUSH2 0x115C DUP4 CODECOPY DUP2 DUP2 ADD PUSH1 0x40 MSTORE PUSH1 0x40 DUP2 LT ISZERO PUSH2 0x33 JUMPI PUSH1 0x0 DUP1 REVERT JUMPDEST DUP2 ADD SWAP1 DUP1 DUP1 MLOAD SWAP1 PUSH1 0x20 ADD SWAP1 SWAP3 SWAP2 SWAP1 DUP1 MLOAD SWAP1 PUSH1 0x20 ADD SWAP1 SWAP3 SWAP2 SWAP1 POP POP POP CALLER PUSH1 0x0 DUP1 PUSH2 0x100 EXP DUP2 SLOAD DUP2 PUSH20 0xFFFFFFFFFFFFFFFFFFFFFFFFFFFFFFFFFFFFFFFF MUL NOT AND SWAP1 DUP4 PUSH20 0xFFFFFFFFFFFFFFFFFFFFFFFFFFFFFFFFFFFFFFFF AND MUL OR SWAP1 SSTORE POP DUP2 PUSH20 0xFFFFFFFFFFFFFFFFFFFFFFFFFFFFFFFFFFFFFFFF AND PUSH1 0x80 DUP2 PUSH20 0xFFFFFFFFFFFFFFFFFFFFFFFFFFFFFFFFFFFFFFFF AND PUSH1 0x60 SHL DUP2 MSTORE POP POP DUP1 PUSH20 0xFFFFFFFFFFFFFFFFFFFFFFFFFFFFFFFFFFFFFFFF AND PUSH1 0xA0 DUP2 PUSH20 0xFFFFFFFFFFFFFFFFFFFFFFFFFFFFFFFFFFFFFFFF AND PUSH1 0x60 SHL DUP2 MSTORE POP POP POP POP PUSH1 0x80 MLOAD PUSH1 0x60 SHR PUSH1 0xA0 MLOAD PUSH1 0x60 SHR PUSH2 0x1021 PUSH2 0x13B PUSH1 0x0 CODECOPY DUP1 PUSH2 0x7A0 MSTORE DUP1 PUSH2 0xA69 MSTORE DUP1 PUSH2 0xEEC MSTORE POP DUP1 PUSH2 0x527 MSTORE DUP1 PUSH2 0xB3B MSTORE DUP1 PUSH2 0xCD2 MSTORE POP PUSH2 0x1021 PUSH1 0x0 RETURN INVALID PUSH1 0x80 PUSH1 0x40 MSTORE CALLVALUE DUP1 ISZERO PUSH2 0x10 JUMPI PUSH1 0x0 DUP1 REVERT JUMPDEST POP PUSH1 0x4 CALLDATASIZE LT PUSH2 0xA8 JUMPI PUSH1 0x0 CALLDATALOAD PUSH1 0xE0 SHR DUP1 PUSH4 0x80FAA57D GT PUSH2 0x71 JUMPI DUP1 PUSH4 0x80FAA57D EQ PUSH2 0x19F JUMPI DUP1 PUSH4 0x817B1CD2 EQ PUSH2 0x1BD JUMPI DUP1 PUSH4 0xA694FC3A EQ PUSH2 0x1DB JUMPI DUP1 PUSH4 0xCC1A378F EQ PUSH2 0x209 JUMPI DUP1 PUSH4 0xCD3DAF9D EQ PUSH2 0x237 JUMPI DUP1 PUSH4 0xD1AF0C7D EQ PUSH2 0x255 JUMPI PUSH2 0xA8 JUMP JUMPDEST DUP1 PUSH3 0x8CC262 EQ PUSH2 0xAD JUMPI DUP1 PUSH4 0x2E1A7D4D EQ PUSH2 0x105 JUMPI DUP1 PUSH4 0x3C6B16AB EQ PUSH2 0x133 JUMPI DUP1 PUSH4 0x3D18B912 EQ PUSH2 0x161 JUMPI DUP1 PUSH4 0x72F702F3 EQ PUSH2 0x16B JUMPI JUMPDEST PUSH1 0x0 DUP1 REVERT JUMPDEST PUSH2 0xEF PUSH1 0x4 DUP1 CALLDATASIZE SUB PUSH1 0x20 DUP2 LT ISZERO PUSH2 0xC3 JUMPI PUSH1 0x0 DUP1 REVERT JUMPDEST DUP2 ADD SWAP1 DUP1 DUP1 CALLDATALOAD PUSH20 0xFFFFFFFFFFFFFFFFFFFFFFFFFFFFFFFFFFFFFFFF AND SWAP1 PUSH1 0x20 ADD SWAP1 SWAP3 SWAP2 SWAP1 POP POP POP PUSH2 0x289 JUMP JUMPDEST PUSH1 0x40 MLOAD DUP1 DUP3 DUP2 MSTORE PUSH1 0x20 ADD SWAP2 POP POP PUSH1 0x40 MLOAD DUP1 SWAP2 SUB SWAP1 RETURN JUMPDEST PUSH2 0x131 PUSH1 0x4 DUP1 CALLDATASIZE SUB PUSH1 0x20 DUP2 LT ISZERO PUSH2 0x11B JUMPI PUSH1 0x0 DUP1 REVERT JUMPDEST DUP2 ADD SWAP1 DUP1 DUP1 CALLDATALOAD SWAP1 PUSH1 0x20 ADD SWAP1 SWAP3 SWAP2 SWAP1 POP POP POP PUSH2 0x36E JUMP JUMPDEST STOP JUMPDEST PUSH2 0x15F PUSH1 0x4 DUP1 CALLDATASIZE SUB PUSH1 0x20 DUP2 LT ISZERO PUSH2 0x149 JUMPI PUSH1 0x0 DUP1 REVERT JUMPDEST DUP2 ADD SWAP1 DUP1 DUP1 CALLDATALOAD SWAP1 PUSH1 0x20 ADD SWAP1 SWAP3 SWAP2 SWAP1 POP POP POP PUSH2 0x5F6 JUMP JUMPDEST STOP JUMPDEST PUSH2 0x169 PUSH2 0x8F1 JUMP JUMPDEST STOP JUMPDEST PUSH2 0x173 PUSH2 0xB39 JUMP JUMPDEST PUSH1 0x40 MLOAD DUP1 DUP3 PUSH20 0xFFFFFFFFFFFFFFFFFFFFFFFFFFFFFFFFFFFFFFFF AND DUP2 MSTORE PUSH1 0x20 ADD SWAP2 POP POP PUSH1 0x40 MLOAD DUP1 SWAP2 SUB SWAP1 RETURN JUMPDEST PUSH2 0x1A7 PUSH2 0xB5D JUMP JUMPDEST PUSH1 0x40 MLOAD DUP1 DUP3 DUP2 MSTORE PUSH1 0x20 ADD SWAP2 POP POP PUSH1 0x40 MLOAD DUP1 SWAP2 SUB SWAP1 RETURN JUMPDEST PUSH2 0x1C5 PUSH2 0xB70 JUMP JUMPDEST PUSH1 0x40 MLOAD DUP1 DUP3 DUP2 MSTORE PUSH1 0x20 ADD SWAP2 POP POP PUSH1 0x40 MLOAD DUP1 SWAP2 SUB SWAP1 RETURN JUMPDEST PUSH2 0x207 PUSH1 0x4 DUP1 CALLDATASIZE SUB PUSH1 0x20 DUP2 LT ISZERO PUSH2 0x1F1 JUMPI PUSH1 0x0 DUP1 REVERT JUMPDEST DUP2 ADD SWAP1 DUP1 DUP1 CALLDATALOAD SWAP1 PUSH1 0x20 ADD SWAP1 SWAP3 SWAP2 SWAP1 POP POP POP PUSH2 0xB76 JUMP JUMPDEST STOP JUMPDEST PUSH2 0x235 PUSH1 0x4 DUP1 CALLDATASIZE SUB PUSH1 0x20 DUP2 LT ISZERO PUSH2 0x21F JUMPI PUSH1 0x0 DUP1 REVERT JUMPDEST DUP2 ADD SWAP1 DUP1 DUP1 CALLDATALOAD SWAP1 PUSH1 0x20 ADD SWAP1 SWAP3 SWAP2 SWAP1 POP POP POP PUSH2 0xE1C JUMP JUMPDEST STOP JUMPDEST PUSH2 0x23F PUSH2 0xEA5 JUMP JUMPDEST PUSH1 0x40 MLOAD DUP1 DUP3 DUP2 MSTORE PUSH1 0x20 ADD SWAP2 POP POP PUSH1 0x40 MLOAD DUP1 SWAP2 SUB SWAP1 RETURN JUMPDEST PUSH2 0x25D PUSH2 0xEEA JUMP JUMPDEST PUSH1 0x40 MLOAD DUP1 DUP3 PUSH20 0xFFFFFFFFFFFFFFFFFFFFFFFFFFFFFFFFFFFFFFFF AND DUP2 MSTORE PUSH1 0x20 ADD SWAP2 POP POP PUSH1 0x40 MLOAD DUP1 SWAP2 SUB SWAP1 RETURN JUMPDEST PUSH1 0x0 PUSH1 0x7 PUSH1 0x0 DUP4 PUSH20 0xFFFFFFFFFFFFFFFFFFFFFFFFFFFFFFFFFFFFFFFF AND PUSH20 0xFFFFFFFFFFFFFFFFFFFFFFFFFFFFFFFFFFFFFFFF AND DUP2 MSTORE PUSH1 0x20 ADD SWAP1 DUP2 MSTORE PUSH1 0x20 ADD PUSH1 0x0 KECCAK256 SLOAD PUSH8 0xDE0B6B3A7640000 PUSH1 0x6 PUSH1 0x0 DUP6 PUSH20 0xFFFFFFFFFFFFFFFFFFFFFFFFFFFFFFFFFFFFFFFF AND PUSH20 0xFFFFFFFFFFFFFFFFFFFFFFFFFFFFFFFFFFFFFFFF AND DUP2 MSTORE PUSH1 0x20 ADD SWAP1 DUP2 MSTORE PUSH1 0x20 ADD PUSH1 0x0 KECCAK256 SLOAD PUSH2 0x31C PUSH2 0xEA5 JUMP JUMPDEST SUB PUSH1 0x9 PUSH1 0x0 DUP7 PUSH20 0xFFFFFFFFFFFFFFFFFFFFFFFFFFFFFFFFFFFFFFFF AND PUSH20 0xFFFFFFFFFFFFFFFFFFFFFFFFFFFFFFFFFFFFFFFF AND DUP2 MSTORE PUSH1 0x20 ADD SWAP1 DUP2 MSTORE PUSH1 0x20 ADD PUSH1 0x0 KECCAK256 SLOAD MUL DUP2 PUSH2 0x365 JUMPI INVALID JUMPDEST DIV ADD SWAP1 POP SWAP2 SWAP1 POP JUMP JUMPDEST CALLER PUSH2 0x377 PUSH2 0xEA5 JUMP JUMPDEST PUSH1 0x5 DUP2 SWAP1 SSTORE POP PUSH2 0x385 PUSH2 0xB5D JUMP JUMPDEST PUSH1 0x3 DUP2 SWAP1 SSTORE POP PUSH1 0x0 PUSH20 0xFFFFFFFFFFFFFFFFFFFFFFFFFFFFFFFFFFFFFFFF AND DUP2 PUSH20 0xFFFFFFFFFFFFFFFFFFFFFFFFFFFFFFFFFFFFFFFF AND EQ PUSH2 0x452 JUMPI PUSH2 0x3C8 DUP2 PUSH2 0x289 JUMP JUMPDEST PUSH1 0x7 PUSH1 0x0 DUP4 PUSH20 0xFFFFFFFFFFFFFFFFFFFFFFFFFFFFFFFFFFFFFFFF AND PUSH20 0xFFFFFFFFFFFFFFFFFFFFFFFFFFFFFFFFFFFFFFFF AND DUP2 MSTORE PUSH1 0x20 ADD SWAP1 DUP2 MSTORE PUSH1 0x20 ADD PUSH1 0x0 KECCAK256 DUP2 SWAP1 SSTORE POP PUSH1 0x5 SLOAD PUSH1 0x6 PUSH1 0x0 DUP4 PUSH20 0xFFFFFFFFFFFFFFFFFFFFFFFFFFFFFFFFFFFFFFFF AND PUSH20 0xFFFFFFFFFFFFFFFFFFFFFFFFFFFFFFFFFFFFFFFF AND DUP2 MSTORE PUSH1 0x20 ADD SWAP1 DUP2 MSTORE PUSH1 0x20 ADD PUSH1 0x0 KECCAK256 DUP2 SWAP1 SSTORE POP JUMPDEST PUSH1 0x0 DUP3 GT PUSH2 0x4C8 JUMPI PUSH1 0x40 MLOAD PUSH32 0x8C379A000000000000000000000000000000000000000000000000000000000 DUP2 MSTORE PUSH1 0x4 ADD DUP1 DUP1 PUSH1 0x20 ADD DUP3 DUP2 SUB DUP3 MSTORE PUSH1 0xA DUP2 MSTORE PUSH1 0x20 ADD DUP1 PUSH32 0x616D6F756E74203D203000000000000000000000000000000000000000000000 DUP2 MSTORE POP PUSH1 0x20 ADD SWAP2 POP POP PUSH1 0x40 MLOAD DUP1 SWAP2 SUB SWAP1 REVERT JUMPDEST DUP2 PUSH1 0x9 PUSH1 0x0 CALLER PUSH20 0xFFFFFFFFFFFFFFFFFFFFFFFFFFFFFFFFFFFFFFFF AND PUSH20 0xFFFFFFFFFFFFFFFFFFFFFFFFFFFFFFFFFFFFFFFF AND DUP2 MSTORE PUSH1 0x20 ADD SWAP1 DUP2 MSTORE PUSH1 0x20 ADD PUSH1 0x0 KECCAK256 PUSH1 0x0 DUP3 DUP3 SLOAD SUB SWAP3 POP POP DUP2 SWAP1 SSTORE POP DUP2 PUSH1 0x8 PUSH1 0x0 DUP3 DUP3 SLOAD SUB SWAP3 POP POP DUP2 SWAP1 SSTORE POP PUSH32 0x0 PUSH20 0xFFFFFFFFFFFFFFFFFFFFFFFFFFFFFFFFFFFFFFFF AND PUSH4 0xA9059CBB CALLER DUP5 PUSH1 0x40 MLOAD DUP4 PUSH4 0xFFFFFFFF AND PUSH1 0xE0 SHL DUP2 MSTORE PUSH1 0x4 ADD DUP1 DUP4 PUSH20 0xFFFFFFFFFFFFFFFFFFFFFFFFFFFFFFFFFFFFFFFF AND DUP2 MSTORE PUSH1 0x20 ADD DUP3 DUP2 MSTORE PUSH1 0x20 ADD SWAP3 POP POP POP PUSH1 0x20 PUSH1 0x40 MLOAD DUP1 DUP4 SUB DUP2 PUSH1 0x0 DUP8 DUP1 EXTCODESIZE ISZERO DUP1 ISZERO PUSH2 0x5B6 JUMPI PUSH1 0x0 DUP1 REVERT JUMPDEST POP GAS CALL ISZERO DUP1 ISZERO PUSH2 0x5CA JUMPI RETURNDATASIZE PUSH1 0x0 DUP1 RETURNDATACOPY RETURNDATASIZE PUSH1 0x0 REVERT JUMPDEST POP POP POP POP PUSH1 0x40 MLOAD RETURNDATASIZE PUSH1 0x20 DUP2 LT ISZERO PUSH2 0x5E0 JUMPI PUSH1 0x0 DUP1 REVERT JUMPDEST DUP2 ADD SWAP1 DUP1 DUP1 MLOAD SWAP1 PUSH1 0x20 ADD SWAP1 SWAP3 SWAP2 SWAP1 POP POP POP POP POP POP JUMP JUMPDEST PUSH1 0x0 PUSH2 0x600 PUSH2 0xEA5 JUMP JUMPDEST PUSH1 0x5 DUP2 SWAP1 SSTORE POP PUSH2 0x60E PUSH2 0xB5D JUMP JUMPDEST PUSH1 0x3 DUP2 SWAP1 SSTORE POP PUSH1 0x0 PUSH20 0xFFFFFFFFFFFFFFFFFFFFFFFFFFFFFFFFFFFFFFFF AND DUP2 PUSH20 0xFFFFFFFFFFFFFFFFFFFFFFFFFFFFFFFFFFFFFFFF AND EQ PUSH2 0x6DB JUMPI PUSH2 0x651 DUP2 PUSH2 0x289 JUMP JUMPDEST PUSH1 0x7 PUSH1 0x0 DUP4 PUSH20 0xFFFFFFFFFFFFFFFFFFFFFFFFFFFFFFFFFFFFFFFF AND PUSH20 0xFFFFFFFFFFFFFFFFFFFFFFFFFFFFFFFFFFFFFFFF AND DUP2 MSTORE PUSH1 0x20 ADD SWAP1 DUP2 MSTORE PUSH1 0x20 ADD PUSH1 0x0 KECCAK256 DUP2 SWAP1 SSTORE POP PUSH1 0x5 SLOAD PUSH1 0x6 PUSH1 0x0 DUP4 PUSH20 0xFFFFFFFFFFFFFFFFFFFFFFFFFFFFFFFFFFFFFFFF AND PUSH20 0xFFFFFFFFFFFFFFFFFFFFFFFFFFFFFFFFFFFFFFFF AND DUP2 MSTORE PUSH1 0x20 ADD SWAP1 DUP2 MSTORE PUSH1 0x20 ADD PUSH1 0x0 KECCAK256 DUP2 SWAP1 SSTORE POP JUMPDEST PUSH2 0x6E3 PUSH2 0xF0E JUMP JUMPDEST PUSH1 0x2 SLOAD TIMESTAMP LT PUSH2 0x703 JUMPI PUSH1 0x1 SLOAD DUP3 DUP2 PUSH2 0x6F7 JUMPI INVALID JUMPDEST DIV PUSH1 0x4 DUP2 SWAP1 SSTORE POP PUSH2 0x726 JUMP JUMPDEST PUSH1 0x0 PUSH1 0x4 SLOAD TIMESTAMP PUSH1 0x2 SLOAD SUB MUL SWAP1 POP PUSH1 0x1 SLOAD DUP2 DUP5 ADD DUP2 PUSH2 0x71D JUMPI INVALID JUMPDEST DIV PUSH1 0x4 DUP2 SWAP1 SSTORE POP POP JUMPDEST PUSH1 0x0 PUSH1 0x4 SLOAD GT PUSH2 0x79E JUMPI PUSH1 0x40 MLOAD PUSH32 0x8C379A000000000000000000000000000000000000000000000000000000000 DUP2 MSTORE PUSH1 0x4 ADD DUP1 DUP1 PUSH1 0x20 ADD DUP3 DUP2 SUB DUP3 MSTORE PUSH1 0xF DUP2 MSTORE PUSH1 0x20 ADD DUP1 PUSH32 0x7265776172642072617465203D20300000000000000000000000000000000000 DUP2 MSTORE POP PUSH1 0x20 ADD SWAP2 POP POP PUSH1 0x40 MLOAD DUP1 SWAP2 SUB SWAP1 REVERT JUMPDEST PUSH32 0x0 PUSH20 0xFFFFFFFFFFFFFFFFFFFFFFFFFFFFFFFFFFFFFFFF AND PUSH4 0x70A08231 ADDRESS PUSH1 0x40 MLOAD DUP3 PUSH4 0xFFFFFFFF AND PUSH1 0xE0 SHL DUP2 MSTORE PUSH1 0x4 ADD DUP1 DUP3 PUSH20 0xFFFFFFFFFFFFFFFFFFFFFFFFFFFFFFFFFFFFFFFF AND DUP2 MSTORE PUSH1 0x20 ADD SWAP2 POP POP PUSH1 0x20 PUSH1 0x40 MLOAD DUP1 DUP4 SUB DUP2 DUP7 DUP1 EXTCODESIZE ISZERO DUP1 ISZERO PUSH2 0x825 JUMPI PUSH1 0x0 DUP1 REVERT JUMPDEST POP GAS STATICCALL ISZERO DUP1 ISZERO PUSH2 0x839 JUMPI RETURNDATASIZE PUSH1 0x0 DUP1 RETURNDATACOPY RETURNDATASIZE PUSH1 0x0 REVERT JUMPDEST POP POP POP POP PUSH1 0x40 MLOAD RETURNDATASIZE PUSH1 0x20 DUP2 LT ISZERO PUSH2 0x84F JUMPI PUSH1 0x0 DUP1 REVERT JUMPDEST DUP2 ADD SWAP1 DUP1 DUP1 MLOAD SWAP1 PUSH1 0x20 ADD SWAP1 SWAP3 SWAP2 SWAP1 POP POP POP PUSH1 0x1 SLOAD PUSH1 0x4 SLOAD MUL GT ISZERO PUSH2 0x8DB JUMPI PUSH1 0x40 MLOAD PUSH32 0x8C379A000000000000000000000000000000000000000000000000000000000 DUP2 MSTORE PUSH1 0x4 ADD DUP1 DUP1 PUSH1 0x20 ADD DUP3 DUP2 SUB DUP3 MSTORE PUSH1 0x17 DUP2 MSTORE PUSH1 0x20 ADD DUP1 PUSH32 0x72657761726420616D6F756E74203E2062616C616E6365000000000000000000 DUP2 MSTORE POP PUSH1 0x20 ADD SWAP2 POP POP PUSH1 0x40 MLOAD DUP1 SWAP2 SUB SWAP1 REVERT JUMPDEST PUSH1 0x1 SLOAD TIMESTAMP ADD PUSH1 0x2 DUP2 SWAP1 SSTORE POP TIMESTAMP PUSH1 0x3 DUP2 SWAP1 SSTORE POP POP POP JUMP JUMPDEST CALLER PUSH2 0x8FA PUSH2 0xEA5 JUMP JUMPDEST PUSH1 0x5 DUP2 SWAP1 SSTORE POP PUSH2 0x908 PUSH2 0xB5D JUMP JUMPDEST PUSH1 0x3 DUP2 SWAP1 SSTORE POP PUSH1 0x0 PUSH20 0xFFFFFFFFFFFFFFFFFFFFFFFFFFFFFFFFFFFFFFFF AND DUP2 PUSH20 0xFFFFFFFFFFFFFFFFFFFFFFFFFFFFFFFFFFFFFFFF AND EQ PUSH2 0x9D5 JUMPI PUSH2 0x94B DUP2 PUSH2 0x289 JUMP JUMPDEST PUSH1 0x7 PUSH1 0x0 DUP4 PUSH20 0xFFFFFFFFFFFFFFFFFFFFFFFFFFFFFFFFFFFFFFFF AND PUSH20 0xFFFFFFFFFFFFFFFFFFFFFFFFFFFFFFFFFFFFFFFF AND DUP2 MSTORE PUSH1 0x20 ADD SWAP1 DUP2 MSTORE PUSH1 0x20 ADD PUSH1 0x0 KECCAK256 DUP2 SWAP1 SSTORE POP PUSH1 0x5 SLOAD PUSH1 0x6 PUSH1 0x0 DUP4 PUSH20 0xFFFFFFFFFFFFFFFFFFFFFFFFFFFFFFFFFFFFFFFF AND PUSH20 0xFFFFFFFFFFFFFFFFFFFFFFFFFFFFFFFFFFFFFFFF AND DUP2 MSTORE PUSH1 0x20 ADD SWAP1 DUP2 MSTORE PUSH1 0x20 ADD PUSH1 0x0 KECCAK256 DUP2 SWAP1 SSTORE POP JUMPDEST PUSH1 0x0 PUSH1 0x7 PUSH1 0x0 CALLER PUSH20 0xFFFFFFFFFFFFFFFFFFFFFFFFFFFFFFFFFFFFFFFF AND PUSH20 0xFFFFFFFFFFFFFFFFFFFFFFFFFFFFFFFFFFFFFFFF AND DUP2 MSTORE PUSH1 0x20 ADD SWAP1 DUP2 MSTORE PUSH1 0x20 ADD PUSH1 0x0 KECCAK256 SLOAD SWAP1 POP PUSH1 0x0 DUP2 GT ISZERO PUSH2 0xB35 JUMPI PUSH1 0x0 PUSH1 0x7 PUSH1 0x0 CALLER PUSH20 0xFFFFFFFFFFFFFFFFFFFFFFFFFFFFFFFFFFFFFFFF AND PUSH20 0xFFFFFFFFFFFFFFFFFFFFFFFFFFFFFFFFFFFFFFFF AND DUP2 MSTORE PUSH1 0x20 ADD SWAP1 DUP2 MSTORE PUSH1 0x20 ADD PUSH1 0x0 KECCAK256 DUP2 SWAP1 SSTORE POP PUSH32 0x0 PUSH20 0xFFFFFFFFFFFFFFFFFFFFFFFFFFFFFFFFFFFFFFFF AND PUSH4 0xA9059CBB CALLER DUP4 PUSH1 0x40 MLOAD DUP4 PUSH4 0xFFFFFFFF AND PUSH1 0xE0 SHL DUP2 MSTORE PUSH1 0x4 ADD DUP1 DUP4 PUSH20 0xFFFFFFFFFFFFFFFFFFFFFFFFFFFFFFFFFFFFFFFF AND DUP2 MSTORE PUSH1 0x20 ADD DUP3 DUP2 MSTORE PUSH1 0x20 ADD SWAP3 POP POP POP PUSH1 0x20 PUSH1 0x40 MLOAD DUP1 DUP4 SUB DUP2 PUSH1 0x0 DUP8 DUP1 EXTCODESIZE ISZERO DUP1 ISZERO PUSH2 0xAF8 JUMPI PUSH1 0x0 DUP1 REVERT JUMPDEST POP GAS CALL ISZERO DUP1 ISZERO PUSH2 0xB0C JUMPI RETURNDATASIZE PUSH1 0x0 DUP1 RETURNDATACOPY RETURNDATASIZE PUSH1 0x0 REVERT JUMPDEST POP POP POP POP PUSH1 0x40 MLOAD RETURNDATASIZE PUSH1 0x20 DUP2 LT ISZERO PUSH2 0xB22 JUMPI PUSH1 0x0 DUP1 REVERT JUMPDEST DUP2 ADD SWAP1 DUP1 DUP1 MLOAD SWAP1 PUSH1 0x20 ADD SWAP1 SWAP3 SWAP2 SWAP1 POP POP POP POP JUMPDEST POP POP JUMP JUMPDEST PUSH32 0x0 DUP2 JUMP JUMPDEST PUSH1 0x0 PUSH2 0xB6B PUSH1 0x2 SLOAD TIMESTAMP PUSH2 0xFD1 JUMP JUMPDEST SWAP1 POP SWAP1 JUMP JUMPDEST PUSH1 0x8 SLOAD DUP2 JUMP JUMPDEST CALLER PUSH2 0xB7F PUSH2 0xEA5 JUMP JUMPDEST PUSH1 0x5 DUP2 SWAP1 SSTORE POP PUSH2 0xB8D PUSH2 0xB5D JUMP JUMPDEST PUSH1 0x3 DUP2 SWAP1 SSTORE POP PUSH1 0x0 PUSH20 0xFFFFFFFFFFFFFFFFFFFFFFFFFFFFFFFFFFFFFFFF AND DUP2 PUSH20 0xFFFFFFFFFFFFFFFFFFFFFFFFFFFFFFFFFFFFFFFF AND EQ PUSH2 0xC5A JUMPI PUSH2 0xBD0 DUP2 PUSH2 0x289 JUMP JUMPDEST PUSH1 0x7 PUSH1 0x0 DUP4 PUSH20 0xFFFFFFFFFFFFFFFFFFFFFFFFFFFFFFFFFFFFFFFF AND PUSH20 0xFFFFFFFFFFFFFFFFFFFFFFFFFFFFFFFFFFFFFFFF AND DUP2 MSTORE PUSH1 0x20 ADD SWAP1 DUP2 MSTORE PUSH1 0x20 ADD PUSH1 0x0 KECCAK256 DUP2 SWAP1 SSTORE POP PUSH1 0x5 SLOAD PUSH1 0x6 PUSH1 0x0 DUP4 PUSH20 0xFFFFFFFFFFFFFFFFFFFFFFFFFFFFFFFFFFFFFFFF AND PUSH20 0xFFFFFFFFFFFFFFFFFFFFFFFFFFFFFFFFFFFFFFFF AND DUP2 MSTORE PUSH1 0x20 ADD SWAP1 DUP2 MSTORE PUSH1 0x20 ADD PUSH1 0x0 KECCAK256 DUP2 SWAP1 SSTORE POP JUMPDEST PUSH1 0x0 DUP3 GT PUSH2 0xCD0 JUMPI PUSH1 0x40 MLOAD PUSH32 0x8C379A000000000000000000000000000000000000000000000000000000000 DUP2 MSTORE PUSH1 0x4 ADD DUP1 DUP1 PUSH1 0x20 ADD DUP3 DUP2 SUB DUP3 MSTORE PUSH1 0xA DUP2 MSTORE PUSH1 0x20 ADD DUP1 PUSH32 0x616D6F756E74203D203000000000000000000000000000000000000000000000 DUP2 MSTORE POP PUSH1 0x20 ADD SWAP2 POP POP PUSH1 0x40 MLOAD DUP1 SWAP2 SUB SWAP1 REVERT JUMPDEST PUSH32 0x0 PUSH20 0xFFFFFFFFFFFFFFFFFFFFFFFFFFFFFFFFFFFFFFFF AND PUSH4 0x23B872DD CALLER ADDRESS DUP6 PUSH1 0x40 MLOAD DUP5 PUSH4 0xFFFFFFFF AND PUSH1 0xE0 SHL DUP2 MSTORE PUSH1 0x4 ADD DUP1 DUP5 PUSH20 0xFFFFFFFFFFFFFFFFFFFFFFFFFFFFFFFFFFFFFFFF AND DUP2 MSTORE PUSH1 0x20 ADD DUP4 PUSH20 0xFFFFFFFFFFFFFFFFFFFFFFFFFFFFFFFFFFFFFFFF AND DUP2 MSTORE PUSH1 0x20 ADD DUP3 DUP2 MSTORE PUSH1 0x20 ADD SWAP4 POP POP POP POP PUSH1 0x20 PUSH1 0x40 MLOAD DUP1 DUP4 SUB DUP2 PUSH1 0x0 DUP8 DUP1 EXTCODESIZE ISZERO DUP1 ISZERO PUSH2 0xD7F JUMPI PUSH1 0x0 DUP1 REVERT JUMPDEST POP GAS CALL ISZERO DUP1 ISZERO PUSH2 0xD93 JUMPI RETURNDATASIZE PUSH1 0x0 DUP1 RETURNDATACOPY RETURNDATASIZE PUSH1 0x0 REVERT JUMPDEST POP POP POP POP PUSH1 0x40 MLOAD RETURNDATASIZE PUSH1 0x20 DUP2 LT ISZERO PUSH2 0xDA9 JUMPI PUSH1 0x0 DUP1 REVERT JUMPDEST DUP2 ADD SWAP1 DUP1 DUP1 MLOAD SWAP1 PUSH1 0x20 ADD SWAP1 SWAP3 SWAP2 SWAP1 POP POP POP POP DUP2 PUSH1 0x9 PUSH1 0x0 CALLER PUSH20 0xFFFFFFFFFFFFFFFFFFFFFFFFFFFFFFFFFFFFFFFF AND PUSH20 0xFFFFFFFFFFFFFFFFFFFFFFFFFFFFFFFFFFFFFFFF AND DUP2 MSTORE PUSH1 0x20 ADD SWAP1 DUP2 MSTORE PUSH1 0x20 ADD PUSH1 0x0 KECCAK256 PUSH1 0x0 DUP3 DUP3 SLOAD ADD SWAP3 POP POP DUP2 SWAP1 SSTORE POP DUP2 PUSH1 0x8 PUSH1 0x0 DUP3 DUP3 SLOAD ADD SWAP3 POP POP DUP2 SWAP1 SSTORE POP POP POP JUMP JUMPDEST PUSH2 0xE24 PUSH2 0xF0E JUMP JUMPDEST TIMESTAMP PUSH1 0x2 SLOAD LT PUSH2 0xE9B JUMPI PUSH1 0x40 MLOAD PUSH32 0x8C379A000000000000000000000000000000000000000000000000000000000 DUP2 MSTORE PUSH1 0x4 ADD DUP1 DUP1 PUSH1 0x20 ADD DUP3 DUP2 SUB DUP3 MSTORE PUSH1 0x1C DUP2 MSTORE PUSH1 0x20 ADD DUP1 PUSH32 0x726577617264206475726174696F6E206E6F742066696E697368656400000000 DUP2 MSTORE POP PUSH1 0x20 ADD SWAP2 POP POP PUSH1 0x40 MLOAD DUP1 SWAP2 SUB SWAP1 REVERT JUMPDEST DUP1 PUSH1 0x1 DUP2 SWAP1 SSTORE POP POP JUMP JUMPDEST PUSH1 0x0 DUP1 PUSH1 0x8 SLOAD EQ ISZERO PUSH2 0xEBB JUMPI PUSH1 0x5 SLOAD SWAP1 POP PUSH2 0xEE7 JUMP JUMPDEST PUSH1 0x8 SLOAD PUSH8 0xDE0B6B3A7640000 PUSH1 0x3 SLOAD PUSH2 0xED2 PUSH2 0xB5D JUMP JUMPDEST SUB PUSH1 0x4 SLOAD MUL MUL DUP2 PUSH2 0xEDF JUMPI INVALID JUMPDEST DIV PUSH1 0x5 SLOAD ADD SWAP1 POP JUMPDEST SWAP1 JUMP JUMPDEST PUSH32 0x0 DUP2 JUMP JUMPDEST PUSH1 0x0 DUP1 SLOAD SWAP1 PUSH2 0x100 EXP SWAP1 DIV PUSH20 0xFFFFFFFFFFFFFFFFFFFFFFFFFFFFFFFFFFFFFFFF AND PUSH20 0xFFFFFFFFFFFFFFFFFFFFFFFFFFFFFFFFFFFFFFFF AND CALLER PUSH20 0xFFFFFFFFFFFFFFFFFFFFFFFFFFFFFFFFFFFFFFFF AND EQ PUSH2 0xFCF JUMPI PUSH1 0x40 MLOAD PUSH32 0x8C379A000000000000000000000000000000000000000000000000000000000 DUP2 MSTORE PUSH1 0x4 ADD DUP1 DUP1 PUSH1 0x20 ADD DUP3 DUP2 SUB DUP3 MSTORE PUSH1 0xE DUP2 MSTORE PUSH1 0x20 ADD DUP1 PUSH32 0x6E6F7420617574686F72697A6564000000000000000000000000000000000000 DUP2 MSTORE POP PUSH1 0x20 ADD SWAP2 POP POP PUSH1 0x40 MLOAD DUP1 SWAP2 SUB SWAP1 REVERT JUMPDEST JUMP JUMPDEST PUSH1 0x0 DUP2 DUP4 GT ISZERO PUSH2 0xFE1 JUMPI DUP2 PUSH2 0xFE3 JUMP JUMPDEST DUP3 JUMPDEST SWAP1 POP SWAP3 SWAP2 POP POP JUMP INVALID LOG2 PUSH5 0x6970667358 0x22 SLT KECCAK256 0xD1 MSTORE8 0xEE DUP16 DUP16 0x2E LOG1 PUSH19 0x659E66571332CAE75FD807CFD111DC8EE412C0 PUSH12 0x42C9FDF564736F6C63430007 MOD STOP CALLER "
				},
				"gasEstimates": {
					"creation": {
						"codeDepositCost": "825800",
						"executionCost": "infinite",
						"totalCost": "infinite"
					},
					"external": {
						"earned(address)": "8056",
						"getReward()": "infinite",
						"lastTimeRewardApplicable()": "1097",
						"notifyRewardAmount(uint256)": "infinite",
						"rewardPerToken()": "5300",
						"rewardsToken()": "infinite",
						"setRewardsDuration(uint256)": "22021",
						"stake(uint256)": "infinite",
						"stakingToken()": "infinite",
						"totalStaked()": "1027",
						"withdraw(uint256)": "infinite"
					},
					"internal": {
						"_min(uint256,uint256)": "67",
						"onlyOwner()": "infinite"
					}
				},
				"methodIdentifiers": {
					"earned(address)": "008cc262",
					"getReward()": "3d18b912",
					"lastTimeRewardApplicable()": "80faa57d",
					"notifyRewardAmount(uint256)": "3c6b16ab",
					"rewardPerToken()": "cd3daf9d",
					"rewardsToken()": "d1af0c7d",
					"setRewardsDuration(uint256)": "cc1a378f",
					"stake(uint256)": "a694fc3a",
					"stakingToken()": "72f702f3",
					"totalStaked()": "817b1cd2",
					"withdraw(uint256)": "2e1a7d4d"
				}
			},
			"storageLayout": {
				"storage": [
					{
						"astId": 8,
						"contract": "contracts/AbelStake.sol:AbelStaking",
						"label": "owner",
						"offset": 0,
						"slot": "0",
						"type": "t_address"
					},
					{
						"astId": 10,
						"contract": "contracts/AbelStake.sol:AbelStaking",
						"label": "duration",
						"offset": 0,
						"slot": "1",
						"type": "t_uint256"
					},
					{
						"astId": 12,
						"contract": "contracts/AbelStake.sol:AbelStaking",
						"label": "finishAt",
						"offset": 0,
						"slot": "2",
						"type": "t_uint256"
					},
					{
						"astId": 14,
						"contract": "contracts/AbelStake.sol:AbelStaking",
						"label": "updatedAt",
						"offset": 0,
						"slot": "3",
						"type": "t_uint256"
					},
					{
						"astId": 16,
						"contract": "contracts/AbelStake.sol:AbelStaking",
						"label": "rewardRate",
						"offset": 0,
						"slot": "4",
						"type": "t_uint256"
					},
					{
						"astId": 18,
						"contract": "contracts/AbelStake.sol:AbelStaking",
						"label": "rewardPerTokenStored",
						"offset": 0,
						"slot": "5",
						"type": "t_uint256"
					},
					{
						"astId": 22,
						"contract": "contracts/AbelStake.sol:AbelStaking",
						"label": "userRewardPerTokenPaid",
						"offset": 0,
						"slot": "6",
						"type": "t_mapping(t_address,t_uint256)"
					},
					{
						"astId": 26,
						"contract": "contracts/AbelStake.sol:AbelStaking",
						"label": "rewards",
						"offset": 0,
						"slot": "7",
						"type": "t_mapping(t_address,t_uint256)"
					},
					{
						"astId": 28,
						"contract": "contracts/AbelStake.sol:AbelStaking",
						"label": "totalStaked",
						"offset": 0,
						"slot": "8",
						"type": "t_uint256"
					},
					{
						"astId": 32,
						"contract": "contracts/AbelStake.sol:AbelStaking",
						"label": "balanceOf",
						"offset": 0,
						"slot": "9",
						"type": "t_mapping(t_address,t_uint256)"
					}
				],
				"types": {
					"t_address": {
						"encoding": "inplace",
						"label": "address",
						"numberOfBytes": "20"
					},
					"t_mapping(t_address,t_uint256)": {
						"encoding": "mapping",
						"key": "t_address",
						"label": "mapping(address => uint256)",
						"numberOfBytes": "32",
						"value": "t_uint256"
					},
					"t_uint256": {
						"encoding": "inplace",
						"label": "uint256",
						"numberOfBytes": "32"
					}
				}
			},
			"userdoc": {
				"kind": "user",
				"methods": {},
				"version": 1
			}
		}
	}
}